{
	"data": {
		"bytecode": {
			"linkReferences": {},
			"object": "60e0604052348015600e575f5ffd5b5062010000608052601060a052600260c05260805160a05160c0516154546100585f395f61057101525f818161061d01528181610bf60152610c9201525f61051a01526154545ff3fe608060405234801561000f575f5ffd5b5060043610610029575f3560e01c8063ea50d0e41461002d575b5f5ffd5b61004061003b36600461505d565b610054565b604051901515815260200160405180910390f35b5f6100626101b86020615139565b8414610081576040516376ba560560e11b815260040160405180910390fd5b5f61008a610198565b90505f61009787876101ad565b604083015190915084146100be5760405163fa06659360e01b815260040160405180910390fd5b5f6100d5828787865f015187604001516001610455565b90506101238686808060200260200160405190810160405280939291908181526020018383602002808284375f92019190915250508451606081015160809091015190925090506001610504565b815160a001525f6101348383610615565b905080610154576040516313f8744360e31b815260040160405180910390fd5b5f610160848685610716565b905080610180576040516352ec174560e11b815260040160405180910390fd5b81801561018a5750805b9a9950505050505050505050565b6101a0614841565b6101a8610f8a565b905090565b6101b5614bbf565b6101ca6101c560805f8587615150565b611873565b81526101de6101c561010060808587615150565b60208201526101f66101c56101806101008587615150565b604082015261020e6101c56102006101808587615150565b60a08201526102266101c56102806102008587615150565b60c082015261023e6101c56103006102808587615150565b60608201526102566101c56103806103008587615150565b60e082015261026e6101c56104006103808587615150565b60808201526104005f5b601c811015610305575f5b60088110156102fc576102af86848761029d826020615177565b926102aa93929190615150565b611967565b84610100015183601c81106102c6576102c661518a565b602002015182600881106102dc576102dc61518a565b6020020181815250506020836102f29190615177565b9250600101610283565b50600101610278565b505f5b60288110156103595761032285838661029d826020615177565b83610120015182602881106103395761033961518a565b60200201818152505060208261034f9190615177565b9150600101610308565b505f5b6103686001601c61519e565b8110156103be5761038d858386610380826080615177565b926101c593929190615150565b83610140015182601b81106103a4576103a461518a565b60200201526103b4608083615177565b915060010161035c565b505f5b601c811015610412576103db85838661029d826020615177565b83610160015182601c81106103f2576103f261518a565b6020020181815250506020826104089190615177565b91506001016103c1565b50610424848285610380826080615177565b610180830152610435816080615177565b9050610448848285610380826080615177565b6101a08301525092915050565b61045d614db2565b5f61046d888888888888876119c3565b908352905061047c8189611a44565b6020840191909152905061048f81611bdf565b604084019190915290506104a38882611c40565b606084019190915290506104b78882611d14565b608084019190915290506104cb8882611d9f565b60a084019190915290506104df8882611f0d565b60c084019190915290506104f38882611f7f565b5060e0830152509695505050505050565b5f6001808261054d866105488961054361053e8a7f0000000000000000000000000000000000000000000000000000000000000000615177565b611fd6565b611ff4565b61200d565b90505f61056b876105668a61054361053e8b6001615177565b612026565b90505f5b7f00000000000000000000000000000000000000000000000000000000000000008110156105fd575f6105ba8b83815181106105ad576105ad61518a565b6020026020010151611fd6565b90506105ca86610543868461200d565b95506105da85610543858461200d565b94506105e6848b61200d565b93506105f2838b612026565b92505060010161056f565b506106088484612055565b9998505050505050505050565b5f806001815b7f00000000000000000000000000000000000000000000000000000000000000008110156106ec575f86610100015182601c811061065b5761065b61518a565b602002015190505f61066d8286612063565b90508061068d576040516313f8744360e31b815260040160405180910390fd5b5f876060015184601c81106106a4576106a461518a565b602002015190506106b58382612080565b95506106dc886040015185601c81106106d0576106d061518a565b6020020151868361222f565b945050505080600101905061061b565b505f610706866101200151865f015187602001518561225a565b90508281145b9695505050505050565b5f61075d6040518061012001604052805f81526020015f81526020015f81526020015f81526020015f81526020015f81526020015f81526020015f81526020015f81525090565b5f61076b8460a001516122c8565b9050610775614e36565b61077d614e55565b60e086015161079c9061079790855f5b6020020151612026565b61232d565b60a085015260e08601516107bb9061079790855f5b602002015161200d565b60c080860182905260a0860151908801516107da926105489190611ff4565b845260a0860151610808906107ee9061232d565b6105438660a001516105668a60c001518960c00151611ff4565b60208501526001825261018088015161082090612396565b81526001606085018190525f60808601525b602381116108d857610853610849865f01516123e0565b8660600151611ff4565b8382604681106108655761086561518a565b602002015260808501516101208a01516108a891906105489061088960018661519e565b602881106108995761089961518a565b60200201518860600151611ff4565b8560800181815250506108c385606001518860800151611ff4565b60608601526108d1816151b1565b9050610832565b505f6108e660236001615177565b90505b602881116109675761090161084986602001516123e0565b8382604681106109135761091361518a565b602002015260808501516101208a015161093791906105489061088960018661519e565b85608001818152505061095285606001518860800151611ff4565b6060860152610960816151b1565b90506108e9565b50606087015181600160200201526080870151816002602002015260a0870151816003602002015260c0870151816004602002015260e0870151816005602002015261010087015181600660200201526101208701518160076020020152610140870151816008602002015261016087015181600960200201526101a087015181600a602002015261018087015181600b60200201526101c087015181600c60200201526101e087015181600d602002015261020087015181600e602002015261022087015181600f60200201526102408701518160106020020152610260870151816011602002015261028087015181601260200201526102a087015181601360200201526102c087015181601460200201526102e08701518160156020020152610300870151816016602002015261032087015181601760200201526103408701518160186020020152610360870151816019602002015261038087015181601a60200201526103a087015181601b60200201528751610ae890612396565b6103808201526020880151610afc90612396565b6103a08201526040880151610b1090612396565b6103c08201526060880151610b2490612396565b6103e08201526080880151610b3890612396565b61040082015260e0880151610b4c90612396565b61042082015260a0880151610b6090612396565b61044082015260c0880151610b7490612396565b6104608201528751610b8590612396565b6104808201526020880151610b9990612396565b6104a08201526040880151610bad90612396565b6104c08201526060880151610bc190612396565b6104e08201526080880151610bd590612396565b610500820152606086015160808501516101608a01515f92610c1a929091877f00000000000000000000000000000000000000000000000000000000000000006123f8565b805160a0870151919250610c2d91611ff4565b604086018190526101608a01515160c0890151610c5d929161054891610c539190611ff4565b8860c00151611ff4565b604086015260c0870151610c7090612513565b60608601525f5b610c836001601c61519e565b811015610e85575f610cb660017f000000000000000000000000000000000000000000000000000000000000000061519e565b821015905080610e2b57610ce96107978a60e0015188856001610cd99190615177565b601c811061078d5761078d61518a565b60a088015260e0890151610d17906107979088610d07866001615177565b601c81106107b1576107b161518a565b60c0880152606087015160a0880151610d309190611ff4565b60e0880152606087015160c08a0151610d4c91610c5391611ff4565b6101008801819052610d6e90610d61906123e0565b6105488960e001516123e0565b8583610d7c60286001615177565b610d869190615177565b60468110610d9657610d9661518a565b60200201526101008701516101608c01515f91610dd291610db8866001615177565b601c8110610dc857610dc861518a565b6020020151611ff4565b9050610dee816105488a60e0015187876001610db89190615177565b9050610dfe88604001518261200d565b6040890152606088015160c08b0151610e2491610e1a91611ff4565b8b60c00151611ff4565b6060890152505b610e4f8b610140015183601b8110610e4557610e4561518a565b6020020151612396565b8483610e5d60286001615177565b610e679190615177565b60468110610e7757610e7761518a565b602002015250600101610c77565b5060408051808201909152600181526002602082015282610ea8601c6028615177565b60468110610eb857610eb861518a565b6020020152604085015183610ecf601c6028615177565b60468110610edf57610edf61518a565b60200201526101a08901515f90610ef590612396565b90508083610f05601c6028615177565b610f10906001615177565b60468110610f2057610f2061518a565b602002015260e088015184610f37601c6028615177565b610f42906001615177565b60468110610f5257610f5261518a565b60200201525f610f62848661251e565b90505f610f6e836125ef565b9050610f7a8282612666565b9c9b505050505050505050505050565b610f92614841565b50604080516103c08101825262010000815260106020808301919091526002828401819052835180850185527f2a53fafb57125f1606442792cc40e353f4ddeb477cf475372942a1bfa1bc493d81527f0577cc6a35d1520cfbec2d4a46c3b12ee2607774749ed9de4b1135ac86a65464818401526060840152835180850185527f2d9b1552fe5ffda8a82499a5daa0c3ba70b7220a5ae7caa04a2db014495836d681527f09b9fcfb4b2936641b67e73ec35f658eda8e78121fcfa2af167bcbc9016edbb4818401526080840152835180850185527f18c01141a7f049be5d772bd2afb8a3e15a32ef0a735e7ee6827616639bf84aa881527f096181fe7df19d89359a207c83f6c327b0ecb69e82b933af72afc1253376aa2f8184015260a0840152835180850185527f1ece61a86f5215bd5a43c5d5342f55b0bb65499fb2a10035ff7c29bc3c47d68b81527f015563cc39cc9f2d534249408d2d03aadf19d29a8146dc1606d04d4b12194c388184015260c0840152835180850185527f2e7a6d94bc19cf9c7513cb419fd98c61d26fb9569cabeae1c2dc54362391b7eb81527f296e3236892528c4aed10424d165a771c34e3d8b5477460fe92470d4d16be54d8184015260e0840152835180850185527f192f1d335e2ee7e0b33764269620646d63857ac8062bb44fd7ad0860d439527581527f12a61d0dc3991131c0ce2bdffbf3e98fdca2b3a6f0c50fb78909c2198a68427081840152610100840152835180850185527f3058b7f62cbcbdc8763b05935e9965bea86cd205281d331fb426ef4232ffe5c581527f2b312f13fea65176bc0fe06aef8724f256898d215c78835f40bfe56fbf3f0de381840152610120840152835180850185527f2bdb996bb37efeb4bf4fb8aa8c2e8d0b99f2a3666b3387adc9bd982a04e883a181527f188042b274b3f2941190dec2a729a7ff82012772211af34c6bae9252f2255b9281840152610140840152835180850185527f21a1f36b7ecb380308f033708e543f95c7ede1a087aaf2463d47b9cea68d867181527f038178a29421d79715070e2004d35a2eb385bd1dea45d50bf819fcbc5c75e64c81840152610160840152835180850185527f145b355ad0c3af4447b484cb5ade7e4771e7509cef8354c6a590e9dbfe7a45c981527f0899012d196f711718552d210a494e4988b2505ff2e94d9bc959a7fa938348f281840152610180840152835180850185527f1bc10c7f4b5246e379bf5d4cadf071c86c3867403ed3caeb40ffa18b1a86d43081527f1a230ae2d4cd8cc24c29acab4f61626b45e1c09fc662f6012343845532eecb44818401526101a0840152835180850185527f15118ee016947db45161a991e84419836d9a732787bd72eedade94ab028adba181527f063396cbe6b51028e7a037d335e0ceb13ec3bc61945e1f7802e9d90ec5f04166818401526101c0840152835180850185527f14c2e80e41157cdf87d51d432a454b77e7c32ce97fa6528f6e11d8e5c3b1d92f81527f1eaaf713da03418d86480535f256fcd23b5dfc152dbf041f16d70c89b507b6e3818401526101e0840152835180850185527f2fa393f77f6f81aebe24a41f5e12614dcb8efee4aeb645d641c00e093207b95e81527f09552954d7fc29e8112eed68034df304623268648a5074f5a9051e5aa6ececac81840152610200840152835180850185527f0352fbf6ed9739f0cb33eefd7c0e8a308335a2b83efd9c8ec22beff18978464381527f1a4a7154fbc4c5f2cd61fc2bf051c25ab3a8561e0855911b04b6eaf6a82e7ed881840152610220840152835180850185527f13c27cd44cdf509fcf11363ede4fae3f5c1f9b6b2fe3d8d138d3ae562377c47e81527f20c305e60a2d7cd9f75e1ddd17fa6908c3e8c9054fa9c5bc0435909aef4751ee81840152610240840152835180850185527f0962530b038db386e48092e14b060cb6aedc16444eefc884c0e34fefe642eba081527f21e6d6d316663301e940bc88cb98b82603031c9db4745936780723ff043d86b881840152610260840152835180850185527f26d0aaad7416a6843c063c519a9f65f9ac8fba4462c05c5d4af396fdbc26ac6581527f1b25386c0b67a14c4ff6f3d7d36472487df446b427d3eeb31245f443762be79281840152610280840152835180850185527f2b917e3d349ae06bcc92bdbb34d48c1831b4fdf59ba4f405f615de7e95ed933181527f0651d6fba6514b528d84eb97798957f22d5871ec7c6499196d5390fa8017e70d818401526102a0840152835180850185527f1f2df6275fcd085f6574dadcfe1dddadeb801a32a0d0582d202730c1011f990381527f07b7a65ddde5b302419380318e047063e9bd2fd7a0b12dfc10cb4b075c4f4aec818401526102c0840152835180850185527f1c3aff72a520f293b65474397e6dc280b48486968da9d41d69f89b2c40c59ad581527f076b30340e6c7281ac5242f4c4d586b73989fbf32c0208661a9361b3bb8d5139818401526102e0840152835180850185527f20d671263cad88c119d0a5d172679309087e385f8e76d4cfa834fab61ebd660381527f0f9e6dfd3e6f4584b28e2cb00483dc2ffd9bf5f7ae2cc3f1ea0869c5ae71d9a181840152610300840152835180850185527f101e267b586089a8bb447e83ab3b7029ed788cc214e0be44485e2f39afbb7ae681527f13410d68bce429dc36e23023cfe21c5f2ced7e136529a4bcd4317232f2fc16b681840152610320840152835180850185527f1054a26ae3aeeeedc653cf5c5e3c09e2258141e67f4a5a48b50cbf48958b40bd81527f2d14190edcf9b2aa697b677c779083aaf0151cc4f673dcf4bdba392d6280e37681840152610340840152835180850185527f2e9e762a66fed77eb0e72645e5ba54f32c1d1bfbc4bd862361dafd7ebd6c68dd81527f0b4a012fbc876f57da669215383f3595383f787bca153e972e6cfb9dfebeaa1b8184015261036084015283518085018552600181528083019190915261038083015282518084019093527f0bd364918acd0a5b4ba1d5a8666b9c25a68668cc984d046f76e73b37c6ad449183527f023baebfef390a9744bf6a6512c03e077bf02eeb76c37730f7767601ddc01b7a908301526103a081019190915290565b61189a60405180608001604052805f81526020015f81526020015f81526020015f81525090565b608082146118e55760405162461bcd60e51b81526020600482015260136024820152721a5b9d985b1a5908189e5d195cc81c1bda5b9d606a1b60448201526064015b60405180910390fd5b6040805160808101909152806118fe60205f8688615150565b611907916151c9565b815260209081019061191d906040908688615150565b611926916151c9565b8152602001611939606060408688615150565b611942916151c9565b8152602001611955608060608688615150565b61195e916151c9565b90529392505050565b5f602082146119af5760405162461bcd60e51b815260206004820152601460248201527334b73b30b634b210313cba32b99039b1b0b630b960611b60448201526064016118dc565b6119bc61053e83856151c9565b9392505050565b6119f66040518060c001604052805f81526020015f81526020015f81526020015f81526020015f81526020015f81525090565b5f611a0589898989898961286a565b604086019190915260208501919091529083529250611a24838a612c8d565b608085019190915260608401919091529199919850909650505050505050565b611a4c614e8e565b5f611a55614ead565b84815260e0848101805151602080850191909152815181015160408086019190915282518101516060808701919091529251830151608080870191909152880180515160a0870152805183015160c08701528051820151948601949094529251909101516101008401529051611aec91611ad1918491016151e6565b60405160208183030381529060405280519060200120611fd6565b9150611af782612d58565b6020850152835260015b611b0d6002601961522e565b811015611b8d57611b2a83604051602001611ad191815260200190565b9250611b3583612d58565b85611b41846002615139565b60198110611b5157611b5161518a565b6020020186611b61856002615139565b611b6c906001615177565b60198110611b7c57611b7c61518a565b602002019190915252600101611b01565b50611ba482604051602001611ad191815260200190565b91505f611bb083612d58565b85611bbd6001601961519e565b60198110611bcd57611bcd61518a565b60200201919091525050509250929050565b611be7614ecc565b5f805b601c811015611c3957611c0984604051602001611ad191815260200190565b93505f611c1585612d58565b8584601c8110611c2757611c2761518a565b60200201919091525050600101611bea565b5090929050565b611c48614ecc565b5f805b601c811015611d0b57611c5c614ead565b8481525f5b6008811015611cc55786610100015183601c8110611c8157611c8161518a565b60200201518160088110611c9757611c9761518a565b602002015182611ca8836001615177565b60098110611cb857611cb861518a565b6020020152600101611c61565b50611cda81604051602001611ad191906151e6565b94505f611ce686612d58565b8685601c8110611cf857611cf861518a565b6020020191909152505050600101611c4b565b50909391925050565b5f5f611d1e614eeb565b8381525f5b6028811015611d71578561012001518160288110611d4357611d4361518a565b602002015182611d54836001615177565b60298110611d6457611d6461518a565b6020020152600101611d23565b50611d8681604051602001611ad19190615241565b91505f611d9283612d58565b5096929550919350505050565b5f5f611da9614f0a565b8381525f5b611dba6001601c61519e565b811015611ef85785610140015181601b8110611dd857611dd861518a565b60200201515182611dea836004615139565b611df5906001615177565b606d8110611e0557611e0561518a565b602002015261014086015181601b8110611e2157611e2161518a565b60200201516020015182826004611e389190615139565b611e43906002615177565b606d8110611e5357611e5361518a565b602002015261014086015181601b8110611e6f57611e6f61518a565b60200201516040015182611e84836004615139565b611e8f906003615177565b606d8110611e9f57611e9f61518a565b602002015261014086015181601b8110611ebb57611ebb61518a565b60200201516060015182611ed0836004615139565b611edb906004615177565b606d8110611eeb57611eeb61518a565b6020020152600101611dae565b50611d8681604051602001611ad19190615275565b5f5f611f17614f29565b8381525f5b601c811015611f6a5785610160015181601c8110611f3c57611f3c61518a565b602002015182611f4d836001615177565b601d8110611f5d57611f5d61518a565b6020020152600101611f1c565b50611d8681604051602001611ad191906152a9565b5f5f611f89614f48565b83815261018085018051516020808401919091528151810151604080850191909152825181015160608086019190915292519092015160808401529051611d8691611ad1918491016152dd565b5f611fee5f5160206153ff5f395f51905f5283615310565b92915050565b5f5f5160206153ff5f395f51905f528284099392505050565b5f5f5160206153ff5f395f51905f528284089392505050565b5f5f5160206153ff5f395f51905f5261204c835f5160206153ff5f395f51905f5261519e565b84089392505050565b5f6119bc836105438461232d565b81515f908190612075908560016107b1565b929092149392505050565b60408051610100810182527f30644e72e131a029b85045b68181585d2833e84879b9709143e1f593efffec5181526102d060208201527f30644e72e131a029b85045b68181585d2833e84879b9709143e1f593efffff1191810191909152609060608201527f30644e72e131a029b85045b68181585d2833e84879b9709143e1f593efffff71608082015260f060a08201527f30644e72e131a029b85045b68181585d2833e84879b9709143e1f593effffd3160c08201526113b060e08201525f906001825b60088110156121675761215d826105438784612026565b9150600101612146565b50612170614f66565b5f5b60088110156121d1575f84826008811061218e5761218e61518a565b602002015190506121a3816105438985612026565b90506121ae8161232d565b9050808383600881106121c3576121c361518a565b602002015250600101612172565b505f5b6008811015612224575f8782600881106121f0576121f061518a565b6020020151905061220d81848460088110610dc857610dc861518a565b9050612219868261200d565b9550506001016121d4565b5061070c8483611ff4565b5f5f612245600161054885610543896001612026565b90506122518482611ff4565b95945050505050565b5f612263614f85565b61226e868285612d91565b61227a86868386612f3d565b61228686868386613125565b612291868285613321565b61229c868285613509565b6122a886868386613852565b6122b38682856140ec565b6122be8682856144b7565b61070c81856147ac565b6122d0614ecc565b81815260015b601c81101561232757612308826122ee60018461519e565b601c81106122fe576122fe61518a565b6020020151612513565b8282601c811061231a5761231a61518a565b60200201526001016122d6565b50919050565b5f5f8290505f604051602081526020808201526020604082015282606082015260025f5160206153ff5f395f51905f520360808201525f5160206153ff5f395f51905f5260a082015260205f60c08360055afa90508061238b575f5ffd5b50505f519392505050565b604080518082019091525f8082526020820152604051806040016040528060888460200151901b845f015117815260200160888460600151901b8460400151178152509050919050565b5f611fee825f5160206153ff5f395f51905f5261519e565b612400614ecc565b601c5b8015612509575f8461241660018461519e565b601c81106124265761242661518a565b602002015190505f8861243a60018561519e565b601c811061244a5761244a61518a565b602002015190505f6124a5612469612462858c611ff4565b6002611ff4565b6105668a61247860018961519e565b601c81106124885761248861518a565b602002015161054361249f8861054360018a612026565b87612026565b90506124c6816105436107976124c087610543600189612026565b8661200d565b90508584116124f55797508780856124df60018761519e565b601c81106124ef576124ef61518a565b60200201525b5050508061250290615323565b9050612403565b5095945050505050565b5f611fee8283611ff4565b604080518082019091525f80825260208201525f61253e601c6028615177565b612549906002615177565b90506001604051855151604082015285516020015160608201528451608082015260408160606040840160075afa8216915060015b838110156125d75760208102870160208202870181515160408501528151602001516060850152805160808501525050604080830160606040850160075afa8316925060408260808460065afa9092169160010161257e565b50805184526020810151602085015250505092915050565b604080518082019091525f80825260208201527f30644e72e131a029b85045b68181585d97816a916871ca8d3c208c16d87cfd4782602001517f30644e72e131a029b85045b68181585d97816a916871ca8d3c208c16d87cfd47612653919061519e565b61265d9190615310565b60208301525090565b81516020808401518351848301516040805194850195909552938301919091527f198e9393920d483a7260bfb731fb5d25f1aa493335a9e71297e485b7aef312c260608301527f1800deef121f1e76426a00665e5c4479674322d4f75edadd46debd5cd992f6ed60808301527f090689d0585ff075ec9e99ad690c3395bc4b313370b38ef355acdadcd122975b60a08301527f12c85ea5db8c6deb4aab71808dcb408fe3d1e7690c43d37b4ce6cc0166fa7daa60c083015260e08201526101008101919091527f260e01b251f6f1c7e7ff4e580791dee8ea51d87a358e038b4efe30fac09383c16101208201527f0118c4d5b837bcc2bc89b5b398b5974e9f5944073b32078b7e231fec938883b06101408201527f04fc6369f7110fe3d25156c1bb9a72859cf2a04641f99ba4ee413c80da6a5fe46101608201527f22febda3c0c0632a56475b4214e5615e11e6dd3f96e6cea2854a87d4dacc5e556101808201525f9081906101a00160405160208183030381529060405290505f5f60086001600160a01b0316836040516127fc9190615338565b5f60405180830381855afa9150503d805f8114612834576040519150601f19603f3d011682016040523d82523d5f602084013e612839565b606091505b50915091505f81806020019051810190612853919061534e565b905082801561285f5750805b979650505050505050565b5f8080808061287a876003615177565b61288590600c615177565b67ffffffffffffffff81111561289d5761289d61536d565b6040519080825280602002602001820160405280156128c6578160200160208202803683370190505b509050875f1b815f815181106128de576128de61518a565b602002602001018181525050865f1b816001815181106129005761290061518a565b602002602001018181525050855f1b816002815181106129225761292261518a565b60209081029190910101525f5b87811015612981578a8a828181106129495761294961518a565b905060200201358282600361295e9190615177565b8151811061296e5761296e61518a565b602090810291909101015260010161292f565b508a515181612991896003615177565b815181106129a1576129a161518a565b6020908102919091018101919091528b510151816129c0896003615177565b6129cb906001615177565b815181106129db576129db61518a565b60209081029190910101528a5160400151816129f8896003615177565b612a03906002615177565b81518110612a1357612a1361518a565b60209081029190910101528a516060015181612a30896003615177565b612a3b906003615177565b81518110612a4b57612a4b61518a565b6020908102919091018101919091528b01515181612a6a896003615177565b612a75906004615177565b81518110612a8557612a8561518a565b6020908102919091018101919091528b810151015181612aa6896003615177565b612ab1906005615177565b81518110612ac157612ac161518a565b6020908102919091018101919091528b01516040015181612ae3896003615177565b612aee906006615177565b81518110612afe57612afe61518a565b6020908102919091018101919091528b01516060015181612b20896003615177565b612b2b906007615177565b81518110612b3b57612b3b61518a565b602090810291909101015260408b01515181612b58896003615177565b612b63906008615177565b81518110612b7357612b7361518a565b60209081029190910181019190915260408c0151015181612b95896003615177565b612ba0906009615177565b81518110612bb057612bb061518a565b60209081029190910101526040808c0151015181612bcf896003615177565b612bda90600a615177565b81518110612bea57612bea61518a565b602090810291909101015260408b01516060015181612c0a896003615177565b612c1590600b615177565b81518110612c2557612c2561518a565b602002602001018181525050612c4581604051602001611ad19190615381565b9150612c5082612d58565b6040805160208101869052929750909550612c6b9101611ad1565b91505f612c7783612d58565b50959c949b509499509097509195505050505050565b5f5f5f612c98614fa4565b85815260a0858101805151602080850191909152815181015160408086019190915282518101516060808701919091529251830151608086015260c0808a0180515195870195909552845183015190860152835181015160e086015292518201516101008501528188018051516101208601528051820151610140860152805184015161016086015251909101516101808401529051612d3e91611ad1918491016153b6565b9150612d4982612d58565b90979096509194509092505050565b5f80826fffffffffffffffffffffffffffffffff8116608082901c612d7c82611fd6565b9450612d8781611fd6565b9350505050915091565b5f612d9d846007614811565b90507f183227397098d014dc2822db40c0ac2e9419f4243cdcb848a1f0fac9f80000005f612dfe612df8612dd2856003612026565b610543612ded612de28b5f614811565b6105438c601c614811565b6105438b601b614811565b83611ff4565b9050612e7f612e74612e5b612e42612e2985610548612e1e8d6002614811565b6105438e601b614811565b610548612e378c6003614811565b6105438d601c614811565b610548612e508b6004614811565b6105438c601d614811565b610548612e698a6005614811565b6105438b601e614811565b610548886001614811565b9050612e9e81610548612e93866001612026565b6105438a6026614811565b9050612eaa8184611ff4565b9050612eb68185611ff4565b8552505f9050612ef0612ee6612edb612ed088601b614811565b61054889601e614811565b610566886023614811565b610548875f614811565b9050612f0181610543846002612026565b9050612f1281610543846001612026565b9050612f1e8183611ff4565b9050612f2a8184611ff4565b9050808460015b60200201525050505050565b5f5f5f612f73612f69612f5189601b614811565b610548612f5f8b6011614811565b8a60600151611ff4565b876080015161200d565b9050612fac81610543612fa2612f8a8b601c614811565b610548612f988d6012614811565b8c60600151611ff4565b896080015161200d565b9050612fd181610543612fa2612fc38b601d614811565b610548612f988d6013614811565b9050612ff681610543612fa2612fe88b601e614811565b610548612f988d6014614811565b92505f905061301a612f6961300c89601b614811565b610548612f5f8b600d614811565b905061303f81610543612fa26130318b601c614811565b610548612f988d600e614811565b905061306481610543612fa26130568b601d614811565b610548612f988d600f614811565b905061308981610543612fa261307b8b601e614811565b610548612f988d6010614811565b91505f90506130b06130aa61309f89601f614811565b6105488a6019614811565b84611ff4565b90506130e5816105666130df6130c78b6027614811565b6105486130d58d601a614811565b8c60a00151611ff4565b85611ff4565b90506130f18185611ff4565b6040860152505f6131146130df61310989601a614811565b6105438a6027614811565b606090950194909452505050505050565b5f5f61318361316b61315361313e612fa28a6015614811565b61054861314c8b6016614811565b8a51611ff4565b6105486131618a6017614811565b8960200151611ff4565b610548613179896018614811565b8860400151611ff4565b91505f6131ba6131a161319789601b614811565b886080015161200d565b6105486131af8a6003614811565b6105438b6023614811565b90505f6131e36131cb89601c614811565b6105486131d88b5f614811565b6105438c6024614811565b90505f61320d6131f48a601d614811565b6105486132028c6001614811565b6105438d6025614811565b905061324c61323461322685610548868d5f0151611ff4565b610548848c60200151611ff4565b6105486132428c6004614811565b8b60400151611ff4565b93505050505f6132606130aa886020614811565b90505f6132716130aa896020614811565b90505f6132a96132906132858b6022614811565b6105488c6006614811565b61056661329e8c6022614811565b6105438d6006614811565b90505f6132cd6132c76132bc8789611ff4565b6105438d6020614811565b83612026565b90506132d98188611ff4565b90505f6133016132f36132ed8d6006614811565b87611ff4565b6105666132ed8e6021614811565b60808a018390529050808960055b60200201525050505050505050505050565b5f61332d5f6001612026565b90505f61333b5f6002612026565b90505f6133495f6003612026565b90505f61336561335a88601c614811565b61056689601b614811565b90505f61338161337689601d614811565b6105668a601c614811565b90505f61339d6133928a601e614811565b6105668b601d614811565b90505f6133b96133ae8b6023614811565b6105668c601e614811565b9050836133ca81610543818b61200d565b90506133da81610543878a61200d565b90506133ea81610543878961200d565b90506133fb816105438d6008614811565b9050613407818a611ff4565b60c08b0152508261341c81610543818b61200d565b905061342c81610543868a61200d565b905061343c81610543868961200d565b905061344d816105438d6008614811565b9050613459818a611ff4565b60e08b0152508161346e81610543818b61200d565b905061347e81610543858a61200d565b905061348e81610543858961200d565b905061349f816105438d6008614811565b90506134ab818a611ff4565b6101008b015250806134c181610543818b61200d565b90506134d181610543848a61200d565b90506134e181610543848961200d565b90506134f2816105438d6008614811565b90506134fe818a611ff4565b9050808a600961330f565b6135426040518060e001604052805f81526020015f81526020015f81526020015f81526020015f81526020015f81526020015f81525090565b61354d84601c614811565b815261355a84601d614811565b602082015261356a846023614811565b604082015261357a846026614811565b606082015261358a846025614811565b608082015261359a846024614811565b60a08201525f6135ab856002614811565b90505f6135b8865f614811565b90505f6135cc8460400151855f0151612026565b90505f6135e185602001518660200151611ff4565b606086015190915086905f906135f79080611ff4565b90505f61361561360f89602001518a60600151611ff4565b88611ff4565b90505f61363461362d8a60a001518b6040015161200d565b8a5161200d565b90506136436132ed8288611ff4565b905061366a61366461365e6136588487612026565b88612026565b8461200d565b8361200d565b905061369261368761367c8387611ff4565b6105438f6009614811565b61054360018a612026565b6101408c015250505050602085015160808601515f916136b19161200d565b90505f6136cf6136c5886060015188611ff4565b8860200151612026565b90505f6136f36136df8487611ff4565b6105486130df8b60a001518c5f0151612026565b905061371b613710613705838c611ff4565b6105438e6009614811565b610543600189612026565b6101608b0152505f915061373c905061373583601161200d565b8751611ff4565b90505f613749838461200d565b9050613755818261200d565b90505f613763836009611ff4565b905061378c6137866130aa61377f8b60a001518c5f015161200d565b8b5161200d565b82612026565b60c089018190525f906137a79061360f9061367c908d611ff4565b90506137ba8b600a60200201518261200d565b6101408c0152505086515f92506137e19150613735906137da908061200d565b885161200d565b90505f6138216137fc836105438a5f01518b60a00151612026565b60208901516105669061380f908061200d565b6105438b602001518c6080015161200d565b905061383e89600b602002015161054861360f61367c858d611ff4565b89600b602002015250505050505050505050565b6138e6604051806102c001604052805f81526020015f81526020015f81526020015f81526020015f81526020015f81526020015f81526020015f81526020015f81526020015f81526020015f81526020015f81526020015f81526020015f81526020015f81526020015f81526020015f81526020015f81526020015f81526020015f81526020015f81526020015f81525090565b61391b6139026138f787601b614811565b610543886024614811565b610548613910886023614811565b61054389601c614811565b815261396061395561393c61393188601b614811565b61054389601e614811565b61054861394a89601c614811565b6105438a601d614811565b610566876025614811565b6040820181905261397590600160441b611ff4565b6040820181905261398b90610566876026614811565b60408201819052815161399e919061200d565b604082018190526139b490610543876005614811565b604082015280516139c990600160441b611ff4565b8082526139e9906105486139de886023614811565b610543896024614811565b80825260208201819052613a0590610566612ed088601d614811565b60208201819052613a1b90610543876004614811565b6020820152805160608201819052613a389061054887601e614811565b60608201819052613a5c90610566613a51886025614811565b610548896026614811565b60608201819052613a7190610543875f614811565b8160600181815250505f613a9a613a908360200151846040015161200d565b836060015161200d565b9050613aab81610543886003614811565b9050613ac3613abb876024614811565b614000611ff4565b60808301819052613ad990610548886023614811565b60808301819052613aec90614000611ff4565b60808301819052613b029061054888601d614811565b60808301819052613b1590614000611ff4565b60808301819052613b2b9061054888601c614811565b60808301819052613b3e90614000611ff4565b60808301819052613b549061054888601b614811565b60808301819052613b6a9061056688601e614811565b60808301819052613b8090610543886005614811565b6080830152613b93613abb876025614811565b60a08301819052613ba990610548886024614811565b60a08301819052613bbc90614000611ff4565b60a08301819052613bd290610548886023614811565b60a08301819052613be590614000611ff4565b60a08301819052613bfb9061054888601e614811565b60a08301819052613c0e90614000611ff4565b60a08301819052613c249061054888601d614811565b60a08301819052613c3a90610566886026614811565b60a08301819052613c4f90610543885f614811565b60a0830181905260808301515f91613c67919061200d565b9050613c7881610543896004614811565b9050613c92613c8888601d614811565b8760400151611ff4565b60c08401819052613cab906105486131618a601c614811565b60c08401819052613ccb90610548613cc48a601b614811565b8951611ff4565b60c08401819052613ce190610548896001614811565b60c0840181905260e08401819052613cfe9061056689601e614811565b60c0840152613d1161335a886023614811565b610140840152613d30613d25886026614811565b61056689601e614811565b610120840152610140830151613d5590613d4a9080611ff4565b846101400151612026565b610280840152610140830151613d9790613d8c90613d859061054360015f5160206153ff5f395f51905f5261519e565b600161200d565b846101200151611ff4565b6101608401819052613dce90613dc090610543613db58b6002614811565b6105438c6003614811565b6105436132ed8a600a614811565b6101a0860152610280830151613df090613dc090610543613db58b6002614811565b6101c086015260c0830151613e1890610543613e0d8a6002614811565b6105438b6003614811565b6101e08401525f613e37613e2d89601e614811565b8560e00151612026565b9050613e466137868283611ff4565b6101a0850152613e5a613179896025614811565b6101008501819052613e7e90610548613e748b6024614811565b8a60200151611ff4565b6101008501819052613e989061054861314c8b6023614811565b610100850152613eb7613eac896026614811565b856101000151612026565b6101008501525f613ecc6133928a6025614811565b9050613f20613efa612df8613d8588610140015160015f5160206153ff5f395f51905f52610543919061519e565b610543613d8588610100015160015f5160206153ff5f395f51905f52610543919061519e565b610180860152610100850151613f4590613f3a9080611ff4565b866101000151612026565b6101c0860152610180850151613f7890613f64906105438c6007614811565b610543613f728c600a614811565b89611ff4565b6101e0880152610280850151613f9790613f64906105438c6007614811565b6102008801526101c0850151613fb690613f64906105438c6007614811565b6102208801526101a0850151613fd1906105438b6007614811565b610200860152613ff0613fe58a6024614811565b6105668b601c614811565b61022086015261014085015161402f906133929061402490613d859061054360015f5160206153ff5f395f51905f5261519e565b876102200151611ff4565b61024086018190526101e08601516102608701819052614066916105489061054361405b8e6005614811565b6105438f6002614811565b610260860181905260c086015161408991906105489061054361405b8e5f614811565b61026086018190526102008601516140a1919061200d565b61026086018190526140b79061365e908661200d565b6102a086018190526140d190610543613f728c600a614811565b6102a0860181905287600c6020020152505050505050505050565b6141626040518061022001604052805f81526020015f81526020015f81526020015f81526020015f81526020015f81526020015f81526020015f81526020015f81526020015f81526020015f81526020015f81526020015f81526020015f81526020015f81526020015f81526020015f81525090565b61417b61417085601b614811565b610548866002614811565b815261419661418b85601c614811565b610548866003614811565b60208201526141b46141a985601d614811565b610548866004614811565b60408201526141d26141c785601e614811565b610548866005614811565b60608201528051614204906141fd906141f6906141ef9080611ff4565b8451611ff4565b8351611ff4565b8251611ff4565b60808201526020810151614242906142389061422e906142249080611ff4565b8460200151611ff4565b8360200151611ff4565b8260200151611ff4565b60a08201526040810151614280906142769061426c906142629080611ff4565b8460400151611ff4565b8360400151611ff4565b8260400151611ff4565b60c082015260608101516142be906142b4906142aa906142a09080611ff4565b8460600151611ff4565b8360600151611ff4565b8260600151611ff4565b60e0820152608081015160a08201516142d7919061200d565b61010082015260c081015160e08201516142f1919061200d565b61012082015260a08101516143159061430a908061200d565b82610120015161200d565b61014082015260e08101516143399061432e908061200d565b82610100015161200d565b61016082015261012081015161434f908061200d565b6101e0820181905261437090614365908061200d565b82610160015161200d565b6101e0820152610100810151614386908061200d565b6101a082018190526143a79061439c908061200d565b82610140015161200d565b6101a082018190526101608201516143be9161200d565b6101808201526101408101516101e08201516143da919061200d565b6101c08201526143ee612df885600b614811565b61020082018190526102408401516101808301516144199261054891610543906105668a6023614811565b83601260200201526144498360136020020151610548836102000151610543856101a001516105668a6024614811565b83601360200201526144798360146020020151610548836102000151610543856101c001516105668a6025614811565b83601460200201526144a98360156020020151610548836102000151610543856101e001516105668a6026614811565b836015602002015250505050565b6145096040518061016001604052805f81526020015f81526020015f81526020015f81526020015f81526020015f81526020015f81526020015f81526020015f81526020015f81526020015f81525090565b5f604051806080016040528061453e7f10dc6e9c006ea38b04b1e03b4bd9490c0d03f98929ca1d7fb56821fd19d3b6e7611fd6565b815260200161456c7f0c28145b6a44df3e0149b3d0a30b3bb599df9756d4dd9b84a86b38cfb45a740b611fd6565b81526020016145997e544b8338791518b2c7645a50392798b21f75bb60e3596170067d00141cac15611fd6565b81526020016145c77f222c01175718386f2e2e82eb122789e352e105a3b8fa852613bc534433ee428b611fd6565b905290506145e46145d986601b614811565b610548876002614811565b61012083018190526146189061460d90613d8c906146029080611ff4565b856101200151611ff4565b836101200151611ff4565b825261462585601c614811565b602083015261463585601d614811565b604083015261464585601e614811565b60608301528151602083015161466d91613a9091614663919061200d565b846040015161200d565b60808301526146806130aa86600c614811565b61014083015281516146a19061469790835f610dc8565b836080015161200d565b60a08301526146cd84601660200201516105488461014001516105438660a001516105668b6023614811565b6102c085015260208201516146e89061469790836001610dc8565b60c083015261471484601760200201516105488461014001516105438660c001516105668b6024614811565b6102e0850152604082015161472f9061469790836002610dc8565b60e083015261475b84601860200201516105488461014001516105438660e001516105668b6025614811565b61030085015260608201516147769061469790836003610dc8565b6101008301526147a484601960200201516105488461014001516105438661010001516105668b6026614811565b846019612f31565b5f6147b88184816107b1565b905060015b601a81101561480a57614800826105488684601a81106147df576147df61518a565b6020020151866147f060018761519e565b60198110610dc857610dc861518a565b91506001016147bd565b5092915050565b5f82826027811115614825576148256153ea565b602881106148355761483561518a565b60200201519392505050565b604051806103c001604052805f81526020015f81526020015f815260200161487a60405180604001604052805f81526020015f81525090565b815260200161489a60405180604001604052805f81526020015f81525090565b81526020016148ba60405180604001604052805f81526020015f81525090565b81526020016148da60405180604001604052805f81526020015f81525090565b81526020016148fa60405180604001604052805f81526020015f81525090565b815260200161491a60405180604001604052805f81526020015f81525090565b815260200161493a60405180604001604052805f81526020015f81525090565b815260200161495a60405180604001604052805f81526020015f81525090565b815260200161497a60405180604001604052805f81526020015f81525090565b815260200161499a60405180604001604052805f81526020015f81525090565b81526020016149ba60405180604001604052805f81526020015f81525090565b81526020016149da60405180604001604052805f81526020015f81525090565b81526020016149fa60405180604001604052805f81526020015f81525090565b8152602001614a1a60405180604001604052805f81526020015f81525090565b8152602001614a3a60405180604001604052805f81526020015f81525090565b8152602001614a5a60405180604001604052805f81526020015f81525090565b8152602001614a7a60405180604001604052805f81526020015f81525090565b8152602001614a9a60405180604001604052805f81526020015f81525090565b8152602001614aba60405180604001604052805f81526020015f81525090565b8152602001614ada60405180604001604052805f81526020015f81525090565b8152602001614afa60405180604001604052805f81526020015f81525090565b8152602001614b1a60405180604001604052805f81526020015f81525090565b8152602001614b3a60405180604001604052805f81526020015f81525090565b8152602001614b5a60405180604001604052805f81526020015f81525090565b8152602001614b7a60405180604001604052805f81526020015f81525090565b8152602001614b9a60405180604001604052805f81526020015f81525090565b8152602001614bba60405180604001604052805f81526020015f81525090565b905290565b604051806101c00160405280614bf260405180608001604052805f81526020015f81526020015f81526020015f81525090565b8152602001614c1e60405180608001604052805f81526020015f81526020015f81526020015f81525090565b8152602001614c4a60405180608001604052805f81526020015f81526020015f81526020015f81525090565b8152602001614c7660405180608001604052805f81526020015f81526020015f81526020015f81525090565b8152602001614ca260405180608001604052805f81526020015f81526020015f81526020015f81525090565b8152602001614cce60405180608001604052805f81526020015f81526020015f81526020015f81525090565b8152602001614cfa60405180608001604052805f81526020015f81526020015f81526020015f81525090565b8152602001614d2660405180608001604052805f81526020015f81526020015f81526020015f81525090565b8152602001614d33614fc3565b8152602001614d40614ff1565b8152602001614d4d615010565b8152602001614d5a614ecc565b8152602001614d8660405180608001604052805f81526020015f81526020015f81526020015f81525090565b8152602001614bba60405180608001604052805f81526020015f81526020015f81526020015f81525090565b604051806101000160405280614df16040518060c001604052805f81526020015f81526020015f81526020015f81526020015f81526020015f81525090565b8152602001614dfe614e8e565b8152602001614e0b614ecc565b8152602001614e18614ecc565b81526020015f81526020015f81526020015f81526020015f81525090565b604051806108c001604052806046906020820280368337509192915050565b604051806108c001604052806046905b604080518082019091525f8082526020820152815260200190600190039081614e655790505090565b6040518061032001604052806019906020820280368337509192915050565b6040518061012001604052806009906020820280368337509192915050565b604051806103800160405280601c906020820280368337509192915050565b6040518061052001604052806029906020820280368337509192915050565b60405180610da00160405280606d906020820280368337509192915050565b604051806103a00160405280601d906020820280368337509192915050565b6040518060a001604052806005906020820280368337509192915050565b6040518061010001604052806008906020820280368337509192915050565b604051806103400160405280601a906020820280368337509192915050565b604051806101a00160405280600d906020820280368337509192915050565b604051806103800160405280601c905b614fdb614f66565b815260200190600190039081614fd35790505090565b6040518061050001604052806028906020820280368337509192915050565b604051806103600160405280601b905b61504760405180608001604052805f81526020015f81526020015f81526020015f81525090565b8152602001906001900390816150205790505090565b5f5f5f5f60408587031215615070575f5ffd5b843567ffffffffffffffff811115615086575f5ffd5b8501601f81018713615096575f5ffd5b803567ffffffffffffffff8111156150ac575f5ffd5b8760208284010111156150bd575f5ffd5b60209182019550935085013567ffffffffffffffff8111156150dd575f5ffd5b8501601f810187136150ed575f5ffd5b803567ffffffffffffffff811115615103575f5ffd5b8760208260051b8401011115615117575f5ffd5b949793965060200194505050565b634e487b7160e01b5f52601160045260245ffd5b8082028115828204841417611fee57611fee615125565b5f5f8585111561515e575f5ffd5b8386111561516a575f5ffd5b5050820193919092039150565b80820180821115611fee57611fee615125565b634e487b7160e01b5f52603260045260245ffd5b81810381811115611fee57611fee615125565b5f600182016151c2576151c2615125565b5060010190565b80356020831015611fee575f19602084900360031b1b1692915050565b5f8183825b600981101561520a5781518352602092830192909101906001016151eb565b5050506101208201905092915050565b634e487b7160e01b5f52601260045260245ffd5b5f8261523c5761523c61521a565b500490565b5f8183825b6029811015615265578151835260209283019290910190600101615246565b5050506105208201905092915050565b5f8183825b606d81101561529957815183526020928301929091019060010161527a565b505050610da08201905092915050565b5f8183825b601d8110156152cd5781518352602092830192909101906001016152ae565b5050506103a08201905092915050565b5f8183825b60058110156153015781518352602092830192909101906001016152e2565b50505060a08201905092915050565b5f8261531e5761531e61521a565b500690565b5f8161533157615331615125565b505f190190565b5f82518060208501845e5f920191825250919050565b5f6020828403121561535e575f5ffd5b815180151581146119bc575f5ffd5b634e487b7160e01b5f52604160045260245ffd5b81515f90829060208501835b828110156153ab57815184526020938401939091019060010161538d565b509195945050505050565b5f8183825b600d8110156153da5781518352602092830192909101906001016153bb565b5050506101a08201905092915050565b634e487b7160e01b5f52602160045260245ffdfe30644e72e131a029b85045b68181585d2833e84879b9709143e1f593f0000001a2646970667358221220d152a45f9c4ea6d7e181af382dc040cbe3037eaff65994077a3c4248958f181264736f6c634300081f0033",
			"opcodes": "PUSH1 0xE0 PUSH1 0x40 MSTORE CALLVALUE DUP1 ISZERO PUSH1 0xE JUMPI PUSH0 PUSH0 REVERT JUMPDEST POP PUSH3 0x10000 PUSH1 0x80 MSTORE PUSH1 0x10 PUSH1 0xA0 MSTORE PUSH1 0x2 PUSH1 0xC0 MSTORE PUSH1 0x80 MLOAD PUSH1 0xA0 MLOAD PUSH1 0xC0 MLOAD PUSH2 0x5454 PUSH2 0x58 PUSH0 CODECOPY PUSH0 PUSH2 0x571 ADD MSTORE PUSH0 DUP2 DUP2 PUSH2 0x61D ADD MSTORE DUP2 DUP2 PUSH2 0xBF6 ADD MSTORE PUSH2 0xC92 ADD MSTORE PUSH0 PUSH2 0x51A ADD MSTORE PUSH2 0x5454 PUSH0 RETURN INVALID PUSH1 0x80 PUSH1 0x40 MSTORE CALLVALUE DUP1 ISZERO PUSH2 0xF JUMPI PUSH0 PUSH0 REVERT JUMPDEST POP PUSH1 0x4 CALLDATASIZE LT PUSH2 0x29 JUMPI PUSH0 CALLDATALOAD PUSH1 0xE0 SHR DUP1 PUSH4 0xEA50D0E4 EQ PUSH2 0x2D JUMPI JUMPDEST PUSH0 PUSH0 REVERT JUMPDEST PUSH2 0x40 PUSH2 0x3B CALLDATASIZE PUSH1 0x4 PUSH2 0x505D JUMP JUMPDEST PUSH2 0x54 JUMP JUMPDEST PUSH1 0x40 MLOAD SWAP1 ISZERO ISZERO DUP2 MSTORE PUSH1 0x20 ADD PUSH1 0x40 MLOAD DUP1 SWAP2 SUB SWAP1 RETURN JUMPDEST PUSH0 PUSH2 0x62 PUSH2 0x1B8 PUSH1 0x20 PUSH2 0x5139 JUMP JUMPDEST DUP5 EQ PUSH2 0x81 JUMPI PUSH1 0x40 MLOAD PUSH4 0x76BA5605 PUSH1 0xE1 SHL DUP2 MSTORE PUSH1 0x4 ADD PUSH1 0x40 MLOAD DUP1 SWAP2 SUB SWAP1 REVERT JUMPDEST PUSH0 PUSH2 0x8A PUSH2 0x198 JUMP JUMPDEST SWAP1 POP PUSH0 PUSH2 0x97 DUP8 DUP8 PUSH2 0x1AD JUMP JUMPDEST PUSH1 0x40 DUP4 ADD MLOAD SWAP1 SWAP2 POP DUP5 EQ PUSH2 0xBE JUMPI PUSH1 0x40 MLOAD PUSH4 0xFA066593 PUSH1 0xE0 SHL DUP2 MSTORE PUSH1 0x4 ADD PUSH1 0x40 MLOAD DUP1 SWAP2 SUB SWAP1 REVERT JUMPDEST PUSH0 PUSH2 0xD5 DUP3 DUP8 DUP8 DUP7 PUSH0 ADD MLOAD DUP8 PUSH1 0x40 ADD MLOAD PUSH1 0x1 PUSH2 0x455 JUMP JUMPDEST SWAP1 POP PUSH2 0x123 DUP7 DUP7 DUP1 DUP1 PUSH1 0x20 MUL PUSH1 0x20 ADD PUSH1 0x40 MLOAD SWAP1 DUP2 ADD PUSH1 0x40 MSTORE DUP1 SWAP4 SWAP3 SWAP2 SWAP1 DUP2 DUP2 MSTORE PUSH1 0x20 ADD DUP4 DUP4 PUSH1 0x20 MUL DUP1 DUP3 DUP5 CALLDATACOPY PUSH0 SWAP3 ADD SWAP2 SWAP1 SWAP2 MSTORE POP POP DUP5 MLOAD PUSH1 0x60 DUP2 ADD MLOAD PUSH1 0x80 SWAP1 SWAP2 ADD MLOAD SWAP1 SWAP3 POP SWAP1 POP PUSH1 0x1 PUSH2 0x504 JUMP JUMPDEST DUP2 MLOAD PUSH1 0xA0 ADD MSTORE PUSH0 PUSH2 0x134 DUP4 DUP4 PUSH2 0x615 JUMP JUMPDEST SWAP1 POP DUP1 PUSH2 0x154 JUMPI PUSH1 0x40 MLOAD PUSH4 0x13F87443 PUSH1 0xE3 SHL DUP2 MSTORE PUSH1 0x4 ADD PUSH1 0x40 MLOAD DUP1 SWAP2 SUB SWAP1 REVERT JUMPDEST PUSH0 PUSH2 0x160 DUP5 DUP7 DUP6 PUSH2 0x716 JUMP JUMPDEST SWAP1 POP DUP1 PUSH2 0x180 JUMPI PUSH1 0x40 MLOAD PUSH4 0x52EC1745 PUSH1 0xE1 SHL DUP2 MSTORE PUSH1 0x4 ADD PUSH1 0x40 MLOAD DUP1 SWAP2 SUB SWAP1 REVERT JUMPDEST DUP2 DUP1 ISZERO PUSH2 0x18A JUMPI POP DUP1 JUMPDEST SWAP11 SWAP10 POP POP POP POP POP POP POP POP POP POP JUMP JUMPDEST PUSH2 0x1A0 PUSH2 0x4841 JUMP JUMPDEST PUSH2 0x1A8 PUSH2 0xF8A JUMP JUMPDEST SWAP1 POP SWAP1 JUMP JUMPDEST PUSH2 0x1B5 PUSH2 0x4BBF JUMP JUMPDEST PUSH2 0x1CA PUSH2 0x1C5 PUSH1 0x80 PUSH0 DUP6 DUP8 PUSH2 0x5150 JUMP JUMPDEST PUSH2 0x1873 JUMP JUMPDEST DUP2 MSTORE PUSH2 0x1DE PUSH2 0x1C5 PUSH2 0x100 PUSH1 0x80 DUP6 DUP8 PUSH2 0x5150 JUMP JUMPDEST PUSH1 0x20 DUP3 ADD MSTORE PUSH2 0x1F6 PUSH2 0x1C5 PUSH2 0x180 PUSH2 0x100 DUP6 DUP8 PUSH2 0x5150 JUMP JUMPDEST PUSH1 0x40 DUP3 ADD MSTORE PUSH2 0x20E PUSH2 0x1C5 PUSH2 0x200 PUSH2 0x180 DUP6 DUP8 PUSH2 0x5150 JUMP JUMPDEST PUSH1 0xA0 DUP3 ADD MSTORE PUSH2 0x226 PUSH2 0x1C5 PUSH2 0x280 PUSH2 0x200 DUP6 DUP8 PUSH2 0x5150 JUMP JUMPDEST PUSH1 0xC0 DUP3 ADD MSTORE PUSH2 0x23E PUSH2 0x1C5 PUSH2 0x300 PUSH2 0x280 DUP6 DUP8 PUSH2 0x5150 JUMP JUMPDEST PUSH1 0x60 DUP3 ADD MSTORE PUSH2 0x256 PUSH2 0x1C5 PUSH2 0x380 PUSH2 0x300 DUP6 DUP8 PUSH2 0x5150 JUMP JUMPDEST PUSH1 0xE0 DUP3 ADD MSTORE PUSH2 0x26E PUSH2 0x1C5 PUSH2 0x400 PUSH2 0x380 DUP6 DUP8 PUSH2 0x5150 JUMP JUMPDEST PUSH1 0x80 DUP3 ADD MSTORE PUSH2 0x400 PUSH0 JUMPDEST PUSH1 0x1C DUP2 LT ISZERO PUSH2 0x305 JUMPI PUSH0 JUMPDEST PUSH1 0x8 DUP2 LT ISZERO PUSH2 0x2FC JUMPI PUSH2 0x2AF DUP7 DUP5 DUP8 PUSH2 0x29D DUP3 PUSH1 0x20 PUSH2 0x5177 JUMP JUMPDEST SWAP3 PUSH2 0x2AA SWAP4 SWAP3 SWAP2 SWAP1 PUSH2 0x5150 JUMP JUMPDEST PUSH2 0x1967 JUMP JUMPDEST DUP5 PUSH2 0x100 ADD MLOAD DUP4 PUSH1 0x1C DUP2 LT PUSH2 0x2C6 JUMPI PUSH2 0x2C6 PUSH2 0x518A JUMP JUMPDEST PUSH1 0x20 MUL ADD MLOAD DUP3 PUSH1 0x8 DUP2 LT PUSH2 0x2DC JUMPI PUSH2 0x2DC PUSH2 0x518A JUMP JUMPDEST PUSH1 0x20 MUL ADD DUP2 DUP2 MSTORE POP POP PUSH1 0x20 DUP4 PUSH2 0x2F2 SWAP2 SWAP1 PUSH2 0x5177 JUMP JUMPDEST SWAP3 POP PUSH1 0x1 ADD PUSH2 0x283 JUMP JUMPDEST POP PUSH1 0x1 ADD PUSH2 0x278 JUMP JUMPDEST POP PUSH0 JUMPDEST PUSH1 0x28 DUP2 LT ISZERO PUSH2 0x359 JUMPI PUSH2 0x322 DUP6 DUP4 DUP7 PUSH2 0x29D DUP3 PUSH1 0x20 PUSH2 0x5177 JUMP JUMPDEST DUP4 PUSH2 0x120 ADD MLOAD DUP3 PUSH1 0x28 DUP2 LT PUSH2 0x339 JUMPI PUSH2 0x339 PUSH2 0x518A JUMP JUMPDEST PUSH1 0x20 MUL ADD DUP2 DUP2 MSTORE POP POP PUSH1 0x20 DUP3 PUSH2 0x34F SWAP2 SWAP1 PUSH2 0x5177 JUMP JUMPDEST SWAP2 POP PUSH1 0x1 ADD PUSH2 0x308 JUMP JUMPDEST POP PUSH0 JUMPDEST PUSH2 0x368 PUSH1 0x1 PUSH1 0x1C PUSH2 0x519E JUMP JUMPDEST DUP2 LT ISZERO PUSH2 0x3BE JUMPI PUSH2 0x38D DUP6 DUP4 DUP7 PUSH2 0x380 DUP3 PUSH1 0x80 PUSH2 0x5177 JUMP JUMPDEST SWAP3 PUSH2 0x1C5 SWAP4 SWAP3 SWAP2 SWAP1 PUSH2 0x5150 JUMP JUMPDEST DUP4 PUSH2 0x140 ADD MLOAD DUP3 PUSH1 0x1B DUP2 LT PUSH2 0x3A4 JUMPI PUSH2 0x3A4 PUSH2 0x518A JUMP JUMPDEST PUSH1 0x20 MUL ADD MSTORE PUSH2 0x3B4 PUSH1 0x80 DUP4 PUSH2 0x5177 JUMP JUMPDEST SWAP2 POP PUSH1 0x1 ADD PUSH2 0x35C JUMP JUMPDEST POP PUSH0 JUMPDEST PUSH1 0x1C DUP2 LT ISZERO PUSH2 0x412 JUMPI PUSH2 0x3DB DUP6 DUP4 DUP7 PUSH2 0x29D DUP3 PUSH1 0x20 PUSH2 0x5177 JUMP JUMPDEST DUP4 PUSH2 0x160 ADD MLOAD DUP3 PUSH1 0x1C DUP2 LT PUSH2 0x3F2 JUMPI PUSH2 0x3F2 PUSH2 0x518A JUMP JUMPDEST PUSH1 0x20 MUL ADD DUP2 DUP2 MSTORE POP POP PUSH1 0x20 DUP3 PUSH2 0x408 SWAP2 SWAP1 PUSH2 0x5177 JUMP JUMPDEST SWAP2 POP PUSH1 0x1 ADD PUSH2 0x3C1 JUMP JUMPDEST POP PUSH2 0x424 DUP5 DUP3 DUP6 PUSH2 0x380 DUP3 PUSH1 0x80 PUSH2 0x5177 JUMP JUMPDEST PUSH2 0x180 DUP4 ADD MSTORE PUSH2 0x435 DUP2 PUSH1 0x80 PUSH2 0x5177 JUMP JUMPDEST SWAP1 POP PUSH2 0x448 DUP5 DUP3 DUP6 PUSH2 0x380 DUP3 PUSH1 0x80 PUSH2 0x5177 JUMP JUMPDEST PUSH2 0x1A0 DUP4 ADD MSTORE POP SWAP3 SWAP2 POP POP JUMP JUMPDEST PUSH2 0x45D PUSH2 0x4DB2 JUMP JUMPDEST PUSH0 PUSH2 0x46D DUP9 DUP9 DUP9 DUP9 DUP9 DUP9 DUP8 PUSH2 0x19C3 JUMP JUMPDEST SWAP1 DUP4 MSTORE SWAP1 POP PUSH2 0x47C DUP2 DUP10 PUSH2 0x1A44 JUMP JUMPDEST PUSH1 0x20 DUP5 ADD SWAP2 SWAP1 SWAP2 MSTORE SWAP1 POP PUSH2 0x48F DUP2 PUSH2 0x1BDF JUMP JUMPDEST PUSH1 0x40 DUP5 ADD SWAP2 SWAP1 SWAP2 MSTORE SWAP1 POP PUSH2 0x4A3 DUP9 DUP3 PUSH2 0x1C40 JUMP JUMPDEST PUSH1 0x60 DUP5 ADD SWAP2 SWAP1 SWAP2 MSTORE SWAP1 POP PUSH2 0x4B7 DUP9 DUP3 PUSH2 0x1D14 JUMP JUMPDEST PUSH1 0x80 DUP5 ADD SWAP2 SWAP1 SWAP2 MSTORE SWAP1 POP PUSH2 0x4CB DUP9 DUP3 PUSH2 0x1D9F JUMP JUMPDEST PUSH1 0xA0 DUP5 ADD SWAP2 SWAP1 SWAP2 MSTORE SWAP1 POP PUSH2 0x4DF DUP9 DUP3 PUSH2 0x1F0D JUMP JUMPDEST PUSH1 0xC0 DUP5 ADD SWAP2 SWAP1 SWAP2 MSTORE SWAP1 POP PUSH2 0x4F3 DUP9 DUP3 PUSH2 0x1F7F JUMP JUMPDEST POP PUSH1 0xE0 DUP4 ADD MSTORE POP SWAP7 SWAP6 POP POP POP POP POP POP JUMP JUMPDEST PUSH0 PUSH1 0x1 DUP1 DUP3 PUSH2 0x54D DUP7 PUSH2 0x548 DUP10 PUSH2 0x543 PUSH2 0x53E DUP11 PUSH32 0x0 PUSH2 0x5177 JUMP JUMPDEST PUSH2 0x1FD6 JUMP JUMPDEST PUSH2 0x1FF4 JUMP JUMPDEST PUSH2 0x200D JUMP JUMPDEST SWAP1 POP PUSH0 PUSH2 0x56B DUP8 PUSH2 0x566 DUP11 PUSH2 0x543 PUSH2 0x53E DUP12 PUSH1 0x1 PUSH2 0x5177 JUMP JUMPDEST PUSH2 0x2026 JUMP JUMPDEST SWAP1 POP PUSH0 JUMPDEST PUSH32 0x0 DUP2 LT ISZERO PUSH2 0x5FD JUMPI PUSH0 PUSH2 0x5BA DUP12 DUP4 DUP2 MLOAD DUP2 LT PUSH2 0x5AD JUMPI PUSH2 0x5AD PUSH2 0x518A JUMP JUMPDEST PUSH1 0x20 MUL PUSH1 0x20 ADD ADD MLOAD PUSH2 0x1FD6 JUMP JUMPDEST SWAP1 POP PUSH2 0x5CA DUP7 PUSH2 0x543 DUP7 DUP5 PUSH2 0x200D JUMP JUMPDEST SWAP6 POP PUSH2 0x5DA DUP6 PUSH2 0x543 DUP6 DUP5 PUSH2 0x200D JUMP JUMPDEST SWAP5 POP PUSH2 0x5E6 DUP5 DUP12 PUSH2 0x200D JUMP JUMPDEST SWAP4 POP PUSH2 0x5F2 DUP4 DUP12 PUSH2 0x2026 JUMP JUMPDEST SWAP3 POP POP PUSH1 0x1 ADD PUSH2 0x56F JUMP JUMPDEST POP PUSH2 0x608 DUP5 DUP5 PUSH2 0x2055 JUMP JUMPDEST SWAP10 SWAP9 POP POP POP POP POP POP POP POP POP JUMP JUMPDEST PUSH0 DUP1 PUSH1 0x1 DUP2 JUMPDEST PUSH32 0x0 DUP2 LT ISZERO PUSH2 0x6EC JUMPI PUSH0 DUP7 PUSH2 0x100 ADD MLOAD DUP3 PUSH1 0x1C DUP2 LT PUSH2 0x65B JUMPI PUSH2 0x65B PUSH2 0x518A JUMP JUMPDEST PUSH1 0x20 MUL ADD MLOAD SWAP1 POP PUSH0 PUSH2 0x66D DUP3 DUP7 PUSH2 0x2063 JUMP JUMPDEST SWAP1 POP DUP1 PUSH2 0x68D JUMPI PUSH1 0x40 MLOAD PUSH4 0x13F87443 PUSH1 0xE3 SHL DUP2 MSTORE PUSH1 0x4 ADD PUSH1 0x40 MLOAD DUP1 SWAP2 SUB SWAP1 REVERT JUMPDEST PUSH0 DUP8 PUSH1 0x60 ADD MLOAD DUP5 PUSH1 0x1C DUP2 LT PUSH2 0x6A4 JUMPI PUSH2 0x6A4 PUSH2 0x518A JUMP JUMPDEST PUSH1 0x20 MUL ADD MLOAD SWAP1 POP PUSH2 0x6B5 DUP4 DUP3 PUSH2 0x2080 JUMP JUMPDEST SWAP6 POP PUSH2 0x6DC DUP9 PUSH1 0x40 ADD MLOAD DUP6 PUSH1 0x1C DUP2 LT PUSH2 0x6D0 JUMPI PUSH2 0x6D0 PUSH2 0x518A JUMP JUMPDEST PUSH1 0x20 MUL ADD MLOAD DUP7 DUP4 PUSH2 0x222F JUMP JUMPDEST SWAP5 POP POP POP POP DUP1 PUSH1 0x1 ADD SWAP1 POP PUSH2 0x61B JUMP JUMPDEST POP PUSH0 PUSH2 0x706 DUP7 PUSH2 0x120 ADD MLOAD DUP7 PUSH0 ADD MLOAD DUP8 PUSH1 0x20 ADD MLOAD DUP6 PUSH2 0x225A JUMP JUMPDEST SWAP1 POP DUP3 DUP2 EQ JUMPDEST SWAP7 SWAP6 POP POP POP POP POP POP JUMP JUMPDEST PUSH0 PUSH2 0x75D PUSH1 0x40 MLOAD DUP1 PUSH2 0x120 ADD PUSH1 0x40 MSTORE DUP1 PUSH0 DUP2 MSTORE PUSH1 0x20 ADD PUSH0 DUP2 MSTORE PUSH1 0x20 ADD PUSH0 DUP2 MSTORE PUSH1 0x20 ADD PUSH0 DUP2 MSTORE PUSH1 0x20 ADD PUSH0 DUP2 MSTORE PUSH1 0x20 ADD PUSH0 DUP2 MSTORE PUSH1 0x20 ADD PUSH0 DUP2 MSTORE PUSH1 0x20 ADD PUSH0 DUP2 MSTORE PUSH1 0x20 ADD PUSH0 DUP2 MSTORE POP SWAP1 JUMP JUMPDEST PUSH0 PUSH2 0x76B DUP5 PUSH1 0xA0 ADD MLOAD PUSH2 0x22C8 JUMP JUMPDEST SWAP1 POP PUSH2 0x775 PUSH2 0x4E36 JUMP JUMPDEST PUSH2 0x77D PUSH2 0x4E55 JUMP JUMPDEST PUSH1 0xE0 DUP7 ADD MLOAD PUSH2 0x79C SWAP1 PUSH2 0x797 SWAP1 DUP6 PUSH0 JUMPDEST PUSH1 0x20 MUL ADD MLOAD PUSH2 0x2026 JUMP JUMPDEST PUSH2 0x232D JUMP JUMPDEST PUSH1 0xA0 DUP6 ADD MSTORE PUSH1 0xE0 DUP7 ADD MLOAD PUSH2 0x7BB SWAP1 PUSH2 0x797 SWAP1 DUP6 PUSH0 JUMPDEST PUSH1 0x20 MUL ADD MLOAD PUSH2 0x200D JUMP JUMPDEST PUSH1 0xC0 DUP1 DUP7 ADD DUP3 SWAP1 MSTORE PUSH1 0xA0 DUP7 ADD MLOAD SWAP1 DUP9 ADD MLOAD PUSH2 0x7DA SWAP3 PUSH2 0x548 SWAP2 SWAP1 PUSH2 0x1FF4 JUMP JUMPDEST DUP5 MSTORE PUSH1 0xA0 DUP7 ADD MLOAD PUSH2 0x808 SWAP1 PUSH2 0x7EE SWAP1 PUSH2 0x232D JUMP JUMPDEST PUSH2 0x543 DUP7 PUSH1 0xA0 ADD MLOAD PUSH2 0x566 DUP11 PUSH1 0xC0 ADD MLOAD DUP10 PUSH1 0xC0 ADD MLOAD PUSH2 0x1FF4 JUMP JUMPDEST PUSH1 0x20 DUP6 ADD MSTORE PUSH1 0x1 DUP3 MSTORE PUSH2 0x180 DUP9 ADD MLOAD PUSH2 0x820 SWAP1 PUSH2 0x2396 JUMP JUMPDEST DUP2 MSTORE PUSH1 0x1 PUSH1 0x60 DUP6 ADD DUP2 SWAP1 MSTORE PUSH0 PUSH1 0x80 DUP7 ADD MSTORE JUMPDEST PUSH1 0x23 DUP2 GT PUSH2 0x8D8 JUMPI PUSH2 0x853 PUSH2 0x849 DUP7 PUSH0 ADD MLOAD PUSH2 0x23E0 JUMP JUMPDEST DUP7 PUSH1 0x60 ADD MLOAD PUSH2 0x1FF4 JUMP JUMPDEST DUP4 DUP3 PUSH1 0x46 DUP2 LT PUSH2 0x865 JUMPI PUSH2 0x865 PUSH2 0x518A JUMP JUMPDEST PUSH1 0x20 MUL ADD MSTORE PUSH1 0x80 DUP6 ADD MLOAD PUSH2 0x120 DUP11 ADD MLOAD PUSH2 0x8A8 SWAP2 SWAP1 PUSH2 0x548 SWAP1 PUSH2 0x889 PUSH1 0x1 DUP7 PUSH2 0x519E JUMP JUMPDEST PUSH1 0x28 DUP2 LT PUSH2 0x899 JUMPI PUSH2 0x899 PUSH2 0x518A JUMP JUMPDEST PUSH1 0x20 MUL ADD MLOAD DUP9 PUSH1 0x60 ADD MLOAD PUSH2 0x1FF4 JUMP JUMPDEST DUP6 PUSH1 0x80 ADD DUP2 DUP2 MSTORE POP POP PUSH2 0x8C3 DUP6 PUSH1 0x60 ADD MLOAD DUP9 PUSH1 0x80 ADD MLOAD PUSH2 0x1FF4 JUMP JUMPDEST PUSH1 0x60 DUP7 ADD MSTORE PUSH2 0x8D1 DUP2 PUSH2 0x51B1 JUMP JUMPDEST SWAP1 POP PUSH2 0x832 JUMP JUMPDEST POP PUSH0 PUSH2 0x8E6 PUSH1 0x23 PUSH1 0x1 PUSH2 0x5177 JUMP JUMPDEST SWAP1 POP JUMPDEST PUSH1 0x28 DUP2 GT PUSH2 0x967 JUMPI PUSH2 0x901 PUSH2 0x849 DUP7 PUSH1 0x20 ADD MLOAD PUSH2 0x23E0 JUMP JUMPDEST DUP4 DUP3 PUSH1 0x46 DUP2 LT PUSH2 0x913 JUMPI PUSH2 0x913 PUSH2 0x518A JUMP JUMPDEST PUSH1 0x20 MUL ADD MSTORE PUSH1 0x80 DUP6 ADD MLOAD PUSH2 0x120 DUP11 ADD MLOAD PUSH2 0x937 SWAP2 SWAP1 PUSH2 0x548 SWAP1 PUSH2 0x889 PUSH1 0x1 DUP7 PUSH2 0x519E JUMP JUMPDEST DUP6 PUSH1 0x80 ADD DUP2 DUP2 MSTORE POP POP PUSH2 0x952 DUP6 PUSH1 0x60 ADD MLOAD DUP9 PUSH1 0x80 ADD MLOAD PUSH2 0x1FF4 JUMP JUMPDEST PUSH1 0x60 DUP7 ADD MSTORE PUSH2 0x960 DUP2 PUSH2 0x51B1 JUMP JUMPDEST SWAP1 POP PUSH2 0x8E9 JUMP JUMPDEST POP PUSH1 0x60 DUP8 ADD MLOAD DUP2 PUSH1 0x1 PUSH1 0x20 MUL ADD MSTORE PUSH1 0x80 DUP8 ADD MLOAD DUP2 PUSH1 0x2 PUSH1 0x20 MUL ADD MSTORE PUSH1 0xA0 DUP8 ADD MLOAD DUP2 PUSH1 0x3 PUSH1 0x20 MUL ADD MSTORE PUSH1 0xC0 DUP8 ADD MLOAD DUP2 PUSH1 0x4 PUSH1 0x20 MUL ADD MSTORE PUSH1 0xE0 DUP8 ADD MLOAD DUP2 PUSH1 0x5 PUSH1 0x20 MUL ADD MSTORE PUSH2 0x100 DUP8 ADD MLOAD DUP2 PUSH1 0x6 PUSH1 0x20 MUL ADD MSTORE PUSH2 0x120 DUP8 ADD MLOAD DUP2 PUSH1 0x7 PUSH1 0x20 MUL ADD MSTORE PUSH2 0x140 DUP8 ADD MLOAD DUP2 PUSH1 0x8 PUSH1 0x20 MUL ADD MSTORE PUSH2 0x160 DUP8 ADD MLOAD DUP2 PUSH1 0x9 PUSH1 0x20 MUL ADD MSTORE PUSH2 0x1A0 DUP8 ADD MLOAD DUP2 PUSH1 0xA PUSH1 0x20 MUL ADD MSTORE PUSH2 0x180 DUP8 ADD MLOAD DUP2 PUSH1 0xB PUSH1 0x20 MUL ADD MSTORE PUSH2 0x1C0 DUP8 ADD MLOAD DUP2 PUSH1 0xC PUSH1 0x20 MUL ADD MSTORE PUSH2 0x1E0 DUP8 ADD MLOAD DUP2 PUSH1 0xD PUSH1 0x20 MUL ADD MSTORE PUSH2 0x200 DUP8 ADD MLOAD DUP2 PUSH1 0xE PUSH1 0x20 MUL ADD MSTORE PUSH2 0x220 DUP8 ADD MLOAD DUP2 PUSH1 0xF PUSH1 0x20 MUL ADD MSTORE PUSH2 0x240 DUP8 ADD MLOAD DUP2 PUSH1 0x10 PUSH1 0x20 MUL ADD MSTORE PUSH2 0x260 DUP8 ADD MLOAD DUP2 PUSH1 0x11 PUSH1 0x20 MUL ADD MSTORE PUSH2 0x280 DUP8 ADD MLOAD DUP2 PUSH1 0x12 PUSH1 0x20 MUL ADD MSTORE PUSH2 0x2A0 DUP8 ADD MLOAD DUP2 PUSH1 0x13 PUSH1 0x20 MUL ADD MSTORE PUSH2 0x2C0 DUP8 ADD MLOAD DUP2 PUSH1 0x14 PUSH1 0x20 MUL ADD MSTORE PUSH2 0x2E0 DUP8 ADD MLOAD DUP2 PUSH1 0x15 PUSH1 0x20 MUL ADD MSTORE PUSH2 0x300 DUP8 ADD MLOAD DUP2 PUSH1 0x16 PUSH1 0x20 MUL ADD MSTORE PUSH2 0x320 DUP8 ADD MLOAD DUP2 PUSH1 0x17 PUSH1 0x20 MUL ADD MSTORE PUSH2 0x340 DUP8 ADD MLOAD DUP2 PUSH1 0x18 PUSH1 0x20 MUL ADD MSTORE PUSH2 0x360 DUP8 ADD MLOAD DUP2 PUSH1 0x19 PUSH1 0x20 MUL ADD MSTORE PUSH2 0x380 DUP8 ADD MLOAD DUP2 PUSH1 0x1A PUSH1 0x20 MUL ADD MSTORE PUSH2 0x3A0 DUP8 ADD MLOAD DUP2 PUSH1 0x1B PUSH1 0x20 MUL ADD MSTORE DUP8 MLOAD PUSH2 0xAE8 SWAP1 PUSH2 0x2396 JUMP JUMPDEST PUSH2 0x380 DUP3 ADD MSTORE PUSH1 0x20 DUP9 ADD MLOAD PUSH2 0xAFC SWAP1 PUSH2 0x2396 JUMP JUMPDEST PUSH2 0x3A0 DUP3 ADD MSTORE PUSH1 0x40 DUP9 ADD MLOAD PUSH2 0xB10 SWAP1 PUSH2 0x2396 JUMP JUMPDEST PUSH2 0x3C0 DUP3 ADD MSTORE PUSH1 0x60 DUP9 ADD MLOAD PUSH2 0xB24 SWAP1 PUSH2 0x2396 JUMP JUMPDEST PUSH2 0x3E0 DUP3 ADD MSTORE PUSH1 0x80 DUP9 ADD MLOAD PUSH2 0xB38 SWAP1 PUSH2 0x2396 JUMP JUMPDEST PUSH2 0x400 DUP3 ADD MSTORE PUSH1 0xE0 DUP9 ADD MLOAD PUSH2 0xB4C SWAP1 PUSH2 0x2396 JUMP JUMPDEST PUSH2 0x420 DUP3 ADD MSTORE PUSH1 0xA0 DUP9 ADD MLOAD PUSH2 0xB60 SWAP1 PUSH2 0x2396 JUMP JUMPDEST PUSH2 0x440 DUP3 ADD MSTORE PUSH1 0xC0 DUP9 ADD MLOAD PUSH2 0xB74 SWAP1 PUSH2 0x2396 JUMP JUMPDEST PUSH2 0x460 DUP3 ADD MSTORE DUP8 MLOAD PUSH2 0xB85 SWAP1 PUSH2 0x2396 JUMP JUMPDEST PUSH2 0x480 DUP3 ADD MSTORE PUSH1 0x20 DUP9 ADD MLOAD PUSH2 0xB99 SWAP1 PUSH2 0x2396 JUMP JUMPDEST PUSH2 0x4A0 DUP3 ADD MSTORE PUSH1 0x40 DUP9 ADD MLOAD PUSH2 0xBAD SWAP1 PUSH2 0x2396 JUMP JUMPDEST PUSH2 0x4C0 DUP3 ADD MSTORE PUSH1 0x60 DUP9 ADD MLOAD PUSH2 0xBC1 SWAP1 PUSH2 0x2396 JUMP JUMPDEST PUSH2 0x4E0 DUP3 ADD MSTORE PUSH1 0x80 DUP9 ADD MLOAD PUSH2 0xBD5 SWAP1 PUSH2 0x2396 JUMP JUMPDEST PUSH2 0x500 DUP3 ADD MSTORE PUSH1 0x60 DUP7 ADD MLOAD PUSH1 0x80 DUP6 ADD MLOAD PUSH2 0x160 DUP11 ADD MLOAD PUSH0 SWAP3 PUSH2 0xC1A SWAP3 SWAP1 SWAP2 DUP8 PUSH32 0x0 PUSH2 0x23F8 JUMP JUMPDEST DUP1 MLOAD PUSH1 0xA0 DUP8 ADD MLOAD SWAP2 SWAP3 POP PUSH2 0xC2D SWAP2 PUSH2 0x1FF4 JUMP JUMPDEST PUSH1 0x40 DUP7 ADD DUP2 SWAP1 MSTORE PUSH2 0x160 DUP11 ADD MLOAD MLOAD PUSH1 0xC0 DUP10 ADD MLOAD PUSH2 0xC5D SWAP3 SWAP2 PUSH2 0x548 SWAP2 PUSH2 0xC53 SWAP2 SWAP1 PUSH2 0x1FF4 JUMP JUMPDEST DUP9 PUSH1 0xC0 ADD MLOAD PUSH2 0x1FF4 JUMP JUMPDEST PUSH1 0x40 DUP7 ADD MSTORE PUSH1 0xC0 DUP8 ADD MLOAD PUSH2 0xC70 SWAP1 PUSH2 0x2513 JUMP JUMPDEST PUSH1 0x60 DUP7 ADD MSTORE PUSH0 JUMPDEST PUSH2 0xC83 PUSH1 0x1 PUSH1 0x1C PUSH2 0x519E JUMP JUMPDEST DUP2 LT ISZERO PUSH2 0xE85 JUMPI PUSH0 PUSH2 0xCB6 PUSH1 0x1 PUSH32 0x0 PUSH2 0x519E JUMP JUMPDEST DUP3 LT ISZERO SWAP1 POP DUP1 PUSH2 0xE2B JUMPI PUSH2 0xCE9 PUSH2 0x797 DUP11 PUSH1 0xE0 ADD MLOAD DUP9 DUP6 PUSH1 0x1 PUSH2 0xCD9 SWAP2 SWAP1 PUSH2 0x5177 JUMP JUMPDEST PUSH1 0x1C DUP2 LT PUSH2 0x78D JUMPI PUSH2 0x78D PUSH2 0x518A JUMP JUMPDEST PUSH1 0xA0 DUP9 ADD MSTORE PUSH1 0xE0 DUP10 ADD MLOAD PUSH2 0xD17 SWAP1 PUSH2 0x797 SWAP1 DUP9 PUSH2 0xD07 DUP7 PUSH1 0x1 PUSH2 0x5177 JUMP JUMPDEST PUSH1 0x1C DUP2 LT PUSH2 0x7B1 JUMPI PUSH2 0x7B1 PUSH2 0x518A JUMP JUMPDEST PUSH1 0xC0 DUP9 ADD MSTORE PUSH1 0x60 DUP8 ADD MLOAD PUSH1 0xA0 DUP9 ADD MLOAD PUSH2 0xD30 SWAP2 SWAP1 PUSH2 0x1FF4 JUMP JUMPDEST PUSH1 0xE0 DUP9 ADD MSTORE PUSH1 0x60 DUP8 ADD MLOAD PUSH1 0xC0 DUP11 ADD MLOAD PUSH2 0xD4C SWAP2 PUSH2 0xC53 SWAP2 PUSH2 0x1FF4 JUMP JUMPDEST PUSH2 0x100 DUP9 ADD DUP2 SWAP1 MSTORE PUSH2 0xD6E SWAP1 PUSH2 0xD61 SWAP1 PUSH2 0x23E0 JUMP JUMPDEST PUSH2 0x548 DUP10 PUSH1 0xE0 ADD MLOAD PUSH2 0x23E0 JUMP JUMPDEST DUP6 DUP4 PUSH2 0xD7C PUSH1 0x28 PUSH1 0x1 PUSH2 0x5177 JUMP JUMPDEST PUSH2 0xD86 SWAP2 SWAP1 PUSH2 0x5177 JUMP JUMPDEST PUSH1 0x46 DUP2 LT PUSH2 0xD96 JUMPI PUSH2 0xD96 PUSH2 0x518A JUMP JUMPDEST PUSH1 0x20 MUL ADD MSTORE PUSH2 0x100 DUP8 ADD MLOAD PUSH2 0x160 DUP13 ADD MLOAD PUSH0 SWAP2 PUSH2 0xDD2 SWAP2 PUSH2 0xDB8 DUP7 PUSH1 0x1 PUSH2 0x5177 JUMP JUMPDEST PUSH1 0x1C DUP2 LT PUSH2 0xDC8 JUMPI PUSH2 0xDC8 PUSH2 0x518A JUMP JUMPDEST PUSH1 0x20 MUL ADD MLOAD PUSH2 0x1FF4 JUMP JUMPDEST SWAP1 POP PUSH2 0xDEE DUP2 PUSH2 0x548 DUP11 PUSH1 0xE0 ADD MLOAD DUP8 DUP8 PUSH1 0x1 PUSH2 0xDB8 SWAP2 SWAP1 PUSH2 0x5177 JUMP JUMPDEST SWAP1 POP PUSH2 0xDFE DUP9 PUSH1 0x40 ADD MLOAD DUP3 PUSH2 0x200D JUMP JUMPDEST PUSH1 0x40 DUP10 ADD MSTORE PUSH1 0x60 DUP9 ADD MLOAD PUSH1 0xC0 DUP12 ADD MLOAD PUSH2 0xE24 SWAP2 PUSH2 0xE1A SWAP2 PUSH2 0x1FF4 JUMP JUMPDEST DUP12 PUSH1 0xC0 ADD MLOAD PUSH2 0x1FF4 JUMP JUMPDEST PUSH1 0x60 DUP10 ADD MSTORE POP JUMPDEST PUSH2 0xE4F DUP12 PUSH2 0x140 ADD MLOAD DUP4 PUSH1 0x1B DUP2 LT PUSH2 0xE45 JUMPI PUSH2 0xE45 PUSH2 0x518A JUMP JUMPDEST PUSH1 0x20 MUL ADD MLOAD PUSH2 0x2396 JUMP JUMPDEST DUP5 DUP4 PUSH2 0xE5D PUSH1 0x28 PUSH1 0x1 PUSH2 0x5177 JUMP JUMPDEST PUSH2 0xE67 SWAP2 SWAP1 PUSH2 0x5177 JUMP JUMPDEST PUSH1 0x46 DUP2 LT PUSH2 0xE77 JUMPI PUSH2 0xE77 PUSH2 0x518A JUMP JUMPDEST PUSH1 0x20 MUL ADD MSTORE POP PUSH1 0x1 ADD PUSH2 0xC77 JUMP JUMPDEST POP PUSH1 0x40 DUP1 MLOAD DUP1 DUP3 ADD SWAP1 SWAP2 MSTORE PUSH1 0x1 DUP2 MSTORE PUSH1 0x2 PUSH1 0x20 DUP3 ADD MSTORE DUP3 PUSH2 0xEA8 PUSH1 0x1C PUSH1 0x28 PUSH2 0x5177 JUMP JUMPDEST PUSH1 0x46 DUP2 LT PUSH2 0xEB8 JUMPI PUSH2 0xEB8 PUSH2 0x518A JUMP JUMPDEST PUSH1 0x20 MUL ADD MSTORE PUSH1 0x40 DUP6 ADD MLOAD DUP4 PUSH2 0xECF PUSH1 0x1C PUSH1 0x28 PUSH2 0x5177 JUMP JUMPDEST PUSH1 0x46 DUP2 LT PUSH2 0xEDF JUMPI PUSH2 0xEDF PUSH2 0x518A JUMP JUMPDEST PUSH1 0x20 MUL ADD MSTORE PUSH2 0x1A0 DUP10 ADD MLOAD PUSH0 SWAP1 PUSH2 0xEF5 SWAP1 PUSH2 0x2396 JUMP JUMPDEST SWAP1 POP DUP1 DUP4 PUSH2 0xF05 PUSH1 0x1C PUSH1 0x28 PUSH2 0x5177 JUMP JUMPDEST PUSH2 0xF10 SWAP1 PUSH1 0x1 PUSH2 0x5177 JUMP JUMPDEST PUSH1 0x46 DUP2 LT PUSH2 0xF20 JUMPI PUSH2 0xF20 PUSH2 0x518A JUMP JUMPDEST PUSH1 0x20 MUL ADD MSTORE PUSH1 0xE0 DUP9 ADD MLOAD DUP5 PUSH2 0xF37 PUSH1 0x1C PUSH1 0x28 PUSH2 0x5177 JUMP JUMPDEST PUSH2 0xF42 SWAP1 PUSH1 0x1 PUSH2 0x5177 JUMP JUMPDEST PUSH1 0x46 DUP2 LT PUSH2 0xF52 JUMPI PUSH2 0xF52 PUSH2 0x518A JUMP JUMPDEST PUSH1 0x20 MUL ADD MSTORE PUSH0 PUSH2 0xF62 DUP5 DUP7 PUSH2 0x251E JUMP JUMPDEST SWAP1 POP PUSH0 PUSH2 0xF6E DUP4 PUSH2 0x25EF JUMP JUMPDEST SWAP1 POP PUSH2 0xF7A DUP3 DUP3 PUSH2 0x2666 JUMP JUMPDEST SWAP13 SWAP12 POP POP POP POP POP POP POP POP POP POP POP POP JUMP JUMPDEST PUSH2 0xF92 PUSH2 0x4841 JUMP JUMPDEST POP PUSH1 0x40 DUP1 MLOAD PUSH2 0x3C0 DUP2 ADD DUP3 MSTORE PUSH3 0x10000 DUP2 MSTORE PUSH1 0x10 PUSH1 0x20 DUP1 DUP4 ADD SWAP2 SWAP1 SWAP2 MSTORE PUSH1 0x2 DUP3 DUP5 ADD DUP2 SWAP1 MSTORE DUP4 MLOAD DUP1 DUP6 ADD DUP6 MSTORE PUSH32 0x2A53FAFB57125F1606442792CC40E353F4DDEB477CF475372942A1BFA1BC493D DUP2 MSTORE PUSH32 0x577CC6A35D1520CFBEC2D4A46C3B12EE2607774749ED9DE4B1135AC86A65464 DUP2 DUP5 ADD MSTORE PUSH1 0x60 DUP5 ADD MSTORE DUP4 MLOAD DUP1 DUP6 ADD DUP6 MSTORE PUSH32 0x2D9B1552FE5FFDA8A82499A5DAA0C3BA70B7220A5AE7CAA04A2DB014495836D6 DUP2 MSTORE PUSH32 0x9B9FCFB4B2936641B67E73EC35F658EDA8E78121FCFA2AF167BCBC9016EDBB4 DUP2 DUP5 ADD MSTORE PUSH1 0x80 DUP5 ADD MSTORE DUP4 MLOAD DUP1 DUP6 ADD DUP6 MSTORE PUSH32 0x18C01141A7F049BE5D772BD2AFB8A3E15A32EF0A735E7EE6827616639BF84AA8 DUP2 MSTORE PUSH32 0x96181FE7DF19D89359A207C83F6C327B0ECB69E82B933AF72AFC1253376AA2F DUP2 DUP5 ADD MSTORE PUSH1 0xA0 DUP5 ADD MSTORE DUP4 MLOAD DUP1 DUP6 ADD DUP6 MSTORE PUSH32 0x1ECE61A86F5215BD5A43C5D5342F55B0BB65499FB2A10035FF7C29BC3C47D68B DUP2 MSTORE PUSH32 0x15563CC39CC9F2D534249408D2D03AADF19D29A8146DC1606D04D4B12194C38 DUP2 DUP5 ADD MSTORE PUSH1 0xC0 DUP5 ADD MSTORE DUP4 MLOAD DUP1 DUP6 ADD DUP6 MSTORE PUSH32 0x2E7A6D94BC19CF9C7513CB419FD98C61D26FB9569CABEAE1C2DC54362391B7EB DUP2 MSTORE PUSH32 0x296E3236892528C4AED10424D165A771C34E3D8B5477460FE92470D4D16BE54D DUP2 DUP5 ADD MSTORE PUSH1 0xE0 DUP5 ADD MSTORE DUP4 MLOAD DUP1 DUP6 ADD DUP6 MSTORE PUSH32 0x192F1D335E2EE7E0B33764269620646D63857AC8062BB44FD7AD0860D4395275 DUP2 MSTORE PUSH32 0x12A61D0DC3991131C0CE2BDFFBF3E98FDCA2B3A6F0C50FB78909C2198A684270 DUP2 DUP5 ADD MSTORE PUSH2 0x100 DUP5 ADD MSTORE DUP4 MLOAD DUP1 DUP6 ADD DUP6 MSTORE PUSH32 0x3058B7F62CBCBDC8763B05935E9965BEA86CD205281D331FB426EF4232FFE5C5 DUP2 MSTORE PUSH32 0x2B312F13FEA65176BC0FE06AEF8724F256898D215C78835F40BFE56FBF3F0DE3 DUP2 DUP5 ADD MSTORE PUSH2 0x120 DUP5 ADD MSTORE DUP4 MLOAD DUP1 DUP6 ADD DUP6 MSTORE PUSH32 0x2BDB996BB37EFEB4BF4FB8AA8C2E8D0B99F2A3666B3387ADC9BD982A04E883A1 DUP2 MSTORE PUSH32 0x188042B274B3F2941190DEC2A729A7FF82012772211AF34C6BAE9252F2255B92 DUP2 DUP5 ADD MSTORE PUSH2 0x140 DUP5 ADD MSTORE DUP4 MLOAD DUP1 DUP6 ADD DUP6 MSTORE PUSH32 0x21A1F36B7ECB380308F033708E543F95C7EDE1A087AAF2463D47B9CEA68D8671 DUP2 MSTORE PUSH32 0x38178A29421D79715070E2004D35A2EB385BD1DEA45D50BF819FCBC5C75E64C DUP2 DUP5 ADD MSTORE PUSH2 0x160 DUP5 ADD MSTORE DUP4 MLOAD DUP1 DUP6 ADD DUP6 MSTORE PUSH32 0x145B355AD0C3AF4447B484CB5ADE7E4771E7509CEF8354C6A590E9DBFE7A45C9 DUP2 MSTORE PUSH32 0x899012D196F711718552D210A494E4988B2505FF2E94D9BC959A7FA938348F2 DUP2 DUP5 ADD MSTORE PUSH2 0x180 DUP5 ADD MSTORE DUP4 MLOAD DUP1 DUP6 ADD DUP6 MSTORE PUSH32 0x1BC10C7F4B5246E379BF5D4CADF071C86C3867403ED3CAEB40FFA18B1A86D430 DUP2 MSTORE PUSH32 0x1A230AE2D4CD8CC24C29ACAB4F61626B45E1C09FC662F6012343845532EECB44 DUP2 DUP5 ADD MSTORE PUSH2 0x1A0 DUP5 ADD MSTORE DUP4 MLOAD DUP1 DUP6 ADD DUP6 MSTORE PUSH32 0x15118EE016947DB45161A991E84419836D9A732787BD72EEDADE94AB028ADBA1 DUP2 MSTORE PUSH32 0x63396CBE6B51028E7A037D335E0CEB13EC3BC61945E1F7802E9D90EC5F04166 DUP2 DUP5 ADD MSTORE PUSH2 0x1C0 DUP5 ADD MSTORE DUP4 MLOAD DUP1 DUP6 ADD DUP6 MSTORE PUSH32 0x14C2E80E41157CDF87D51D432A454B77E7C32CE97FA6528F6E11D8E5C3B1D92F DUP2 MSTORE PUSH32 0x1EAAF713DA03418D86480535F256FCD23B5DFC152DBF041F16D70C89B507B6E3 DUP2 DUP5 ADD MSTORE PUSH2 0x1E0 DUP5 ADD MSTORE DUP4 MLOAD DUP1 DUP6 ADD DUP6 MSTORE PUSH32 0x2FA393F77F6F81AEBE24A41F5E12614DCB8EFEE4AEB645D641C00E093207B95E DUP2 MSTORE PUSH32 0x9552954D7FC29E8112EED68034DF304623268648A5074F5A9051E5AA6ECECAC DUP2 DUP5 ADD MSTORE PUSH2 0x200 DUP5 ADD MSTORE DUP4 MLOAD DUP1 DUP6 ADD DUP6 MSTORE PUSH32 0x352FBF6ED9739F0CB33EEFD7C0E8A308335A2B83EFD9C8EC22BEFF189784643 DUP2 MSTORE PUSH32 0x1A4A7154FBC4C5F2CD61FC2BF051C25AB3A8561E0855911B04B6EAF6A82E7ED8 DUP2 DUP5 ADD MSTORE PUSH2 0x220 DUP5 ADD MSTORE DUP4 MLOAD DUP1 DUP6 ADD DUP6 MSTORE PUSH32 0x13C27CD44CDF509FCF11363EDE4FAE3F5C1F9B6B2FE3D8D138D3AE562377C47E DUP2 MSTORE PUSH32 0x20C305E60A2D7CD9F75E1DDD17FA6908C3E8C9054FA9C5BC0435909AEF4751EE DUP2 DUP5 ADD MSTORE PUSH2 0x240 DUP5 ADD MSTORE DUP4 MLOAD DUP1 DUP6 ADD DUP6 MSTORE PUSH32 0x962530B038DB386E48092E14B060CB6AEDC16444EEFC884C0E34FEFE642EBA0 DUP2 MSTORE PUSH32 0x21E6D6D316663301E940BC88CB98B82603031C9DB4745936780723FF043D86B8 DUP2 DUP5 ADD MSTORE PUSH2 0x260 DUP5 ADD MSTORE DUP4 MLOAD DUP1 DUP6 ADD DUP6 MSTORE PUSH32 0x26D0AAAD7416A6843C063C519A9F65F9AC8FBA4462C05C5D4AF396FDBC26AC65 DUP2 MSTORE PUSH32 0x1B25386C0B67A14C4FF6F3D7D36472487DF446B427D3EEB31245F443762BE792 DUP2 DUP5 ADD MSTORE PUSH2 0x280 DUP5 ADD MSTORE DUP4 MLOAD DUP1 DUP6 ADD DUP6 MSTORE PUSH32 0x2B917E3D349AE06BCC92BDBB34D48C1831B4FDF59BA4F405F615DE7E95ED9331 DUP2 MSTORE PUSH32 0x651D6FBA6514B528D84EB97798957F22D5871EC7C6499196D5390FA8017E70D DUP2 DUP5 ADD MSTORE PUSH2 0x2A0 DUP5 ADD MSTORE DUP4 MLOAD DUP1 DUP6 ADD DUP6 MSTORE PUSH32 0x1F2DF6275FCD085F6574DADCFE1DDDADEB801A32A0D0582D202730C1011F9903 DUP2 MSTORE PUSH32 0x7B7A65DDDE5B302419380318E047063E9BD2FD7A0B12DFC10CB4B075C4F4AEC DUP2 DUP5 ADD MSTORE PUSH2 0x2C0 DUP5 ADD MSTORE DUP4 MLOAD DUP1 DUP6 ADD DUP6 MSTORE PUSH32 0x1C3AFF72A520F293B65474397E6DC280B48486968DA9D41D69F89B2C40C59AD5 DUP2 MSTORE PUSH32 0x76B30340E6C7281AC5242F4C4D586B73989FBF32C0208661A9361B3BB8D5139 DUP2 DUP5 ADD MSTORE PUSH2 0x2E0 DUP5 ADD MSTORE DUP4 MLOAD DUP1 DUP6 ADD DUP6 MSTORE PUSH32 0x20D671263CAD88C119D0A5D172679309087E385F8E76D4CFA834FAB61EBD6603 DUP2 MSTORE PUSH32 0xF9E6DFD3E6F4584B28E2CB00483DC2FFD9BF5F7AE2CC3F1EA0869C5AE71D9A1 DUP2 DUP5 ADD MSTORE PUSH2 0x300 DUP5 ADD MSTORE DUP4 MLOAD DUP1 DUP6 ADD DUP6 MSTORE PUSH32 0x101E267B586089A8BB447E83AB3B7029ED788CC214E0BE44485E2F39AFBB7AE6 DUP2 MSTORE PUSH32 0x13410D68BCE429DC36E23023CFE21C5F2CED7E136529A4BCD4317232F2FC16B6 DUP2 DUP5 ADD MSTORE PUSH2 0x320 DUP5 ADD MSTORE DUP4 MLOAD DUP1 DUP6 ADD DUP6 MSTORE PUSH32 0x1054A26AE3AEEEEDC653CF5C5E3C09E2258141E67F4A5A48B50CBF48958B40BD DUP2 MSTORE PUSH32 0x2D14190EDCF9B2AA697B677C779083AAF0151CC4F673DCF4BDBA392D6280E376 DUP2 DUP5 ADD MSTORE PUSH2 0x340 DUP5 ADD MSTORE DUP4 MLOAD DUP1 DUP6 ADD DUP6 MSTORE PUSH32 0x2E9E762A66FED77EB0E72645E5BA54F32C1D1BFBC4BD862361DAFD7EBD6C68DD DUP2 MSTORE PUSH32 0xB4A012FBC876F57DA669215383F3595383F787BCA153E972E6CFB9DFEBEAA1B DUP2 DUP5 ADD MSTORE PUSH2 0x360 DUP5 ADD MSTORE DUP4 MLOAD DUP1 DUP6 ADD DUP6 MSTORE PUSH1 0x1 DUP2 MSTORE DUP1 DUP4 ADD SWAP2 SWAP1 SWAP2 MSTORE PUSH2 0x380 DUP4 ADD MSTORE DUP3 MLOAD DUP1 DUP5 ADD SWAP1 SWAP4 MSTORE PUSH32 0xBD364918ACD0A5B4BA1D5A8666B9C25A68668CC984D046F76E73B37C6AD4491 DUP4 MSTORE PUSH32 0x23BAEBFEF390A9744BF6A6512C03E077BF02EEB76C37730F7767601DDC01B7A SWAP1 DUP4 ADD MSTORE PUSH2 0x3A0 DUP2 ADD SWAP2 SWAP1 SWAP2 MSTORE SWAP1 JUMP JUMPDEST PUSH2 0x189A PUSH1 0x40 MLOAD DUP1 PUSH1 0x80 ADD PUSH1 0x40 MSTORE DUP1 PUSH0 DUP2 MSTORE PUSH1 0x20 ADD PUSH0 DUP2 MSTORE PUSH1 0x20 ADD PUSH0 DUP2 MSTORE PUSH1 0x20 ADD PUSH0 DUP2 MSTORE POP SWAP1 JUMP JUMPDEST PUSH1 0x80 DUP3 EQ PUSH2 0x18E5 JUMPI PUSH1 0x40 MLOAD PUSH3 0x461BCD PUSH1 0xE5 SHL DUP2 MSTORE PUSH1 0x20 PUSH1 0x4 DUP3 ADD MSTORE PUSH1 0x13 PUSH1 0x24 DUP3 ADD MSTORE PUSH19 0x1A5B9D985B1A5908189E5D195CC81C1BDA5B9D PUSH1 0x6A SHL PUSH1 0x44 DUP3 ADD MSTORE PUSH1 0x64 ADD JUMPDEST PUSH1 0x40 MLOAD DUP1 SWAP2 SUB SWAP1 REVERT JUMPDEST PUSH1 0x40 DUP1 MLOAD PUSH1 0x80 DUP2 ADD SWAP1 SWAP2 MSTORE DUP1 PUSH2 0x18FE PUSH1 0x20 PUSH0 DUP7 DUP9 PUSH2 0x5150 JUMP JUMPDEST PUSH2 0x1907 SWAP2 PUSH2 0x51C9 JUMP JUMPDEST DUP2 MSTORE PUSH1 0x20 SWAP1 DUP2 ADD SWAP1 PUSH2 0x191D SWAP1 PUSH1 0x40 SWAP1 DUP7 DUP9 PUSH2 0x5150 JUMP JUMPDEST PUSH2 0x1926 SWAP2 PUSH2 0x51C9 JUMP JUMPDEST DUP2 MSTORE PUSH1 0x20 ADD PUSH2 0x1939 PUSH1 0x60 PUSH1 0x40 DUP7 DUP9 PUSH2 0x5150 JUMP JUMPDEST PUSH2 0x1942 SWAP2 PUSH2 0x51C9 JUMP JUMPDEST DUP2 MSTORE PUSH1 0x20 ADD PUSH2 0x1955 PUSH1 0x80 PUSH1 0x60 DUP7 DUP9 PUSH2 0x5150 JUMP JUMPDEST PUSH2 0x195E SWAP2 PUSH2 0x51C9 JUMP JUMPDEST SWAP1 MSTORE SWAP4 SWAP3 POP POP POP JUMP JUMPDEST PUSH0 PUSH1 0x20 DUP3 EQ PUSH2 0x19AF JUMPI PUSH1 0x40 MLOAD PUSH3 0x461BCD PUSH1 0xE5 SHL DUP2 MSTORE PUSH1 0x20 PUSH1 0x4 DUP3 ADD MSTORE PUSH1 0x14 PUSH1 0x24 DUP3 ADD MSTORE PUSH20 0x34B73B30B634B210313CBA32B99039B1B0B630B9 PUSH1 0x61 SHL PUSH1 0x44 DUP3 ADD MSTORE PUSH1 0x64 ADD PUSH2 0x18DC JUMP JUMPDEST PUSH2 0x19BC PUSH2 0x53E DUP4 DUP6 PUSH2 0x51C9 JUMP JUMPDEST SWAP4 SWAP3 POP POP POP JUMP JUMPDEST PUSH2 0x19F6 PUSH1 0x40 MLOAD DUP1 PUSH1 0xC0 ADD PUSH1 0x40 MSTORE DUP1 PUSH0 DUP2 MSTORE PUSH1 0x20 ADD PUSH0 DUP2 MSTORE PUSH1 0x20 ADD PUSH0 DUP2 MSTORE PUSH1 0x20 ADD PUSH0 DUP2 MSTORE PUSH1 0x20 ADD PUSH0 DUP2 MSTORE PUSH1 0x20 ADD PUSH0 DUP2 MSTORE POP SWAP1 JUMP JUMPDEST PUSH0 PUSH2 0x1A05 DUP10 DUP10 DUP10 DUP10 DUP10 DUP10 PUSH2 0x286A JUMP JUMPDEST PUSH1 0x40 DUP7 ADD SWAP2 SWAP1 SWAP2 MSTORE PUSH1 0x20 DUP6 ADD SWAP2 SWAP1 SWAP2 MSTORE SWAP1 DUP4 MSTORE SWAP3 POP PUSH2 0x1A24 DUP4 DUP11 PUSH2 0x2C8D JUMP JUMPDEST PUSH1 0x80 DUP6 ADD SWAP2 SWAP1 SWAP2 MSTORE PUSH1 0x60 DUP5 ADD SWAP2 SWAP1 SWAP2 MSTORE SWAP2 SWAP10 SWAP2 SWAP9 POP SWAP1 SWAP7 POP POP POP POP POP POP POP JUMP JUMPDEST PUSH2 0x1A4C PUSH2 0x4E8E JUMP JUMPDEST PUSH0 PUSH2 0x1A55 PUSH2 0x4EAD JUMP JUMPDEST DUP5 DUP2 MSTORE PUSH1 0xE0 DUP5 DUP2 ADD DUP1 MLOAD MLOAD PUSH1 0x20 DUP1 DUP6 ADD SWAP2 SWAP1 SWAP2 MSTORE DUP2 MLOAD DUP2 ADD MLOAD PUSH1 0x40 DUP1 DUP7 ADD SWAP2 SWAP1 SWAP2 MSTORE DUP3 MLOAD DUP2 ADD MLOAD PUSH1 0x60 DUP1 DUP8 ADD SWAP2 SWAP1 SWAP2 MSTORE SWAP3 MLOAD DUP4 ADD MLOAD PUSH1 0x80 DUP1 DUP8 ADD SWAP2 SWAP1 SWAP2 MSTORE DUP9 ADD DUP1 MLOAD MLOAD PUSH1 0xA0 DUP8 ADD MSTORE DUP1 MLOAD DUP4 ADD MLOAD PUSH1 0xC0 DUP8 ADD MSTORE DUP1 MLOAD DUP3 ADD MLOAD SWAP5 DUP7 ADD SWAP5 SWAP1 SWAP5 MSTORE SWAP3 MLOAD SWAP1 SWAP2 ADD MLOAD PUSH2 0x100 DUP5 ADD MSTORE SWAP1 MLOAD PUSH2 0x1AEC SWAP2 PUSH2 0x1AD1 SWAP2 DUP5 SWAP2 ADD PUSH2 0x51E6 JUMP JUMPDEST PUSH1 0x40 MLOAD PUSH1 0x20 DUP2 DUP4 SUB SUB DUP2 MSTORE SWAP1 PUSH1 0x40 MSTORE DUP1 MLOAD SWAP1 PUSH1 0x20 ADD KECCAK256 PUSH2 0x1FD6 JUMP JUMPDEST SWAP2 POP PUSH2 0x1AF7 DUP3 PUSH2 0x2D58 JUMP JUMPDEST PUSH1 0x20 DUP6 ADD MSTORE DUP4 MSTORE PUSH1 0x1 JUMPDEST PUSH2 0x1B0D PUSH1 0x2 PUSH1 0x19 PUSH2 0x522E JUMP JUMPDEST DUP2 LT ISZERO PUSH2 0x1B8D JUMPI PUSH2 0x1B2A DUP4 PUSH1 0x40 MLOAD PUSH1 0x20 ADD PUSH2 0x1AD1 SWAP2 DUP2 MSTORE PUSH1 0x20 ADD SWAP1 JUMP JUMPDEST SWAP3 POP PUSH2 0x1B35 DUP4 PUSH2 0x2D58 JUMP JUMPDEST DUP6 PUSH2 0x1B41 DUP5 PUSH1 0x2 PUSH2 0x5139 JUMP JUMPDEST PUSH1 0x19 DUP2 LT PUSH2 0x1B51 JUMPI PUSH2 0x1B51 PUSH2 0x518A JUMP JUMPDEST PUSH1 0x20 MUL ADD DUP7 PUSH2 0x1B61 DUP6 PUSH1 0x2 PUSH2 0x5139 JUMP JUMPDEST PUSH2 0x1B6C SWAP1 PUSH1 0x1 PUSH2 0x5177 JUMP JUMPDEST PUSH1 0x19 DUP2 LT PUSH2 0x1B7C JUMPI PUSH2 0x1B7C PUSH2 0x518A JUMP JUMPDEST PUSH1 0x20 MUL ADD SWAP2 SWAP1 SWAP2 MSTORE MSTORE PUSH1 0x1 ADD PUSH2 0x1B01 JUMP JUMPDEST POP PUSH2 0x1BA4 DUP3 PUSH1 0x40 MLOAD PUSH1 0x20 ADD PUSH2 0x1AD1 SWAP2 DUP2 MSTORE PUSH1 0x20 ADD SWAP1 JUMP JUMPDEST SWAP2 POP PUSH0 PUSH2 0x1BB0 DUP4 PUSH2 0x2D58 JUMP JUMPDEST DUP6 PUSH2 0x1BBD PUSH1 0x1 PUSH1 0x19 PUSH2 0x519E JUMP JUMPDEST PUSH1 0x19 DUP2 LT PUSH2 0x1BCD JUMPI PUSH2 0x1BCD PUSH2 0x518A JUMP JUMPDEST PUSH1 0x20 MUL ADD SWAP2 SWAP1 SWAP2 MSTORE POP POP POP SWAP3 POP SWAP3 SWAP1 POP JUMP JUMPDEST PUSH2 0x1BE7 PUSH2 0x4ECC JUMP JUMPDEST PUSH0 DUP1 JUMPDEST PUSH1 0x1C DUP2 LT ISZERO PUSH2 0x1C39 JUMPI PUSH2 0x1C09 DUP5 PUSH1 0x40 MLOAD PUSH1 0x20 ADD PUSH2 0x1AD1 SWAP2 DUP2 MSTORE PUSH1 0x20 ADD SWAP1 JUMP JUMPDEST SWAP4 POP PUSH0 PUSH2 0x1C15 DUP6 PUSH2 0x2D58 JUMP JUMPDEST DUP6 DUP5 PUSH1 0x1C DUP2 LT PUSH2 0x1C27 JUMPI PUSH2 0x1C27 PUSH2 0x518A JUMP JUMPDEST PUSH1 0x20 MUL ADD SWAP2 SWAP1 SWAP2 MSTORE POP POP PUSH1 0x1 ADD PUSH2 0x1BEA JUMP JUMPDEST POP SWAP1 SWAP3 SWAP1 POP JUMP JUMPDEST PUSH2 0x1C48 PUSH2 0x4ECC JUMP JUMPDEST PUSH0 DUP1 JUMPDEST PUSH1 0x1C DUP2 LT ISZERO PUSH2 0x1D0B JUMPI PUSH2 0x1C5C PUSH2 0x4EAD JUMP JUMPDEST DUP5 DUP2 MSTORE PUSH0 JUMPDEST PUSH1 0x8 DUP2 LT ISZERO PUSH2 0x1CC5 JUMPI DUP7 PUSH2 0x100 ADD MLOAD DUP4 PUSH1 0x1C DUP2 LT PUSH2 0x1C81 JUMPI PUSH2 0x1C81 PUSH2 0x518A JUMP JUMPDEST PUSH1 0x20 MUL ADD MLOAD DUP2 PUSH1 0x8 DUP2 LT PUSH2 0x1C97 JUMPI PUSH2 0x1C97 PUSH2 0x518A JUMP JUMPDEST PUSH1 0x20 MUL ADD MLOAD DUP3 PUSH2 0x1CA8 DUP4 PUSH1 0x1 PUSH2 0x5177 JUMP JUMPDEST PUSH1 0x9 DUP2 LT PUSH2 0x1CB8 JUMPI PUSH2 0x1CB8 PUSH2 0x518A JUMP JUMPDEST PUSH1 0x20 MUL ADD MSTORE PUSH1 0x1 ADD PUSH2 0x1C61 JUMP JUMPDEST POP PUSH2 0x1CDA DUP2 PUSH1 0x40 MLOAD PUSH1 0x20 ADD PUSH2 0x1AD1 SWAP2 SWAP1 PUSH2 0x51E6 JUMP JUMPDEST SWAP5 POP PUSH0 PUSH2 0x1CE6 DUP7 PUSH2 0x2D58 JUMP JUMPDEST DUP7 DUP6 PUSH1 0x1C DUP2 LT PUSH2 0x1CF8 JUMPI PUSH2 0x1CF8 PUSH2 0x518A JUMP JUMPDEST PUSH1 0x20 MUL ADD SWAP2 SWAP1 SWAP2 MSTORE POP POP POP PUSH1 0x1 ADD PUSH2 0x1C4B JUMP JUMPDEST POP SWAP1 SWAP4 SWAP2 SWAP3 POP POP JUMP JUMPDEST PUSH0 PUSH0 PUSH2 0x1D1E PUSH2 0x4EEB JUMP JUMPDEST DUP4 DUP2 MSTORE PUSH0 JUMPDEST PUSH1 0x28 DUP2 LT ISZERO PUSH2 0x1D71 JUMPI DUP6 PUSH2 0x120 ADD MLOAD DUP2 PUSH1 0x28 DUP2 LT PUSH2 0x1D43 JUMPI PUSH2 0x1D43 PUSH2 0x518A JUMP JUMPDEST PUSH1 0x20 MUL ADD MLOAD DUP3 PUSH2 0x1D54 DUP4 PUSH1 0x1 PUSH2 0x5177 JUMP JUMPDEST PUSH1 0x29 DUP2 LT PUSH2 0x1D64 JUMPI PUSH2 0x1D64 PUSH2 0x518A JUMP JUMPDEST PUSH1 0x20 MUL ADD MSTORE PUSH1 0x1 ADD PUSH2 0x1D23 JUMP JUMPDEST POP PUSH2 0x1D86 DUP2 PUSH1 0x40 MLOAD PUSH1 0x20 ADD PUSH2 0x1AD1 SWAP2 SWAP1 PUSH2 0x5241 JUMP JUMPDEST SWAP2 POP PUSH0 PUSH2 0x1D92 DUP4 PUSH2 0x2D58 JUMP JUMPDEST POP SWAP7 SWAP3 SWAP6 POP SWAP2 SWAP4 POP POP POP POP JUMP JUMPDEST PUSH0 PUSH0 PUSH2 0x1DA9 PUSH2 0x4F0A JUMP JUMPDEST DUP4 DUP2 MSTORE PUSH0 JUMPDEST PUSH2 0x1DBA PUSH1 0x1 PUSH1 0x1C PUSH2 0x519E JUMP JUMPDEST DUP2 LT ISZERO PUSH2 0x1EF8 JUMPI DUP6 PUSH2 0x140 ADD MLOAD DUP2 PUSH1 0x1B DUP2 LT PUSH2 0x1DD8 JUMPI PUSH2 0x1DD8 PUSH2 0x518A JUMP JUMPDEST PUSH1 0x20 MUL ADD MLOAD MLOAD DUP3 PUSH2 0x1DEA DUP4 PUSH1 0x4 PUSH2 0x5139 JUMP JUMPDEST PUSH2 0x1DF5 SWAP1 PUSH1 0x1 PUSH2 0x5177 JUMP JUMPDEST PUSH1 0x6D DUP2 LT PUSH2 0x1E05 JUMPI PUSH2 0x1E05 PUSH2 0x518A JUMP JUMPDEST PUSH1 0x20 MUL ADD MSTORE PUSH2 0x140 DUP7 ADD MLOAD DUP2 PUSH1 0x1B DUP2 LT PUSH2 0x1E21 JUMPI PUSH2 0x1E21 PUSH2 0x518A JUMP JUMPDEST PUSH1 0x20 MUL ADD MLOAD PUSH1 0x20 ADD MLOAD DUP3 DUP3 PUSH1 0x4 PUSH2 0x1E38 SWAP2 SWAP1 PUSH2 0x5139 JUMP JUMPDEST PUSH2 0x1E43 SWAP1 PUSH1 0x2 PUSH2 0x5177 JUMP JUMPDEST PUSH1 0x6D DUP2 LT PUSH2 0x1E53 JUMPI PUSH2 0x1E53 PUSH2 0x518A JUMP JUMPDEST PUSH1 0x20 MUL ADD MSTORE PUSH2 0x140 DUP7 ADD MLOAD DUP2 PUSH1 0x1B DUP2 LT PUSH2 0x1E6F JUMPI PUSH2 0x1E6F PUSH2 0x518A JUMP JUMPDEST PUSH1 0x20 MUL ADD MLOAD PUSH1 0x40 ADD MLOAD DUP3 PUSH2 0x1E84 DUP4 PUSH1 0x4 PUSH2 0x5139 JUMP JUMPDEST PUSH2 0x1E8F SWAP1 PUSH1 0x3 PUSH2 0x5177 JUMP JUMPDEST PUSH1 0x6D DUP2 LT PUSH2 0x1E9F JUMPI PUSH2 0x1E9F PUSH2 0x518A JUMP JUMPDEST PUSH1 0x20 MUL ADD MSTORE PUSH2 0x140 DUP7 ADD MLOAD DUP2 PUSH1 0x1B DUP2 LT PUSH2 0x1EBB JUMPI PUSH2 0x1EBB PUSH2 0x518A JUMP JUMPDEST PUSH1 0x20 MUL ADD MLOAD PUSH1 0x60 ADD MLOAD DUP3 PUSH2 0x1ED0 DUP4 PUSH1 0x4 PUSH2 0x5139 JUMP JUMPDEST PUSH2 0x1EDB SWAP1 PUSH1 0x4 PUSH2 0x5177 JUMP JUMPDEST PUSH1 0x6D DUP2 LT PUSH2 0x1EEB JUMPI PUSH2 0x1EEB PUSH2 0x518A JUMP JUMPDEST PUSH1 0x20 MUL ADD MSTORE PUSH1 0x1 ADD PUSH2 0x1DAE JUMP JUMPDEST POP PUSH2 0x1D86 DUP2 PUSH1 0x40 MLOAD PUSH1 0x20 ADD PUSH2 0x1AD1 SWAP2 SWAP1 PUSH2 0x5275 JUMP JUMPDEST PUSH0 PUSH0 PUSH2 0x1F17 PUSH2 0x4F29 JUMP JUMPDEST DUP4 DUP2 MSTORE PUSH0 JUMPDEST PUSH1 0x1C DUP2 LT ISZERO PUSH2 0x1F6A JUMPI DUP6 PUSH2 0x160 ADD MLOAD DUP2 PUSH1 0x1C DUP2 LT PUSH2 0x1F3C JUMPI PUSH2 0x1F3C PUSH2 0x518A JUMP JUMPDEST PUSH1 0x20 MUL ADD MLOAD DUP3 PUSH2 0x1F4D DUP4 PUSH1 0x1 PUSH2 0x5177 JUMP JUMPDEST PUSH1 0x1D DUP2 LT PUSH2 0x1F5D JUMPI PUSH2 0x1F5D PUSH2 0x518A JUMP JUMPDEST PUSH1 0x20 MUL ADD MSTORE PUSH1 0x1 ADD PUSH2 0x1F1C JUMP JUMPDEST POP PUSH2 0x1D86 DUP2 PUSH1 0x40 MLOAD PUSH1 0x20 ADD PUSH2 0x1AD1 SWAP2 SWAP1 PUSH2 0x52A9 JUMP JUMPDEST PUSH0 PUSH0 PUSH2 0x1F89 PUSH2 0x4F48 JUMP JUMPDEST DUP4 DUP2 MSTORE PUSH2 0x180 DUP6 ADD DUP1 MLOAD MLOAD PUSH1 0x20 DUP1 DUP5 ADD SWAP2 SWAP1 SWAP2 MSTORE DUP2 MLOAD DUP2 ADD MLOAD PUSH1 0x40 DUP1 DUP6 ADD SWAP2 SWAP1 SWAP2 MSTORE DUP3 MLOAD DUP2 ADD MLOAD PUSH1 0x60 DUP1 DUP7 ADD SWAP2 SWAP1 SWAP2 MSTORE SWAP3 MLOAD SWAP1 SWAP3 ADD MLOAD PUSH1 0x80 DUP5 ADD MSTORE SWAP1 MLOAD PUSH2 0x1D86 SWAP2 PUSH2 0x1AD1 SWAP2 DUP5 SWAP2 ADD PUSH2 0x52DD JUMP JUMPDEST PUSH0 PUSH2 0x1FEE PUSH0 MLOAD PUSH1 0x20 PUSH2 0x53FF PUSH0 CODECOPY PUSH0 MLOAD SWAP1 PUSH0 MSTORE DUP4 PUSH2 0x5310 JUMP JUMPDEST SWAP3 SWAP2 POP POP JUMP JUMPDEST PUSH0 PUSH0 MLOAD PUSH1 0x20 PUSH2 0x53FF PUSH0 CODECOPY PUSH0 MLOAD SWAP1 PUSH0 MSTORE DUP3 DUP5 MULMOD SWAP4 SWAP3 POP POP POP JUMP JUMPDEST PUSH0 PUSH0 MLOAD PUSH1 0x20 PUSH2 0x53FF PUSH0 CODECOPY PUSH0 MLOAD SWAP1 PUSH0 MSTORE DUP3 DUP5 ADDMOD SWAP4 SWAP3 POP POP POP JUMP JUMPDEST PUSH0 PUSH0 MLOAD PUSH1 0x20 PUSH2 0x53FF PUSH0 CODECOPY PUSH0 MLOAD SWAP1 PUSH0 MSTORE PUSH2 0x204C DUP4 PUSH0 MLOAD PUSH1 0x20 PUSH2 0x53FF PUSH0 CODECOPY PUSH0 MLOAD SWAP1 PUSH0 MSTORE PUSH2 0x519E JUMP JUMPDEST DUP5 ADDMOD SWAP4 SWAP3 POP POP POP JUMP JUMPDEST PUSH0 PUSH2 0x19BC DUP4 PUSH2 0x543 DUP5 PUSH2 0x232D JUMP JUMPDEST DUP2 MLOAD PUSH0 SWAP1 DUP2 SWAP1 PUSH2 0x2075 SWAP1 DUP6 PUSH1 0x1 PUSH2 0x7B1 JUMP JUMPDEST SWAP3 SWAP1 SWAP3 EQ SWAP4 SWAP3 POP POP POP JUMP JUMPDEST PUSH1 0x40 DUP1 MLOAD PUSH2 0x100 DUP2 ADD DUP3 MSTORE PUSH32 0x30644E72E131A029B85045B68181585D2833E84879B9709143E1F593EFFFEC51 DUP2 MSTORE PUSH2 0x2D0 PUSH1 0x20 DUP3 ADD MSTORE PUSH32 0x30644E72E131A029B85045B68181585D2833E84879B9709143E1F593EFFFFF11 SWAP2 DUP2 ADD SWAP2 SWAP1 SWAP2 MSTORE PUSH1 0x90 PUSH1 0x60 DUP3 ADD MSTORE PUSH32 0x30644E72E131A029B85045B68181585D2833E84879B9709143E1F593EFFFFF71 PUSH1 0x80 DUP3 ADD MSTORE PUSH1 0xF0 PUSH1 0xA0 DUP3 ADD MSTORE PUSH32 0x30644E72E131A029B85045B68181585D2833E84879B9709143E1F593EFFFFD31 PUSH1 0xC0 DUP3 ADD MSTORE PUSH2 0x13B0 PUSH1 0xE0 DUP3 ADD MSTORE PUSH0 SWAP1 PUSH1 0x1 DUP3 JUMPDEST PUSH1 0x8 DUP2 LT ISZERO PUSH2 0x2167 JUMPI PUSH2 0x215D DUP3 PUSH2 0x543 DUP8 DUP5 PUSH2 0x2026 JUMP JUMPDEST SWAP2 POP PUSH1 0x1 ADD PUSH2 0x2146 JUMP JUMPDEST POP PUSH2 0x2170 PUSH2 0x4F66 JUMP JUMPDEST PUSH0 JUMPDEST PUSH1 0x8 DUP2 LT ISZERO PUSH2 0x21D1 JUMPI PUSH0 DUP5 DUP3 PUSH1 0x8 DUP2 LT PUSH2 0x218E JUMPI PUSH2 0x218E PUSH2 0x518A JUMP JUMPDEST PUSH1 0x20 MUL ADD MLOAD SWAP1 POP PUSH2 0x21A3 DUP2 PUSH2 0x543 DUP10 DUP6 PUSH2 0x2026 JUMP JUMPDEST SWAP1 POP PUSH2 0x21AE DUP2 PUSH2 0x232D JUMP JUMPDEST SWAP1 POP DUP1 DUP4 DUP4 PUSH1 0x8 DUP2 LT PUSH2 0x21C3 JUMPI PUSH2 0x21C3 PUSH2 0x518A JUMP JUMPDEST PUSH1 0x20 MUL ADD MSTORE POP PUSH1 0x1 ADD PUSH2 0x2172 JUMP JUMPDEST POP PUSH0 JUMPDEST PUSH1 0x8 DUP2 LT ISZERO PUSH2 0x2224 JUMPI PUSH0 DUP8 DUP3 PUSH1 0x8 DUP2 LT PUSH2 0x21F0 JUMPI PUSH2 0x21F0 PUSH2 0x518A JUMP JUMPDEST PUSH1 0x20 MUL ADD MLOAD SWAP1 POP PUSH2 0x220D DUP2 DUP5 DUP5 PUSH1 0x8 DUP2 LT PUSH2 0xDC8 JUMPI PUSH2 0xDC8 PUSH2 0x518A JUMP JUMPDEST SWAP1 POP PUSH2 0x2219 DUP7 DUP3 PUSH2 0x200D JUMP JUMPDEST SWAP6 POP POP PUSH1 0x1 ADD PUSH2 0x21D4 JUMP JUMPDEST POP PUSH2 0x70C DUP5 DUP4 PUSH2 0x1FF4 JUMP JUMPDEST PUSH0 PUSH0 PUSH2 0x2245 PUSH1 0x1 PUSH2 0x548 DUP6 PUSH2 0x543 DUP10 PUSH1 0x1 PUSH2 0x2026 JUMP JUMPDEST SWAP1 POP PUSH2 0x2251 DUP5 DUP3 PUSH2 0x1FF4 JUMP JUMPDEST SWAP6 SWAP5 POP POP POP POP POP JUMP JUMPDEST PUSH0 PUSH2 0x2263 PUSH2 0x4F85 JUMP JUMPDEST PUSH2 0x226E DUP7 DUP3 DUP6 PUSH2 0x2D91 JUMP JUMPDEST PUSH2 0x227A DUP7 DUP7 DUP4 DUP7 PUSH2 0x2F3D JUMP JUMPDEST PUSH2 0x2286 DUP7 DUP7 DUP4 DUP7 PUSH2 0x3125 JUMP JUMPDEST PUSH2 0x2291 DUP7 DUP3 DUP6 PUSH2 0x3321 JUMP JUMPDEST PUSH2 0x229C DUP7 DUP3 DUP6 PUSH2 0x3509 JUMP JUMPDEST PUSH2 0x22A8 DUP7 DUP7 DUP4 DUP7 PUSH2 0x3852 JUMP JUMPDEST PUSH2 0x22B3 DUP7 DUP3 DUP6 PUSH2 0x40EC JUMP JUMPDEST PUSH2 0x22BE DUP7 DUP3 DUP6 PUSH2 0x44B7 JUMP JUMPDEST PUSH2 0x70C DUP2 DUP6 PUSH2 0x47AC JUMP JUMPDEST PUSH2 0x22D0 PUSH2 0x4ECC JUMP JUMPDEST DUP2 DUP2 MSTORE PUSH1 0x1 JUMPDEST PUSH1 0x1C DUP2 LT ISZERO PUSH2 0x2327 JUMPI PUSH2 0x2308 DUP3 PUSH2 0x22EE PUSH1 0x1 DUP5 PUSH2 0x519E JUMP JUMPDEST PUSH1 0x1C DUP2 LT PUSH2 0x22FE JUMPI PUSH2 0x22FE PUSH2 0x518A JUMP JUMPDEST PUSH1 0x20 MUL ADD MLOAD PUSH2 0x2513 JUMP JUMPDEST DUP3 DUP3 PUSH1 0x1C DUP2 LT PUSH2 0x231A JUMPI PUSH2 0x231A PUSH2 0x518A JUMP JUMPDEST PUSH1 0x20 MUL ADD MSTORE PUSH1 0x1 ADD PUSH2 0x22D6 JUMP JUMPDEST POP SWAP2 SWAP1 POP JUMP JUMPDEST PUSH0 PUSH0 DUP3 SWAP1 POP PUSH0 PUSH1 0x40 MLOAD PUSH1 0x20 DUP2 MSTORE PUSH1 0x20 DUP1 DUP3 ADD MSTORE PUSH1 0x20 PUSH1 0x40 DUP3 ADD MSTORE DUP3 PUSH1 0x60 DUP3 ADD MSTORE PUSH1 0x2 PUSH0 MLOAD PUSH1 0x20 PUSH2 0x53FF PUSH0 CODECOPY PUSH0 MLOAD SWAP1 PUSH0 MSTORE SUB PUSH1 0x80 DUP3 ADD MSTORE PUSH0 MLOAD PUSH1 0x20 PUSH2 0x53FF PUSH0 CODECOPY PUSH0 MLOAD SWAP1 PUSH0 MSTORE PUSH1 0xA0 DUP3 ADD MSTORE PUSH1 0x20 PUSH0 PUSH1 0xC0 DUP4 PUSH1 0x5 GAS STATICCALL SWAP1 POP DUP1 PUSH2 0x238B JUMPI PUSH0 PUSH0 REVERT JUMPDEST POP POP PUSH0 MLOAD SWAP4 SWAP3 POP POP POP JUMP JUMPDEST PUSH1 0x40 DUP1 MLOAD DUP1 DUP3 ADD SWAP1 SWAP2 MSTORE PUSH0 DUP1 DUP3 MSTORE PUSH1 0x20 DUP3 ADD MSTORE PUSH1 0x40 MLOAD DUP1 PUSH1 0x40 ADD PUSH1 0x40 MSTORE DUP1 PUSH1 0x88 DUP5 PUSH1 0x20 ADD MLOAD SWAP1 SHL DUP5 PUSH0 ADD MLOAD OR DUP2 MSTORE PUSH1 0x20 ADD PUSH1 0x88 DUP5 PUSH1 0x60 ADD MLOAD SWAP1 SHL DUP5 PUSH1 0x40 ADD MLOAD OR DUP2 MSTORE POP SWAP1 POP SWAP2 SWAP1 POP JUMP JUMPDEST PUSH0 PUSH2 0x1FEE DUP3 PUSH0 MLOAD PUSH1 0x20 PUSH2 0x53FF PUSH0 CODECOPY PUSH0 MLOAD SWAP1 PUSH0 MSTORE PUSH2 0x519E JUMP JUMPDEST PUSH2 0x2400 PUSH2 0x4ECC JUMP JUMPDEST PUSH1 0x1C JUMPDEST DUP1 ISZERO PUSH2 0x2509 JUMPI PUSH0 DUP5 PUSH2 0x2416 PUSH1 0x1 DUP5 PUSH2 0x519E JUMP JUMPDEST PUSH1 0x1C DUP2 LT PUSH2 0x2426 JUMPI PUSH2 0x2426 PUSH2 0x518A JUMP JUMPDEST PUSH1 0x20 MUL ADD MLOAD SWAP1 POP PUSH0 DUP9 PUSH2 0x243A PUSH1 0x1 DUP6 PUSH2 0x519E JUMP JUMPDEST PUSH1 0x1C DUP2 LT PUSH2 0x244A JUMPI PUSH2 0x244A PUSH2 0x518A JUMP JUMPDEST PUSH1 0x20 MUL ADD MLOAD SWAP1 POP PUSH0 PUSH2 0x24A5 PUSH2 0x2469 PUSH2 0x2462 DUP6 DUP13 PUSH2 0x1FF4 JUMP JUMPDEST PUSH1 0x2 PUSH2 0x1FF4 JUMP JUMPDEST PUSH2 0x566 DUP11 PUSH2 0x2478 PUSH1 0x1 DUP10 PUSH2 0x519E JUMP JUMPDEST PUSH1 0x1C DUP2 LT PUSH2 0x2488 JUMPI PUSH2 0x2488 PUSH2 0x518A JUMP JUMPDEST PUSH1 0x20 MUL ADD MLOAD PUSH2 0x543 PUSH2 0x249F DUP9 PUSH2 0x543 PUSH1 0x1 DUP11 PUSH2 0x2026 JUMP JUMPDEST DUP8 PUSH2 0x2026 JUMP JUMPDEST SWAP1 POP PUSH2 0x24C6 DUP2 PUSH2 0x543 PUSH2 0x797 PUSH2 0x24C0 DUP8 PUSH2 0x543 PUSH1 0x1 DUP10 PUSH2 0x2026 JUMP JUMPDEST DUP7 PUSH2 0x200D JUMP JUMPDEST SWAP1 POP DUP6 DUP5 GT PUSH2 0x24F5 JUMPI SWAP8 POP DUP8 DUP1 DUP6 PUSH2 0x24DF PUSH1 0x1 DUP8 PUSH2 0x519E JUMP JUMPDEST PUSH1 0x1C DUP2 LT PUSH2 0x24EF JUMPI PUSH2 0x24EF PUSH2 0x518A JUMP JUMPDEST PUSH1 0x20 MUL ADD MSTORE JUMPDEST POP POP POP DUP1 PUSH2 0x2502 SWAP1 PUSH2 0x5323 JUMP JUMPDEST SWAP1 POP PUSH2 0x2403 JUMP JUMPDEST POP SWAP6 SWAP5 POP POP POP POP POP JUMP JUMPDEST PUSH0 PUSH2 0x1FEE DUP3 DUP4 PUSH2 0x1FF4 JUMP JUMPDEST PUSH1 0x40 DUP1 MLOAD DUP1 DUP3 ADD SWAP1 SWAP2 MSTORE PUSH0 DUP1 DUP3 MSTORE PUSH1 0x20 DUP3 ADD MSTORE PUSH0 PUSH2 0x253E PUSH1 0x1C PUSH1 0x28 PUSH2 0x5177 JUMP JUMPDEST PUSH2 0x2549 SWAP1 PUSH1 0x2 PUSH2 0x5177 JUMP JUMPDEST SWAP1 POP PUSH1 0x1 PUSH1 0x40 MLOAD DUP6 MLOAD MLOAD PUSH1 0x40 DUP3 ADD MSTORE DUP6 MLOAD PUSH1 0x20 ADD MLOAD PUSH1 0x60 DUP3 ADD MSTORE DUP5 MLOAD PUSH1 0x80 DUP3 ADD MSTORE PUSH1 0x40 DUP2 PUSH1 0x60 PUSH1 0x40 DUP5 ADD PUSH1 0x7 GAS STATICCALL DUP3 AND SWAP2 POP PUSH1 0x1 JUMPDEST DUP4 DUP2 LT ISZERO PUSH2 0x25D7 JUMPI PUSH1 0x20 DUP2 MUL DUP8 ADD PUSH1 0x20 DUP3 MUL DUP8 ADD DUP2 MLOAD MLOAD PUSH1 0x40 DUP6 ADD MSTORE DUP2 MLOAD PUSH1 0x20 ADD MLOAD PUSH1 0x60 DUP6 ADD MSTORE DUP1 MLOAD PUSH1 0x80 DUP6 ADD MSTORE POP POP PUSH1 0x40 DUP1 DUP4 ADD PUSH1 0x60 PUSH1 0x40 DUP6 ADD PUSH1 0x7 GAS STATICCALL DUP4 AND SWAP3 POP PUSH1 0x40 DUP3 PUSH1 0x80 DUP5 PUSH1 0x6 GAS STATICCALL SWAP1 SWAP3 AND SWAP2 PUSH1 0x1 ADD PUSH2 0x257E JUMP JUMPDEST POP DUP1 MLOAD DUP5 MSTORE PUSH1 0x20 DUP2 ADD MLOAD PUSH1 0x20 DUP6 ADD MSTORE POP POP POP SWAP3 SWAP2 POP POP JUMP JUMPDEST PUSH1 0x40 DUP1 MLOAD DUP1 DUP3 ADD SWAP1 SWAP2 MSTORE PUSH0 DUP1 DUP3 MSTORE PUSH1 0x20 DUP3 ADD MSTORE PUSH32 0x30644E72E131A029B85045B68181585D97816A916871CA8D3C208C16D87CFD47 DUP3 PUSH1 0x20 ADD MLOAD PUSH32 0x30644E72E131A029B85045B68181585D97816A916871CA8D3C208C16D87CFD47 PUSH2 0x2653 SWAP2 SWAP1 PUSH2 0x519E JUMP JUMPDEST PUSH2 0x265D SWAP2 SWAP1 PUSH2 0x5310 JUMP JUMPDEST PUSH1 0x20 DUP4 ADD MSTORE POP SWAP1 JUMP JUMPDEST DUP2 MLOAD PUSH1 0x20 DUP1 DUP5 ADD MLOAD DUP4 MLOAD DUP5 DUP4 ADD MLOAD PUSH1 0x40 DUP1 MLOAD SWAP5 DUP6 ADD SWAP6 SWAP1 SWAP6 MSTORE SWAP4 DUP4 ADD SWAP2 SWAP1 SWAP2 MSTORE PUSH32 0x198E9393920D483A7260BFB731FB5D25F1AA493335A9E71297E485B7AEF312C2 PUSH1 0x60 DUP4 ADD MSTORE PUSH32 0x1800DEEF121F1E76426A00665E5C4479674322D4F75EDADD46DEBD5CD992F6ED PUSH1 0x80 DUP4 ADD MSTORE PUSH32 0x90689D0585FF075EC9E99AD690C3395BC4B313370B38EF355ACDADCD122975B PUSH1 0xA0 DUP4 ADD MSTORE PUSH32 0x12C85EA5DB8C6DEB4AAB71808DCB408FE3D1E7690C43D37B4CE6CC0166FA7DAA PUSH1 0xC0 DUP4 ADD MSTORE PUSH1 0xE0 DUP3 ADD MSTORE PUSH2 0x100 DUP2 ADD SWAP2 SWAP1 SWAP2 MSTORE PUSH32 0x260E01B251F6F1C7E7FF4E580791DEE8EA51D87A358E038B4EFE30FAC09383C1 PUSH2 0x120 DUP3 ADD MSTORE PUSH32 0x118C4D5B837BCC2BC89B5B398B5974E9F5944073B32078B7E231FEC938883B0 PUSH2 0x140 DUP3 ADD MSTORE PUSH32 0x4FC6369F7110FE3D25156C1BB9A72859CF2A04641F99BA4EE413C80DA6A5FE4 PUSH2 0x160 DUP3 ADD MSTORE PUSH32 0x22FEBDA3C0C0632A56475B4214E5615E11E6DD3F96E6CEA2854A87D4DACC5E55 PUSH2 0x180 DUP3 ADD MSTORE PUSH0 SWAP1 DUP2 SWAP1 PUSH2 0x1A0 ADD PUSH1 0x40 MLOAD PUSH1 0x20 DUP2 DUP4 SUB SUB DUP2 MSTORE SWAP1 PUSH1 0x40 MSTORE SWAP1 POP PUSH0 PUSH0 PUSH1 0x8 PUSH1 0x1 PUSH1 0x1 PUSH1 0xA0 SHL SUB AND DUP4 PUSH1 0x40 MLOAD PUSH2 0x27FC SWAP2 SWAP1 PUSH2 0x5338 JUMP JUMPDEST PUSH0 PUSH1 0x40 MLOAD DUP1 DUP4 SUB DUP2 DUP6 GAS STATICCALL SWAP2 POP POP RETURNDATASIZE DUP1 PUSH0 DUP2 EQ PUSH2 0x2834 JUMPI PUSH1 0x40 MLOAD SWAP2 POP PUSH1 0x1F NOT PUSH1 0x3F RETURNDATASIZE ADD AND DUP3 ADD PUSH1 0x40 MSTORE RETURNDATASIZE DUP3 MSTORE RETURNDATASIZE PUSH0 PUSH1 0x20 DUP5 ADD RETURNDATACOPY PUSH2 0x2839 JUMP JUMPDEST PUSH1 0x60 SWAP2 POP JUMPDEST POP SWAP2 POP SWAP2 POP PUSH0 DUP2 DUP1 PUSH1 0x20 ADD SWAP1 MLOAD DUP2 ADD SWAP1 PUSH2 0x2853 SWAP2 SWAP1 PUSH2 0x534E JUMP JUMPDEST SWAP1 POP DUP3 DUP1 ISZERO PUSH2 0x285F JUMPI POP DUP1 JUMPDEST SWAP8 SWAP7 POP POP POP POP POP POP POP JUMP JUMPDEST PUSH0 DUP1 DUP1 DUP1 DUP1 PUSH2 0x287A DUP8 PUSH1 0x3 PUSH2 0x5177 JUMP JUMPDEST PUSH2 0x2885 SWAP1 PUSH1 0xC PUSH2 0x5177 JUMP JUMPDEST PUSH8 0xFFFFFFFFFFFFFFFF DUP2 GT ISZERO PUSH2 0x289D JUMPI PUSH2 0x289D PUSH2 0x536D JUMP JUMPDEST PUSH1 0x40 MLOAD SWAP1 DUP1 DUP3 MSTORE DUP1 PUSH1 0x20 MUL PUSH1 0x20 ADD DUP3 ADD PUSH1 0x40 MSTORE DUP1 ISZERO PUSH2 0x28C6 JUMPI DUP2 PUSH1 0x20 ADD PUSH1 0x20 DUP3 MUL DUP1 CALLDATASIZE DUP4 CALLDATACOPY ADD SWAP1 POP JUMPDEST POP SWAP1 POP DUP8 PUSH0 SHL DUP2 PUSH0 DUP2 MLOAD DUP2 LT PUSH2 0x28DE JUMPI PUSH2 0x28DE PUSH2 0x518A JUMP JUMPDEST PUSH1 0x20 MUL PUSH1 0x20 ADD ADD DUP2 DUP2 MSTORE POP POP DUP7 PUSH0 SHL DUP2 PUSH1 0x1 DUP2 MLOAD DUP2 LT PUSH2 0x2900 JUMPI PUSH2 0x2900 PUSH2 0x518A JUMP JUMPDEST PUSH1 0x20 MUL PUSH1 0x20 ADD ADD DUP2 DUP2 MSTORE POP POP DUP6 PUSH0 SHL DUP2 PUSH1 0x2 DUP2 MLOAD DUP2 LT PUSH2 0x2922 JUMPI PUSH2 0x2922 PUSH2 0x518A JUMP JUMPDEST PUSH1 0x20 SWAP1 DUP2 MUL SWAP2 SWAP1 SWAP2 ADD ADD MSTORE PUSH0 JUMPDEST DUP8 DUP2 LT ISZERO PUSH2 0x2981 JUMPI DUP11 DUP11 DUP3 DUP2 DUP2 LT PUSH2 0x2949 JUMPI PUSH2 0x2949 PUSH2 0x518A JUMP JUMPDEST SWAP1 POP PUSH1 0x20 MUL ADD CALLDATALOAD DUP3 DUP3 PUSH1 0x3 PUSH2 0x295E SWAP2 SWAP1 PUSH2 0x5177 JUMP JUMPDEST DUP2 MLOAD DUP2 LT PUSH2 0x296E JUMPI PUSH2 0x296E PUSH2 0x518A JUMP JUMPDEST PUSH1 0x20 SWAP1 DUP2 MUL SWAP2 SWAP1 SWAP2 ADD ADD MSTORE PUSH1 0x1 ADD PUSH2 0x292F JUMP JUMPDEST POP DUP11 MLOAD MLOAD DUP2 PUSH2 0x2991 DUP10 PUSH1 0x3 PUSH2 0x5177 JUMP JUMPDEST DUP2 MLOAD DUP2 LT PUSH2 0x29A1 JUMPI PUSH2 0x29A1 PUSH2 0x518A JUMP JUMPDEST PUSH1 0x20 SWAP1 DUP2 MUL SWAP2 SWAP1 SWAP2 ADD DUP2 ADD SWAP2 SWAP1 SWAP2 MSTORE DUP12 MLOAD ADD MLOAD DUP2 PUSH2 0x29C0 DUP10 PUSH1 0x3 PUSH2 0x5177 JUMP JUMPDEST PUSH2 0x29CB SWAP1 PUSH1 0x1 PUSH2 0x5177 JUMP JUMPDEST DUP2 MLOAD DUP2 LT PUSH2 0x29DB JUMPI PUSH2 0x29DB PUSH2 0x518A JUMP JUMPDEST PUSH1 0x20 SWAP1 DUP2 MUL SWAP2 SWAP1 SWAP2 ADD ADD MSTORE DUP11 MLOAD PUSH1 0x40 ADD MLOAD DUP2 PUSH2 0x29F8 DUP10 PUSH1 0x3 PUSH2 0x5177 JUMP JUMPDEST PUSH2 0x2A03 SWAP1 PUSH1 0x2 PUSH2 0x5177 JUMP JUMPDEST DUP2 MLOAD DUP2 LT PUSH2 0x2A13 JUMPI PUSH2 0x2A13 PUSH2 0x518A JUMP JUMPDEST PUSH1 0x20 SWAP1 DUP2 MUL SWAP2 SWAP1 SWAP2 ADD ADD MSTORE DUP11 MLOAD PUSH1 0x60 ADD MLOAD DUP2 PUSH2 0x2A30 DUP10 PUSH1 0x3 PUSH2 0x5177 JUMP JUMPDEST PUSH2 0x2A3B SWAP1 PUSH1 0x3 PUSH2 0x5177 JUMP JUMPDEST DUP2 MLOAD DUP2 LT PUSH2 0x2A4B JUMPI PUSH2 0x2A4B PUSH2 0x518A JUMP JUMPDEST PUSH1 0x20 SWAP1 DUP2 MUL SWAP2 SWAP1 SWAP2 ADD DUP2 ADD SWAP2 SWAP1 SWAP2 MSTORE DUP12 ADD MLOAD MLOAD DUP2 PUSH2 0x2A6A DUP10 PUSH1 0x3 PUSH2 0x5177 JUMP JUMPDEST PUSH2 0x2A75 SWAP1 PUSH1 0x4 PUSH2 0x5177 JUMP JUMPDEST DUP2 MLOAD DUP2 LT PUSH2 0x2A85 JUMPI PUSH2 0x2A85 PUSH2 0x518A JUMP JUMPDEST PUSH1 0x20 SWAP1 DUP2 MUL SWAP2 SWAP1 SWAP2 ADD DUP2 ADD SWAP2 SWAP1 SWAP2 MSTORE DUP12 DUP2 ADD MLOAD ADD MLOAD DUP2 PUSH2 0x2AA6 DUP10 PUSH1 0x3 PUSH2 0x5177 JUMP JUMPDEST PUSH2 0x2AB1 SWAP1 PUSH1 0x5 PUSH2 0x5177 JUMP JUMPDEST DUP2 MLOAD DUP2 LT PUSH2 0x2AC1 JUMPI PUSH2 0x2AC1 PUSH2 0x518A JUMP JUMPDEST PUSH1 0x20 SWAP1 DUP2 MUL SWAP2 SWAP1 SWAP2 ADD DUP2 ADD SWAP2 SWAP1 SWAP2 MSTORE DUP12 ADD MLOAD PUSH1 0x40 ADD MLOAD DUP2 PUSH2 0x2AE3 DUP10 PUSH1 0x3 PUSH2 0x5177 JUMP JUMPDEST PUSH2 0x2AEE SWAP1 PUSH1 0x6 PUSH2 0x5177 JUMP JUMPDEST DUP2 MLOAD DUP2 LT PUSH2 0x2AFE JUMPI PUSH2 0x2AFE PUSH2 0x518A JUMP JUMPDEST PUSH1 0x20 SWAP1 DUP2 MUL SWAP2 SWAP1 SWAP2 ADD DUP2 ADD SWAP2 SWAP1 SWAP2 MSTORE DUP12 ADD MLOAD PUSH1 0x60 ADD MLOAD DUP2 PUSH2 0x2B20 DUP10 PUSH1 0x3 PUSH2 0x5177 JUMP JUMPDEST PUSH2 0x2B2B SWAP1 PUSH1 0x7 PUSH2 0x5177 JUMP JUMPDEST DUP2 MLOAD DUP2 LT PUSH2 0x2B3B JUMPI PUSH2 0x2B3B PUSH2 0x518A JUMP JUMPDEST PUSH1 0x20 SWAP1 DUP2 MUL SWAP2 SWAP1 SWAP2 ADD ADD MSTORE PUSH1 0x40 DUP12 ADD MLOAD MLOAD DUP2 PUSH2 0x2B58 DUP10 PUSH1 0x3 PUSH2 0x5177 JUMP JUMPDEST PUSH2 0x2B63 SWAP1 PUSH1 0x8 PUSH2 0x5177 JUMP JUMPDEST DUP2 MLOAD DUP2 LT PUSH2 0x2B73 JUMPI PUSH2 0x2B73 PUSH2 0x518A JUMP JUMPDEST PUSH1 0x20 SWAP1 DUP2 MUL SWAP2 SWAP1 SWAP2 ADD DUP2 ADD SWAP2 SWAP1 SWAP2 MSTORE PUSH1 0x40 DUP13 ADD MLOAD ADD MLOAD DUP2 PUSH2 0x2B95 DUP10 PUSH1 0x3 PUSH2 0x5177 JUMP JUMPDEST PUSH2 0x2BA0 SWAP1 PUSH1 0x9 PUSH2 0x5177 JUMP JUMPDEST DUP2 MLOAD DUP2 LT PUSH2 0x2BB0 JUMPI PUSH2 0x2BB0 PUSH2 0x518A JUMP JUMPDEST PUSH1 0x20 SWAP1 DUP2 MUL SWAP2 SWAP1 SWAP2 ADD ADD MSTORE PUSH1 0x40 DUP1 DUP13 ADD MLOAD ADD MLOAD DUP2 PUSH2 0x2BCF DUP10 PUSH1 0x3 PUSH2 0x5177 JUMP JUMPDEST PUSH2 0x2BDA SWAP1 PUSH1 0xA PUSH2 0x5177 JUMP JUMPDEST DUP2 MLOAD DUP2 LT PUSH2 0x2BEA JUMPI PUSH2 0x2BEA PUSH2 0x518A JUMP JUMPDEST PUSH1 0x20 SWAP1 DUP2 MUL SWAP2 SWAP1 SWAP2 ADD ADD MSTORE PUSH1 0x40 DUP12 ADD MLOAD PUSH1 0x60 ADD MLOAD DUP2 PUSH2 0x2C0A DUP10 PUSH1 0x3 PUSH2 0x5177 JUMP JUMPDEST PUSH2 0x2C15 SWAP1 PUSH1 0xB PUSH2 0x5177 JUMP JUMPDEST DUP2 MLOAD DUP2 LT PUSH2 0x2C25 JUMPI PUSH2 0x2C25 PUSH2 0x518A JUMP JUMPDEST PUSH1 0x20 MUL PUSH1 0x20 ADD ADD DUP2 DUP2 MSTORE POP POP PUSH2 0x2C45 DUP2 PUSH1 0x40 MLOAD PUSH1 0x20 ADD PUSH2 0x1AD1 SWAP2 SWAP1 PUSH2 0x5381 JUMP JUMPDEST SWAP2 POP PUSH2 0x2C50 DUP3 PUSH2 0x2D58 JUMP JUMPDEST PUSH1 0x40 DUP1 MLOAD PUSH1 0x20 DUP2 ADD DUP7 SWAP1 MSTORE SWAP3 SWAP8 POP SWAP1 SWAP6 POP PUSH2 0x2C6B SWAP2 ADD PUSH2 0x1AD1 JUMP JUMPDEST SWAP2 POP PUSH0 PUSH2 0x2C77 DUP4 PUSH2 0x2D58 JUMP JUMPDEST POP SWAP6 SWAP13 SWAP5 SWAP12 POP SWAP5 SWAP10 POP SWAP1 SWAP8 POP SWAP2 SWAP6 POP POP POP POP POP POP JUMP JUMPDEST PUSH0 PUSH0 PUSH0 PUSH2 0x2C98 PUSH2 0x4FA4 JUMP JUMPDEST DUP6 DUP2 MSTORE PUSH1 0xA0 DUP6 DUP2 ADD DUP1 MLOAD MLOAD PUSH1 0x20 DUP1 DUP6 ADD SWAP2 SWAP1 SWAP2 MSTORE DUP2 MLOAD DUP2 ADD MLOAD PUSH1 0x40 DUP1 DUP7 ADD SWAP2 SWAP1 SWAP2 MSTORE DUP3 MLOAD DUP2 ADD MLOAD PUSH1 0x60 DUP1 DUP8 ADD SWAP2 SWAP1 SWAP2 MSTORE SWAP3 MLOAD DUP4 ADD MLOAD PUSH1 0x80 DUP7 ADD MSTORE PUSH1 0xC0 DUP1 DUP11 ADD DUP1 MLOAD MLOAD SWAP6 DUP8 ADD SWAP6 SWAP1 SWAP6 MSTORE DUP5 MLOAD DUP4 ADD MLOAD SWAP1 DUP7 ADD MSTORE DUP4 MLOAD DUP2 ADD MLOAD PUSH1 0xE0 DUP7 ADD MSTORE SWAP3 MLOAD DUP3 ADD MLOAD PUSH2 0x100 DUP6 ADD MSTORE DUP2 DUP9 ADD DUP1 MLOAD MLOAD PUSH2 0x120 DUP7 ADD MSTORE DUP1 MLOAD DUP3 ADD MLOAD PUSH2 0x140 DUP7 ADD MSTORE DUP1 MLOAD DUP5 ADD MLOAD PUSH2 0x160 DUP7 ADD MSTORE MLOAD SWAP1 SWAP2 ADD MLOAD PUSH2 0x180 DUP5 ADD MSTORE SWAP1 MLOAD PUSH2 0x2D3E SWAP2 PUSH2 0x1AD1 SWAP2 DUP5 SWAP2 ADD PUSH2 0x53B6 JUMP JUMPDEST SWAP2 POP PUSH2 0x2D49 DUP3 PUSH2 0x2D58 JUMP JUMPDEST SWAP1 SWAP8 SWAP1 SWAP7 POP SWAP2 SWAP5 POP SWAP1 SWAP3 POP POP POP JUMP JUMPDEST PUSH0 DUP1 DUP3 PUSH16 0xFFFFFFFFFFFFFFFFFFFFFFFFFFFFFFFF DUP2 AND PUSH1 0x80 DUP3 SWAP1 SHR PUSH2 0x2D7C DUP3 PUSH2 0x1FD6 JUMP JUMPDEST SWAP5 POP PUSH2 0x2D87 DUP2 PUSH2 0x1FD6 JUMP JUMPDEST SWAP4 POP POP POP POP SWAP2 POP SWAP2 JUMP JUMPDEST PUSH0 PUSH2 0x2D9D DUP5 PUSH1 0x7 PUSH2 0x4811 JUMP JUMPDEST SWAP1 POP PUSH32 0x183227397098D014DC2822DB40C0AC2E9419F4243CDCB848A1F0FAC9F8000000 PUSH0 PUSH2 0x2DFE PUSH2 0x2DF8 PUSH2 0x2DD2 DUP6 PUSH1 0x3 PUSH2 0x2026 JUMP JUMPDEST PUSH2 0x543 PUSH2 0x2DED PUSH2 0x2DE2 DUP12 PUSH0 PUSH2 0x4811 JUMP JUMPDEST PUSH2 0x543 DUP13 PUSH1 0x1C PUSH2 0x4811 JUMP JUMPDEST PUSH2 0x543 DUP12 PUSH1 0x1B PUSH2 0x4811 JUMP JUMPDEST DUP4 PUSH2 0x1FF4 JUMP JUMPDEST SWAP1 POP PUSH2 0x2E7F PUSH2 0x2E74 PUSH2 0x2E5B PUSH2 0x2E42 PUSH2 0x2E29 DUP6 PUSH2 0x548 PUSH2 0x2E1E DUP14 PUSH1 0x2 PUSH2 0x4811 JUMP JUMPDEST PUSH2 0x543 DUP15 PUSH1 0x1B PUSH2 0x4811 JUMP JUMPDEST PUSH2 0x548 PUSH2 0x2E37 DUP13 PUSH1 0x3 PUSH2 0x4811 JUMP JUMPDEST PUSH2 0x543 DUP14 PUSH1 0x1C PUSH2 0x4811 JUMP JUMPDEST PUSH2 0x548 PUSH2 0x2E50 DUP12 PUSH1 0x4 PUSH2 0x4811 JUMP JUMPDEST PUSH2 0x543 DUP13 PUSH1 0x1D PUSH2 0x4811 JUMP JUMPDEST PUSH2 0x548 PUSH2 0x2E69 DUP11 PUSH1 0x5 PUSH2 0x4811 JUMP JUMPDEST PUSH2 0x543 DUP12 PUSH1 0x1E PUSH2 0x4811 JUMP JUMPDEST PUSH2 0x548 DUP9 PUSH1 0x1 PUSH2 0x4811 JUMP JUMPDEST SWAP1 POP PUSH2 0x2E9E DUP2 PUSH2 0x548 PUSH2 0x2E93 DUP7 PUSH1 0x1 PUSH2 0x2026 JUMP JUMPDEST PUSH2 0x543 DUP11 PUSH1 0x26 PUSH2 0x4811 JUMP JUMPDEST SWAP1 POP PUSH2 0x2EAA DUP2 DUP5 PUSH2 0x1FF4 JUMP JUMPDEST SWAP1 POP PUSH2 0x2EB6 DUP2 DUP6 PUSH2 0x1FF4 JUMP JUMPDEST DUP6 MSTORE POP PUSH0 SWAP1 POP PUSH2 0x2EF0 PUSH2 0x2EE6 PUSH2 0x2EDB PUSH2 0x2ED0 DUP9 PUSH1 0x1B PUSH2 0x4811 JUMP JUMPDEST PUSH2 0x548 DUP10 PUSH1 0x1E PUSH2 0x4811 JUMP JUMPDEST PUSH2 0x566 DUP9 PUSH1 0x23 PUSH2 0x4811 JUMP JUMPDEST PUSH2 0x548 DUP8 PUSH0 PUSH2 0x4811 JUMP JUMPDEST SWAP1 POP PUSH2 0x2F01 DUP2 PUSH2 0x543 DUP5 PUSH1 0x2 PUSH2 0x2026 JUMP JUMPDEST SWAP1 POP PUSH2 0x2F12 DUP2 PUSH2 0x543 DUP5 PUSH1 0x1 PUSH2 0x2026 JUMP JUMPDEST SWAP1 POP PUSH2 0x2F1E DUP2 DUP4 PUSH2 0x1FF4 JUMP JUMPDEST SWAP1 POP PUSH2 0x2F2A DUP2 DUP5 PUSH2 0x1FF4 JUMP JUMPDEST SWAP1 POP DUP1 DUP5 PUSH1 0x1 JUMPDEST PUSH1 0x20 MUL ADD MSTORE POP POP POP POP POP JUMP JUMPDEST PUSH0 PUSH0 PUSH0 PUSH2 0x2F73 PUSH2 0x2F69 PUSH2 0x2F51 DUP10 PUSH1 0x1B PUSH2 0x4811 JUMP JUMPDEST PUSH2 0x548 PUSH2 0x2F5F DUP12 PUSH1 0x11 PUSH2 0x4811 JUMP JUMPDEST DUP11 PUSH1 0x60 ADD MLOAD PUSH2 0x1FF4 JUMP JUMPDEST DUP8 PUSH1 0x80 ADD MLOAD PUSH2 0x200D JUMP JUMPDEST SWAP1 POP PUSH2 0x2FAC DUP2 PUSH2 0x543 PUSH2 0x2FA2 PUSH2 0x2F8A DUP12 PUSH1 0x1C PUSH2 0x4811 JUMP JUMPDEST PUSH2 0x548 PUSH2 0x2F98 DUP14 PUSH1 0x12 PUSH2 0x4811 JUMP JUMPDEST DUP13 PUSH1 0x60 ADD MLOAD PUSH2 0x1FF4 JUMP JUMPDEST DUP10 PUSH1 0x80 ADD MLOAD PUSH2 0x200D JUMP JUMPDEST SWAP1 POP PUSH2 0x2FD1 DUP2 PUSH2 0x543 PUSH2 0x2FA2 PUSH2 0x2FC3 DUP12 PUSH1 0x1D PUSH2 0x4811 JUMP JUMPDEST PUSH2 0x548 PUSH2 0x2F98 DUP14 PUSH1 0x13 PUSH2 0x4811 JUMP JUMPDEST SWAP1 POP PUSH2 0x2FF6 DUP2 PUSH2 0x543 PUSH2 0x2FA2 PUSH2 0x2FE8 DUP12 PUSH1 0x1E PUSH2 0x4811 JUMP JUMPDEST PUSH2 0x548 PUSH2 0x2F98 DUP14 PUSH1 0x14 PUSH2 0x4811 JUMP JUMPDEST SWAP3 POP PUSH0 SWAP1 POP PUSH2 0x301A PUSH2 0x2F69 PUSH2 0x300C DUP10 PUSH1 0x1B PUSH2 0x4811 JUMP JUMPDEST PUSH2 0x548 PUSH2 0x2F5F DUP12 PUSH1 0xD PUSH2 0x4811 JUMP JUMPDEST SWAP1 POP PUSH2 0x303F DUP2 PUSH2 0x543 PUSH2 0x2FA2 PUSH2 0x3031 DUP12 PUSH1 0x1C PUSH2 0x4811 JUMP JUMPDEST PUSH2 0x548 PUSH2 0x2F98 DUP14 PUSH1 0xE PUSH2 0x4811 JUMP JUMPDEST SWAP1 POP PUSH2 0x3064 DUP2 PUSH2 0x543 PUSH2 0x2FA2 PUSH2 0x3056 DUP12 PUSH1 0x1D PUSH2 0x4811 JUMP JUMPDEST PUSH2 0x548 PUSH2 0x2F98 DUP14 PUSH1 0xF PUSH2 0x4811 JUMP JUMPDEST SWAP1 POP PUSH2 0x3089 DUP2 PUSH2 0x543 PUSH2 0x2FA2 PUSH2 0x307B DUP12 PUSH1 0x1E PUSH2 0x4811 JUMP JUMPDEST PUSH2 0x548 PUSH2 0x2F98 DUP14 PUSH1 0x10 PUSH2 0x4811 JUMP JUMPDEST SWAP2 POP PUSH0 SWAP1 POP PUSH2 0x30B0 PUSH2 0x30AA PUSH2 0x309F DUP10 PUSH1 0x1F PUSH2 0x4811 JUMP JUMPDEST PUSH2 0x548 DUP11 PUSH1 0x19 PUSH2 0x4811 JUMP JUMPDEST DUP5 PUSH2 0x1FF4 JUMP JUMPDEST SWAP1 POP PUSH2 0x30E5 DUP2 PUSH2 0x566 PUSH2 0x30DF PUSH2 0x30C7 DUP12 PUSH1 0x27 PUSH2 0x4811 JUMP JUMPDEST PUSH2 0x548 PUSH2 0x30D5 DUP14 PUSH1 0x1A PUSH2 0x4811 JUMP JUMPDEST DUP13 PUSH1 0xA0 ADD MLOAD PUSH2 0x1FF4 JUMP JUMPDEST DUP6 PUSH2 0x1FF4 JUMP JUMPDEST SWAP1 POP PUSH2 0x30F1 DUP2 DUP6 PUSH2 0x1FF4 JUMP JUMPDEST PUSH1 0x40 DUP7 ADD MSTORE POP PUSH0 PUSH2 0x3114 PUSH2 0x30DF PUSH2 0x3109 DUP10 PUSH1 0x1A PUSH2 0x4811 JUMP JUMPDEST PUSH2 0x543 DUP11 PUSH1 0x27 PUSH2 0x4811 JUMP JUMPDEST PUSH1 0x60 SWAP1 SWAP6 ADD SWAP5 SWAP1 SWAP5 MSTORE POP POP POP POP POP POP JUMP JUMPDEST PUSH0 PUSH0 PUSH2 0x3183 PUSH2 0x316B PUSH2 0x3153 PUSH2 0x313E PUSH2 0x2FA2 DUP11 PUSH1 0x15 PUSH2 0x4811 JUMP JUMPDEST PUSH2 0x548 PUSH2 0x314C DUP12 PUSH1 0x16 PUSH2 0x4811 JUMP JUMPDEST DUP11 MLOAD PUSH2 0x1FF4 JUMP JUMPDEST PUSH2 0x548 PUSH2 0x3161 DUP11 PUSH1 0x17 PUSH2 0x4811 JUMP JUMPDEST DUP10 PUSH1 0x20 ADD MLOAD PUSH2 0x1FF4 JUMP JUMPDEST PUSH2 0x548 PUSH2 0x3179 DUP10 PUSH1 0x18 PUSH2 0x4811 JUMP JUMPDEST DUP9 PUSH1 0x40 ADD MLOAD PUSH2 0x1FF4 JUMP JUMPDEST SWAP2 POP PUSH0 PUSH2 0x31BA PUSH2 0x31A1 PUSH2 0x3197 DUP10 PUSH1 0x1B PUSH2 0x4811 JUMP JUMPDEST DUP9 PUSH1 0x80 ADD MLOAD PUSH2 0x200D JUMP JUMPDEST PUSH2 0x548 PUSH2 0x31AF DUP11 PUSH1 0x3 PUSH2 0x4811 JUMP JUMPDEST PUSH2 0x543 DUP12 PUSH1 0x23 PUSH2 0x4811 JUMP JUMPDEST SWAP1 POP PUSH0 PUSH2 0x31E3 PUSH2 0x31CB DUP10 PUSH1 0x1C PUSH2 0x4811 JUMP JUMPDEST PUSH2 0x548 PUSH2 0x31D8 DUP12 PUSH0 PUSH2 0x4811 JUMP JUMPDEST PUSH2 0x543 DUP13 PUSH1 0x24 PUSH2 0x4811 JUMP JUMPDEST SWAP1 POP PUSH0 PUSH2 0x320D PUSH2 0x31F4 DUP11 PUSH1 0x1D PUSH2 0x4811 JUMP JUMPDEST PUSH2 0x548 PUSH2 0x3202 DUP13 PUSH1 0x1 PUSH2 0x4811 JUMP JUMPDEST PUSH2 0x543 DUP14 PUSH1 0x25 PUSH2 0x4811 JUMP JUMPDEST SWAP1 POP PUSH2 0x324C PUSH2 0x3234 PUSH2 0x3226 DUP6 PUSH2 0x548 DUP7 DUP14 PUSH0 ADD MLOAD PUSH2 0x1FF4 JUMP JUMPDEST PUSH2 0x548 DUP5 DUP13 PUSH1 0x20 ADD MLOAD PUSH2 0x1FF4 JUMP JUMPDEST PUSH2 0x548 PUSH2 0x3242 DUP13 PUSH1 0x4 PUSH2 0x4811 JUMP JUMPDEST DUP12 PUSH1 0x40 ADD MLOAD PUSH2 0x1FF4 JUMP JUMPDEST SWAP4 POP POP POP POP PUSH0 PUSH2 0x3260 PUSH2 0x30AA DUP9 PUSH1 0x20 PUSH2 0x4811 JUMP JUMPDEST SWAP1 POP PUSH0 PUSH2 0x3271 PUSH2 0x30AA DUP10 PUSH1 0x20 PUSH2 0x4811 JUMP JUMPDEST SWAP1 POP PUSH0 PUSH2 0x32A9 PUSH2 0x3290 PUSH2 0x3285 DUP12 PUSH1 0x22 PUSH2 0x4811 JUMP JUMPDEST PUSH2 0x548 DUP13 PUSH1 0x6 PUSH2 0x4811 JUMP JUMPDEST PUSH2 0x566 PUSH2 0x329E DUP13 PUSH1 0x22 PUSH2 0x4811 JUMP JUMPDEST PUSH2 0x543 DUP14 PUSH1 0x6 PUSH2 0x4811 JUMP JUMPDEST SWAP1 POP PUSH0 PUSH2 0x32CD PUSH2 0x32C7 PUSH2 0x32BC DUP8 DUP10 PUSH2 0x1FF4 JUMP JUMPDEST PUSH2 0x543 DUP14 PUSH1 0x20 PUSH2 0x4811 JUMP JUMPDEST DUP4 PUSH2 0x2026 JUMP JUMPDEST SWAP1 POP PUSH2 0x32D9 DUP2 DUP9 PUSH2 0x1FF4 JUMP JUMPDEST SWAP1 POP PUSH0 PUSH2 0x3301 PUSH2 0x32F3 PUSH2 0x32ED DUP14 PUSH1 0x6 PUSH2 0x4811 JUMP JUMPDEST DUP8 PUSH2 0x1FF4 JUMP JUMPDEST PUSH2 0x566 PUSH2 0x32ED DUP15 PUSH1 0x21 PUSH2 0x4811 JUMP JUMPDEST PUSH1 0x80 DUP11 ADD DUP4 SWAP1 MSTORE SWAP1 POP DUP1 DUP10 PUSH1 0x5 JUMPDEST PUSH1 0x20 MUL ADD MSTORE POP POP POP POP POP POP POP POP POP POP POP JUMP JUMPDEST PUSH0 PUSH2 0x332D PUSH0 PUSH1 0x1 PUSH2 0x2026 JUMP JUMPDEST SWAP1 POP PUSH0 PUSH2 0x333B PUSH0 PUSH1 0x2 PUSH2 0x2026 JUMP JUMPDEST SWAP1 POP PUSH0 PUSH2 0x3349 PUSH0 PUSH1 0x3 PUSH2 0x2026 JUMP JUMPDEST SWAP1 POP PUSH0 PUSH2 0x3365 PUSH2 0x335A DUP9 PUSH1 0x1C PUSH2 0x4811 JUMP JUMPDEST PUSH2 0x566 DUP10 PUSH1 0x1B PUSH2 0x4811 JUMP JUMPDEST SWAP1 POP PUSH0 PUSH2 0x3381 PUSH2 0x3376 DUP10 PUSH1 0x1D PUSH2 0x4811 JUMP JUMPDEST PUSH2 0x566 DUP11 PUSH1 0x1C PUSH2 0x4811 JUMP JUMPDEST SWAP1 POP PUSH0 PUSH2 0x339D PUSH2 0x3392 DUP11 PUSH1 0x1E PUSH2 0x4811 JUMP JUMPDEST PUSH2 0x566 DUP12 PUSH1 0x1D PUSH2 0x4811 JUMP JUMPDEST SWAP1 POP PUSH0 PUSH2 0x33B9 PUSH2 0x33AE DUP12 PUSH1 0x23 PUSH2 0x4811 JUMP JUMPDEST PUSH2 0x566 DUP13 PUSH1 0x1E PUSH2 0x4811 JUMP JUMPDEST SWAP1 POP DUP4 PUSH2 0x33CA DUP2 PUSH2 0x543 DUP2 DUP12 PUSH2 0x200D JUMP JUMPDEST SWAP1 POP PUSH2 0x33DA DUP2 PUSH2 0x543 DUP8 DUP11 PUSH2 0x200D JUMP JUMPDEST SWAP1 POP PUSH2 0x33EA DUP2 PUSH2 0x543 DUP8 DUP10 PUSH2 0x200D JUMP JUMPDEST SWAP1 POP PUSH2 0x33FB DUP2 PUSH2 0x543 DUP14 PUSH1 0x8 PUSH2 0x4811 JUMP JUMPDEST SWAP1 POP PUSH2 0x3407 DUP2 DUP11 PUSH2 0x1FF4 JUMP JUMPDEST PUSH1 0xC0 DUP12 ADD MSTORE POP DUP3 PUSH2 0x341C DUP2 PUSH2 0x543 DUP2 DUP12 PUSH2 0x200D JUMP JUMPDEST SWAP1 POP PUSH2 0x342C DUP2 PUSH2 0x543 DUP7 DUP11 PUSH2 0x200D JUMP JUMPDEST SWAP1 POP PUSH2 0x343C DUP2 PUSH2 0x543 DUP7 DUP10 PUSH2 0x200D JUMP JUMPDEST SWAP1 POP PUSH2 0x344D DUP2 PUSH2 0x543 DUP14 PUSH1 0x8 PUSH2 0x4811 JUMP JUMPDEST SWAP1 POP PUSH2 0x3459 DUP2 DUP11 PUSH2 0x1FF4 JUMP JUMPDEST PUSH1 0xE0 DUP12 ADD MSTORE POP DUP2 PUSH2 0x346E DUP2 PUSH2 0x543 DUP2 DUP12 PUSH2 0x200D JUMP JUMPDEST SWAP1 POP PUSH2 0x347E DUP2 PUSH2 0x543 DUP6 DUP11 PUSH2 0x200D JUMP JUMPDEST SWAP1 POP PUSH2 0x348E DUP2 PUSH2 0x543 DUP6 DUP10 PUSH2 0x200D JUMP JUMPDEST SWAP1 POP PUSH2 0x349F DUP2 PUSH2 0x543 DUP14 PUSH1 0x8 PUSH2 0x4811 JUMP JUMPDEST SWAP1 POP PUSH2 0x34AB DUP2 DUP11 PUSH2 0x1FF4 JUMP JUMPDEST PUSH2 0x100 DUP12 ADD MSTORE POP DUP1 PUSH2 0x34C1 DUP2 PUSH2 0x543 DUP2 DUP12 PUSH2 0x200D JUMP JUMPDEST SWAP1 POP PUSH2 0x34D1 DUP2 PUSH2 0x543 DUP5 DUP11 PUSH2 0x200D JUMP JUMPDEST SWAP1 POP PUSH2 0x34E1 DUP2 PUSH2 0x543 DUP5 DUP10 PUSH2 0x200D JUMP JUMPDEST SWAP1 POP PUSH2 0x34F2 DUP2 PUSH2 0x543 DUP14 PUSH1 0x8 PUSH2 0x4811 JUMP JUMPDEST SWAP1 POP PUSH2 0x34FE DUP2 DUP11 PUSH2 0x1FF4 JUMP JUMPDEST SWAP1 POP DUP1 DUP11 PUSH1 0x9 PUSH2 0x330F JUMP JUMPDEST PUSH2 0x3542 PUSH1 0x40 MLOAD DUP1 PUSH1 0xE0 ADD PUSH1 0x40 MSTORE DUP1 PUSH0 DUP2 MSTORE PUSH1 0x20 ADD PUSH0 DUP2 MSTORE PUSH1 0x20 ADD PUSH0 DUP2 MSTORE PUSH1 0x20 ADD PUSH0 DUP2 MSTORE PUSH1 0x20 ADD PUSH0 DUP2 MSTORE PUSH1 0x20 ADD PUSH0 DUP2 MSTORE PUSH1 0x20 ADD PUSH0 DUP2 MSTORE POP SWAP1 JUMP JUMPDEST PUSH2 0x354D DUP5 PUSH1 0x1C PUSH2 0x4811 JUMP JUMPDEST DUP2 MSTORE PUSH2 0x355A DUP5 PUSH1 0x1D PUSH2 0x4811 JUMP JUMPDEST PUSH1 0x20 DUP3 ADD MSTORE PUSH2 0x356A DUP5 PUSH1 0x23 PUSH2 0x4811 JUMP JUMPDEST PUSH1 0x40 DUP3 ADD MSTORE PUSH2 0x357A DUP5 PUSH1 0x26 PUSH2 0x4811 JUMP JUMPDEST PUSH1 0x60 DUP3 ADD MSTORE PUSH2 0x358A DUP5 PUSH1 0x25 PUSH2 0x4811 JUMP JUMPDEST PUSH1 0x80 DUP3 ADD MSTORE PUSH2 0x359A DUP5 PUSH1 0x24 PUSH2 0x4811 JUMP JUMPDEST PUSH1 0xA0 DUP3 ADD MSTORE PUSH0 PUSH2 0x35AB DUP6 PUSH1 0x2 PUSH2 0x4811 JUMP JUMPDEST SWAP1 POP PUSH0 PUSH2 0x35B8 DUP7 PUSH0 PUSH2 0x4811 JUMP JUMPDEST SWAP1 POP PUSH0 PUSH2 0x35CC DUP5 PUSH1 0x40 ADD MLOAD DUP6 PUSH0 ADD MLOAD PUSH2 0x2026 JUMP JUMPDEST SWAP1 POP PUSH0 PUSH2 0x35E1 DUP6 PUSH1 0x20 ADD MLOAD DUP7 PUSH1 0x20 ADD MLOAD PUSH2 0x1FF4 JUMP JUMPDEST PUSH1 0x60 DUP7 ADD MLOAD SWAP1 SWAP2 POP DUP7 SWAP1 PUSH0 SWAP1 PUSH2 0x35F7 SWAP1 DUP1 PUSH2 0x1FF4 JUMP JUMPDEST SWAP1 POP PUSH0 PUSH2 0x3615 PUSH2 0x360F DUP10 PUSH1 0x20 ADD MLOAD DUP11 PUSH1 0x60 ADD MLOAD PUSH2 0x1FF4 JUMP JUMPDEST DUP9 PUSH2 0x1FF4 JUMP JUMPDEST SWAP1 POP PUSH0 PUSH2 0x3634 PUSH2 0x362D DUP11 PUSH1 0xA0 ADD MLOAD DUP12 PUSH1 0x40 ADD MLOAD PUSH2 0x200D JUMP JUMPDEST DUP11 MLOAD PUSH2 0x200D JUMP JUMPDEST SWAP1 POP PUSH2 0x3643 PUSH2 0x32ED DUP3 DUP9 PUSH2 0x1FF4 JUMP JUMPDEST SWAP1 POP PUSH2 0x366A PUSH2 0x3664 PUSH2 0x365E PUSH2 0x3658 DUP5 DUP8 PUSH2 0x2026 JUMP JUMPDEST DUP9 PUSH2 0x2026 JUMP JUMPDEST DUP5 PUSH2 0x200D JUMP JUMPDEST DUP4 PUSH2 0x200D JUMP JUMPDEST SWAP1 POP PUSH2 0x3692 PUSH2 0x3687 PUSH2 0x367C DUP4 DUP8 PUSH2 0x1FF4 JUMP JUMPDEST PUSH2 0x543 DUP16 PUSH1 0x9 PUSH2 0x4811 JUMP JUMPDEST PUSH2 0x543 PUSH1 0x1 DUP11 PUSH2 0x2026 JUMP JUMPDEST PUSH2 0x140 DUP13 ADD MSTORE POP POP POP POP PUSH1 0x20 DUP6 ADD MLOAD PUSH1 0x80 DUP7 ADD MLOAD PUSH0 SWAP2 PUSH2 0x36B1 SWAP2 PUSH2 0x200D JUMP JUMPDEST SWAP1 POP PUSH0 PUSH2 0x36CF PUSH2 0x36C5 DUP9 PUSH1 0x60 ADD MLOAD DUP9 PUSH2 0x1FF4 JUMP JUMPDEST DUP9 PUSH1 0x20 ADD MLOAD PUSH2 0x2026 JUMP JUMPDEST SWAP1 POP PUSH0 PUSH2 0x36F3 PUSH2 0x36DF DUP5 DUP8 PUSH2 0x1FF4 JUMP JUMPDEST PUSH2 0x548 PUSH2 0x30DF DUP12 PUSH1 0xA0 ADD MLOAD DUP13 PUSH0 ADD MLOAD PUSH2 0x2026 JUMP JUMPDEST SWAP1 POP PUSH2 0x371B PUSH2 0x3710 PUSH2 0x3705 DUP4 DUP13 PUSH2 0x1FF4 JUMP JUMPDEST PUSH2 0x543 DUP15 PUSH1 0x9 PUSH2 0x4811 JUMP JUMPDEST PUSH2 0x543 PUSH1 0x1 DUP10 PUSH2 0x2026 JUMP JUMPDEST PUSH2 0x160 DUP12 ADD MSTORE POP PUSH0 SWAP2 POP PUSH2 0x373C SWAP1 POP PUSH2 0x3735 DUP4 PUSH1 0x11 PUSH2 0x200D JUMP JUMPDEST DUP8 MLOAD PUSH2 0x1FF4 JUMP JUMPDEST SWAP1 POP PUSH0 PUSH2 0x3749 DUP4 DUP5 PUSH2 0x200D JUMP JUMPDEST SWAP1 POP PUSH2 0x3755 DUP2 DUP3 PUSH2 0x200D JUMP JUMPDEST SWAP1 POP PUSH0 PUSH2 0x3763 DUP4 PUSH1 0x9 PUSH2 0x1FF4 JUMP JUMPDEST SWAP1 POP PUSH2 0x378C PUSH2 0x3786 PUSH2 0x30AA PUSH2 0x377F DUP12 PUSH1 0xA0 ADD MLOAD DUP13 PUSH0 ADD MLOAD PUSH2 0x200D JUMP JUMPDEST DUP12 MLOAD PUSH2 0x200D JUMP JUMPDEST DUP3 PUSH2 0x2026 JUMP JUMPDEST PUSH1 0xC0 DUP10 ADD DUP2 SWAP1 MSTORE PUSH0 SWAP1 PUSH2 0x37A7 SWAP1 PUSH2 0x360F SWAP1 PUSH2 0x367C SWAP1 DUP14 PUSH2 0x1FF4 JUMP JUMPDEST SWAP1 POP PUSH2 0x37BA DUP12 PUSH1 0xA PUSH1 0x20 MUL ADD MLOAD DUP3 PUSH2 0x200D JUMP JUMPDEST PUSH2 0x140 DUP13 ADD MSTORE POP POP DUP7 MLOAD PUSH0 SWAP3 POP PUSH2 0x37E1 SWAP2 POP PUSH2 0x3735 SWAP1 PUSH2 0x37DA SWAP1 DUP1 PUSH2 0x200D JUMP JUMPDEST DUP9 MLOAD PUSH2 0x200D JUMP JUMPDEST SWAP1 POP PUSH0 PUSH2 0x3821 PUSH2 0x37FC DUP4 PUSH2 0x543 DUP11 PUSH0 ADD MLOAD DUP12 PUSH1 0xA0 ADD MLOAD PUSH2 0x2026 JUMP JUMPDEST PUSH1 0x20 DUP10 ADD MLOAD PUSH2 0x566 SWAP1 PUSH2 0x380F SWAP1 DUP1 PUSH2 0x200D JUMP JUMPDEST PUSH2 0x543 DUP12 PUSH1 0x20 ADD MLOAD DUP13 PUSH1 0x80 ADD MLOAD PUSH2 0x200D JUMP JUMPDEST SWAP1 POP PUSH2 0x383E DUP10 PUSH1 0xB PUSH1 0x20 MUL ADD MLOAD PUSH2 0x548 PUSH2 0x360F PUSH2 0x367C DUP6 DUP14 PUSH2 0x1FF4 JUMP JUMPDEST DUP10 PUSH1 0xB PUSH1 0x20 MUL ADD MSTORE POP POP POP POP POP POP POP POP POP POP JUMP JUMPDEST PUSH2 0x38E6 PUSH1 0x40 MLOAD DUP1 PUSH2 0x2C0 ADD PUSH1 0x40 MSTORE DUP1 PUSH0 DUP2 MSTORE PUSH1 0x20 ADD PUSH0 DUP2 MSTORE PUSH1 0x20 ADD PUSH0 DUP2 MSTORE PUSH1 0x20 ADD PUSH0 DUP2 MSTORE PUSH1 0x20 ADD PUSH0 DUP2 MSTORE PUSH1 0x20 ADD PUSH0 DUP2 MSTORE PUSH1 0x20 ADD PUSH0 DUP2 MSTORE PUSH1 0x20 ADD PUSH0 DUP2 MSTORE PUSH1 0x20 ADD PUSH0 DUP2 MSTORE PUSH1 0x20 ADD PUSH0 DUP2 MSTORE PUSH1 0x20 ADD PUSH0 DUP2 MSTORE PUSH1 0x20 ADD PUSH0 DUP2 MSTORE PUSH1 0x20 ADD PUSH0 DUP2 MSTORE PUSH1 0x20 ADD PUSH0 DUP2 MSTORE PUSH1 0x20 ADD PUSH0 DUP2 MSTORE PUSH1 0x20 ADD PUSH0 DUP2 MSTORE PUSH1 0x20 ADD PUSH0 DUP2 MSTORE PUSH1 0x20 ADD PUSH0 DUP2 MSTORE PUSH1 0x20 ADD PUSH0 DUP2 MSTORE PUSH1 0x20 ADD PUSH0 DUP2 MSTORE PUSH1 0x20 ADD PUSH0 DUP2 MSTORE PUSH1 0x20 ADD PUSH0 DUP2 MSTORE POP SWAP1 JUMP JUMPDEST PUSH2 0x391B PUSH2 0x3902 PUSH2 0x38F7 DUP8 PUSH1 0x1B PUSH2 0x4811 JUMP JUMPDEST PUSH2 0x543 DUP9 PUSH1 0x24 PUSH2 0x4811 JUMP JUMPDEST PUSH2 0x548 PUSH2 0x3910 DUP9 PUSH1 0x23 PUSH2 0x4811 JUMP JUMPDEST PUSH2 0x543 DUP10 PUSH1 0x1C PUSH2 0x4811 JUMP JUMPDEST DUP2 MSTORE PUSH2 0x3960 PUSH2 0x3955 PUSH2 0x393C PUSH2 0x3931 DUP9 PUSH1 0x1B PUSH2 0x4811 JUMP JUMPDEST PUSH2 0x543 DUP10 PUSH1 0x1E PUSH2 0x4811 JUMP JUMPDEST PUSH2 0x548 PUSH2 0x394A DUP10 PUSH1 0x1C PUSH2 0x4811 JUMP JUMPDEST PUSH2 0x543 DUP11 PUSH1 0x1D PUSH2 0x4811 JUMP JUMPDEST PUSH2 0x566 DUP8 PUSH1 0x25 PUSH2 0x4811 JUMP JUMPDEST PUSH1 0x40 DUP3 ADD DUP2 SWAP1 MSTORE PUSH2 0x3975 SWAP1 PUSH1 0x1 PUSH1 0x44 SHL PUSH2 0x1FF4 JUMP JUMPDEST PUSH1 0x40 DUP3 ADD DUP2 SWAP1 MSTORE PUSH2 0x398B SWAP1 PUSH2 0x566 DUP8 PUSH1 0x26 PUSH2 0x4811 JUMP JUMPDEST PUSH1 0x40 DUP3 ADD DUP2 SWAP1 MSTORE DUP2 MLOAD PUSH2 0x399E SWAP2 SWAP1 PUSH2 0x200D JUMP JUMPDEST PUSH1 0x40 DUP3 ADD DUP2 SWAP1 MSTORE PUSH2 0x39B4 SWAP1 PUSH2 0x543 DUP8 PUSH1 0x5 PUSH2 0x4811 JUMP JUMPDEST PUSH1 0x40 DUP3 ADD MSTORE DUP1 MLOAD PUSH2 0x39C9 SWAP1 PUSH1 0x1 PUSH1 0x44 SHL PUSH2 0x1FF4 JUMP JUMPDEST DUP1 DUP3 MSTORE PUSH2 0x39E9 SWAP1 PUSH2 0x548 PUSH2 0x39DE DUP9 PUSH1 0x23 PUSH2 0x4811 JUMP JUMPDEST PUSH2 0x543 DUP10 PUSH1 0x24 PUSH2 0x4811 JUMP JUMPDEST DUP1 DUP3 MSTORE PUSH1 0x20 DUP3 ADD DUP2 SWAP1 MSTORE PUSH2 0x3A05 SWAP1 PUSH2 0x566 PUSH2 0x2ED0 DUP9 PUSH1 0x1D PUSH2 0x4811 JUMP JUMPDEST PUSH1 0x20 DUP3 ADD DUP2 SWAP1 MSTORE PUSH2 0x3A1B SWAP1 PUSH2 0x543 DUP8 PUSH1 0x4 PUSH2 0x4811 JUMP JUMPDEST PUSH1 0x20 DUP3 ADD MSTORE DUP1 MLOAD PUSH1 0x60 DUP3 ADD DUP2 SWAP1 MSTORE PUSH2 0x3A38 SWAP1 PUSH2 0x548 DUP8 PUSH1 0x1E PUSH2 0x4811 JUMP JUMPDEST PUSH1 0x60 DUP3 ADD DUP2 SWAP1 MSTORE PUSH2 0x3A5C SWAP1 PUSH2 0x566 PUSH2 0x3A51 DUP9 PUSH1 0x25 PUSH2 0x4811 JUMP JUMPDEST PUSH2 0x548 DUP10 PUSH1 0x26 PUSH2 0x4811 JUMP JUMPDEST PUSH1 0x60 DUP3 ADD DUP2 SWAP1 MSTORE PUSH2 0x3A71 SWAP1 PUSH2 0x543 DUP8 PUSH0 PUSH2 0x4811 JUMP JUMPDEST DUP2 PUSH1 0x60 ADD DUP2 DUP2 MSTORE POP POP PUSH0 PUSH2 0x3A9A PUSH2 0x3A90 DUP4 PUSH1 0x20 ADD MLOAD DUP5 PUSH1 0x40 ADD MLOAD PUSH2 0x200D JUMP JUMPDEST DUP4 PUSH1 0x60 ADD MLOAD PUSH2 0x200D JUMP JUMPDEST SWAP1 POP PUSH2 0x3AAB DUP2 PUSH2 0x543 DUP9 PUSH1 0x3 PUSH2 0x4811 JUMP JUMPDEST SWAP1 POP PUSH2 0x3AC3 PUSH2 0x3ABB DUP8 PUSH1 0x24 PUSH2 0x4811 JUMP JUMPDEST PUSH2 0x4000 PUSH2 0x1FF4 JUMP JUMPDEST PUSH1 0x80 DUP4 ADD DUP2 SWAP1 MSTORE PUSH2 0x3AD9 SWAP1 PUSH2 0x548 DUP9 PUSH1 0x23 PUSH2 0x4811 JUMP JUMPDEST PUSH1 0x80 DUP4 ADD DUP2 SWAP1 MSTORE PUSH2 0x3AEC SWAP1 PUSH2 0x4000 PUSH2 0x1FF4 JUMP JUMPDEST PUSH1 0x80 DUP4 ADD DUP2 SWAP1 MSTORE PUSH2 0x3B02 SWAP1 PUSH2 0x548 DUP9 PUSH1 0x1D PUSH2 0x4811 JUMP JUMPDEST PUSH1 0x80 DUP4 ADD DUP2 SWAP1 MSTORE PUSH2 0x3B15 SWAP1 PUSH2 0x4000 PUSH2 0x1FF4 JUMP JUMPDEST PUSH1 0x80 DUP4 ADD DUP2 SWAP1 MSTORE PUSH2 0x3B2B SWAP1 PUSH2 0x548 DUP9 PUSH1 0x1C PUSH2 0x4811 JUMP JUMPDEST PUSH1 0x80 DUP4 ADD DUP2 SWAP1 MSTORE PUSH2 0x3B3E SWAP1 PUSH2 0x4000 PUSH2 0x1FF4 JUMP JUMPDEST PUSH1 0x80 DUP4 ADD DUP2 SWAP1 MSTORE PUSH2 0x3B54 SWAP1 PUSH2 0x548 DUP9 PUSH1 0x1B PUSH2 0x4811 JUMP JUMPDEST PUSH1 0x80 DUP4 ADD DUP2 SWAP1 MSTORE PUSH2 0x3B6A SWAP1 PUSH2 0x566 DUP9 PUSH1 0x1E PUSH2 0x4811 JUMP JUMPDEST PUSH1 0x80 DUP4 ADD DUP2 SWAP1 MSTORE PUSH2 0x3B80 SWAP1 PUSH2 0x543 DUP9 PUSH1 0x5 PUSH2 0x4811 JUMP JUMPDEST PUSH1 0x80 DUP4 ADD MSTORE PUSH2 0x3B93 PUSH2 0x3ABB DUP8 PUSH1 0x25 PUSH2 0x4811 JUMP JUMPDEST PUSH1 0xA0 DUP4 ADD DUP2 SWAP1 MSTORE PUSH2 0x3BA9 SWAP1 PUSH2 0x548 DUP9 PUSH1 0x24 PUSH2 0x4811 JUMP JUMPDEST PUSH1 0xA0 DUP4 ADD DUP2 SWAP1 MSTORE PUSH2 0x3BBC SWAP1 PUSH2 0x4000 PUSH2 0x1FF4 JUMP JUMPDEST PUSH1 0xA0 DUP4 ADD DUP2 SWAP1 MSTORE PUSH2 0x3BD2 SWAP1 PUSH2 0x548 DUP9 PUSH1 0x23 PUSH2 0x4811 JUMP JUMPDEST PUSH1 0xA0 DUP4 ADD DUP2 SWAP1 MSTORE PUSH2 0x3BE5 SWAP1 PUSH2 0x4000 PUSH2 0x1FF4 JUMP JUMPDEST PUSH1 0xA0 DUP4 ADD DUP2 SWAP1 MSTORE PUSH2 0x3BFB SWAP1 PUSH2 0x548 DUP9 PUSH1 0x1E PUSH2 0x4811 JUMP JUMPDEST PUSH1 0xA0 DUP4 ADD DUP2 SWAP1 MSTORE PUSH2 0x3C0E SWAP1 PUSH2 0x4000 PUSH2 0x1FF4 JUMP JUMPDEST PUSH1 0xA0 DUP4 ADD DUP2 SWAP1 MSTORE PUSH2 0x3C24 SWAP1 PUSH2 0x548 DUP9 PUSH1 0x1D PUSH2 0x4811 JUMP JUMPDEST PUSH1 0xA0 DUP4 ADD DUP2 SWAP1 MSTORE PUSH2 0x3C3A SWAP1 PUSH2 0x566 DUP9 PUSH1 0x26 PUSH2 0x4811 JUMP JUMPDEST PUSH1 0xA0 DUP4 ADD DUP2 SWAP1 MSTORE PUSH2 0x3C4F SWAP1 PUSH2 0x543 DUP9 PUSH0 PUSH2 0x4811 JUMP JUMPDEST PUSH1 0xA0 DUP4 ADD DUP2 SWAP1 MSTORE PUSH1 0x80 DUP4 ADD MLOAD PUSH0 SWAP2 PUSH2 0x3C67 SWAP2 SWAP1 PUSH2 0x200D JUMP JUMPDEST SWAP1 POP PUSH2 0x3C78 DUP2 PUSH2 0x543 DUP10 PUSH1 0x4 PUSH2 0x4811 JUMP JUMPDEST SWAP1 POP PUSH2 0x3C92 PUSH2 0x3C88 DUP9 PUSH1 0x1D PUSH2 0x4811 JUMP JUMPDEST DUP8 PUSH1 0x40 ADD MLOAD PUSH2 0x1FF4 JUMP JUMPDEST PUSH1 0xC0 DUP5 ADD DUP2 SWAP1 MSTORE PUSH2 0x3CAB SWAP1 PUSH2 0x548 PUSH2 0x3161 DUP11 PUSH1 0x1C PUSH2 0x4811 JUMP JUMPDEST PUSH1 0xC0 DUP5 ADD DUP2 SWAP1 MSTORE PUSH2 0x3CCB SWAP1 PUSH2 0x548 PUSH2 0x3CC4 DUP11 PUSH1 0x1B PUSH2 0x4811 JUMP JUMPDEST DUP10 MLOAD PUSH2 0x1FF4 JUMP JUMPDEST PUSH1 0xC0 DUP5 ADD DUP2 SWAP1 MSTORE PUSH2 0x3CE1 SWAP1 PUSH2 0x548 DUP10 PUSH1 0x1 PUSH2 0x4811 JUMP JUMPDEST PUSH1 0xC0 DUP5 ADD DUP2 SWAP1 MSTORE PUSH1 0xE0 DUP5 ADD DUP2 SWAP1 MSTORE PUSH2 0x3CFE SWAP1 PUSH2 0x566 DUP10 PUSH1 0x1E PUSH2 0x4811 JUMP JUMPDEST PUSH1 0xC0 DUP5 ADD MSTORE PUSH2 0x3D11 PUSH2 0x335A DUP9 PUSH1 0x23 PUSH2 0x4811 JUMP JUMPDEST PUSH2 0x140 DUP5 ADD MSTORE PUSH2 0x3D30 PUSH2 0x3D25 DUP9 PUSH1 0x26 PUSH2 0x4811 JUMP JUMPDEST PUSH2 0x566 DUP10 PUSH1 0x1E PUSH2 0x4811 JUMP JUMPDEST PUSH2 0x120 DUP5 ADD MSTORE PUSH2 0x140 DUP4 ADD MLOAD PUSH2 0x3D55 SWAP1 PUSH2 0x3D4A SWAP1 DUP1 PUSH2 0x1FF4 JUMP JUMPDEST DUP5 PUSH2 0x140 ADD MLOAD PUSH2 0x2026 JUMP JUMPDEST PUSH2 0x280 DUP5 ADD MSTORE PUSH2 0x140 DUP4 ADD MLOAD PUSH2 0x3D97 SWAP1 PUSH2 0x3D8C SWAP1 PUSH2 0x3D85 SWAP1 PUSH2 0x543 PUSH1 0x1 PUSH0 MLOAD PUSH1 0x20 PUSH2 0x53FF PUSH0 CODECOPY PUSH0 MLOAD SWAP1 PUSH0 MSTORE PUSH2 0x519E JUMP JUMPDEST PUSH1 0x1 PUSH2 0x200D JUMP JUMPDEST DUP5 PUSH2 0x120 ADD MLOAD PUSH2 0x1FF4 JUMP JUMPDEST PUSH2 0x160 DUP5 ADD DUP2 SWAP1 MSTORE PUSH2 0x3DCE SWAP1 PUSH2 0x3DC0 SWAP1 PUSH2 0x543 PUSH2 0x3DB5 DUP12 PUSH1 0x2 PUSH2 0x4811 JUMP JUMPDEST PUSH2 0x543 DUP13 PUSH1 0x3 PUSH2 0x4811 JUMP JUMPDEST PUSH2 0x543 PUSH2 0x32ED DUP11 PUSH1 0xA PUSH2 0x4811 JUMP JUMPDEST PUSH2 0x1A0 DUP7 ADD MSTORE PUSH2 0x280 DUP4 ADD MLOAD PUSH2 0x3DF0 SWAP1 PUSH2 0x3DC0 SWAP1 PUSH2 0x543 PUSH2 0x3DB5 DUP12 PUSH1 0x2 PUSH2 0x4811 JUMP JUMPDEST PUSH2 0x1C0 DUP7 ADD MSTORE PUSH1 0xC0 DUP4 ADD MLOAD PUSH2 0x3E18 SWAP1 PUSH2 0x543 PUSH2 0x3E0D DUP11 PUSH1 0x2 PUSH2 0x4811 JUMP JUMPDEST PUSH2 0x543 DUP12 PUSH1 0x3 PUSH2 0x4811 JUMP JUMPDEST PUSH2 0x1E0 DUP5 ADD MSTORE PUSH0 PUSH2 0x3E37 PUSH2 0x3E2D DUP10 PUSH1 0x1E PUSH2 0x4811 JUMP JUMPDEST DUP6 PUSH1 0xE0 ADD MLOAD PUSH2 0x2026 JUMP JUMPDEST SWAP1 POP PUSH2 0x3E46 PUSH2 0x3786 DUP3 DUP4 PUSH2 0x1FF4 JUMP JUMPDEST PUSH2 0x1A0 DUP6 ADD MSTORE PUSH2 0x3E5A PUSH2 0x3179 DUP10 PUSH1 0x25 PUSH2 0x4811 JUMP JUMPDEST PUSH2 0x100 DUP6 ADD DUP2 SWAP1 MSTORE PUSH2 0x3E7E SWAP1 PUSH2 0x548 PUSH2 0x3E74 DUP12 PUSH1 0x24 PUSH2 0x4811 JUMP JUMPDEST DUP11 PUSH1 0x20 ADD MLOAD PUSH2 0x1FF4 JUMP JUMPDEST PUSH2 0x100 DUP6 ADD DUP2 SWAP1 MSTORE PUSH2 0x3E98 SWAP1 PUSH2 0x548 PUSH2 0x314C DUP12 PUSH1 0x23 PUSH2 0x4811 JUMP JUMPDEST PUSH2 0x100 DUP6 ADD MSTORE PUSH2 0x3EB7 PUSH2 0x3EAC DUP10 PUSH1 0x26 PUSH2 0x4811 JUMP JUMPDEST DUP6 PUSH2 0x100 ADD MLOAD PUSH2 0x2026 JUMP JUMPDEST PUSH2 0x100 DUP6 ADD MSTORE PUSH0 PUSH2 0x3ECC PUSH2 0x3392 DUP11 PUSH1 0x25 PUSH2 0x4811 JUMP JUMPDEST SWAP1 POP PUSH2 0x3F20 PUSH2 0x3EFA PUSH2 0x2DF8 PUSH2 0x3D85 DUP9 PUSH2 0x140 ADD MLOAD PUSH1 0x1 PUSH0 MLOAD PUSH1 0x20 PUSH2 0x53FF PUSH0 CODECOPY PUSH0 MLOAD SWAP1 PUSH0 MSTORE PUSH2 0x543 SWAP2 SWAP1 PUSH2 0x519E JUMP JUMPDEST PUSH2 0x543 PUSH2 0x3D85 DUP9 PUSH2 0x100 ADD MLOAD PUSH1 0x1 PUSH0 MLOAD PUSH1 0x20 PUSH2 0x53FF PUSH0 CODECOPY PUSH0 MLOAD SWAP1 PUSH0 MSTORE PUSH2 0x543 SWAP2 SWAP1 PUSH2 0x519E JUMP JUMPDEST PUSH2 0x180 DUP7 ADD MSTORE PUSH2 0x100 DUP6 ADD MLOAD PUSH2 0x3F45 SWAP1 PUSH2 0x3F3A SWAP1 DUP1 PUSH2 0x1FF4 JUMP JUMPDEST DUP7 PUSH2 0x100 ADD MLOAD PUSH2 0x2026 JUMP JUMPDEST PUSH2 0x1C0 DUP7 ADD MSTORE PUSH2 0x180 DUP6 ADD MLOAD PUSH2 0x3F78 SWAP1 PUSH2 0x3F64 SWAP1 PUSH2 0x543 DUP13 PUSH1 0x7 PUSH2 0x4811 JUMP JUMPDEST PUSH2 0x543 PUSH2 0x3F72 DUP13 PUSH1 0xA PUSH2 0x4811 JUMP JUMPDEST DUP10 PUSH2 0x1FF4 JUMP JUMPDEST PUSH2 0x1E0 DUP9 ADD MSTORE PUSH2 0x280 DUP6 ADD MLOAD PUSH2 0x3F97 SWAP1 PUSH2 0x3F64 SWAP1 PUSH2 0x543 DUP13 PUSH1 0x7 PUSH2 0x4811 JUMP JUMPDEST PUSH2 0x200 DUP9 ADD MSTORE PUSH2 0x1C0 DUP6 ADD MLOAD PUSH2 0x3FB6 SWAP1 PUSH2 0x3F64 SWAP1 PUSH2 0x543 DUP13 PUSH1 0x7 PUSH2 0x4811 JUMP JUMPDEST PUSH2 0x220 DUP9 ADD MSTORE PUSH2 0x1A0 DUP6 ADD MLOAD PUSH2 0x3FD1 SWAP1 PUSH2 0x543 DUP12 PUSH1 0x7 PUSH2 0x4811 JUMP JUMPDEST PUSH2 0x200 DUP7 ADD MSTORE PUSH2 0x3FF0 PUSH2 0x3FE5 DUP11 PUSH1 0x24 PUSH2 0x4811 JUMP JUMPDEST PUSH2 0x566 DUP12 PUSH1 0x1C PUSH2 0x4811 JUMP JUMPDEST PUSH2 0x220 DUP7 ADD MSTORE PUSH2 0x140 DUP6 ADD MLOAD PUSH2 0x402F SWAP1 PUSH2 0x3392 SWAP1 PUSH2 0x4024 SWAP1 PUSH2 0x3D85 SWAP1 PUSH2 0x543 PUSH1 0x1 PUSH0 MLOAD PUSH1 0x20 PUSH2 0x53FF PUSH0 CODECOPY PUSH0 MLOAD SWAP1 PUSH0 MSTORE PUSH2 0x519E JUMP JUMPDEST DUP8 PUSH2 0x220 ADD MLOAD PUSH2 0x1FF4 JUMP JUMPDEST PUSH2 0x240 DUP7 ADD DUP2 SWAP1 MSTORE PUSH2 0x1E0 DUP7 ADD MLOAD PUSH2 0x260 DUP8 ADD DUP2 SWAP1 MSTORE PUSH2 0x4066 SWAP2 PUSH2 0x548 SWAP1 PUSH2 0x543 PUSH2 0x405B DUP15 PUSH1 0x5 PUSH2 0x4811 JUMP JUMPDEST PUSH2 0x543 DUP16 PUSH1 0x2 PUSH2 0x4811 JUMP JUMPDEST PUSH2 0x260 DUP7 ADD DUP2 SWAP1 MSTORE PUSH1 0xC0 DUP7 ADD MLOAD PUSH2 0x4089 SWAP2 SWAP1 PUSH2 0x548 SWAP1 PUSH2 0x543 PUSH2 0x405B DUP15 PUSH0 PUSH2 0x4811 JUMP JUMPDEST PUSH2 0x260 DUP7 ADD DUP2 SWAP1 MSTORE PUSH2 0x200 DUP7 ADD MLOAD PUSH2 0x40A1 SWAP2 SWAP1 PUSH2 0x200D JUMP JUMPDEST PUSH2 0x260 DUP7 ADD DUP2 SWAP1 MSTORE PUSH2 0x40B7 SWAP1 PUSH2 0x365E SWAP1 DUP7 PUSH2 0x200D JUMP JUMPDEST PUSH2 0x2A0 DUP7 ADD DUP2 SWAP1 MSTORE PUSH2 0x40D1 SWAP1 PUSH2 0x543 PUSH2 0x3F72 DUP13 PUSH1 0xA PUSH2 0x4811 JUMP JUMPDEST PUSH2 0x2A0 DUP7 ADD DUP2 SWAP1 MSTORE DUP8 PUSH1 0xC PUSH1 0x20 MUL ADD MSTORE POP POP POP POP POP POP POP POP POP JUMP JUMPDEST PUSH2 0x4162 PUSH1 0x40 MLOAD DUP1 PUSH2 0x220 ADD PUSH1 0x40 MSTORE DUP1 PUSH0 DUP2 MSTORE PUSH1 0x20 ADD PUSH0 DUP2 MSTORE PUSH1 0x20 ADD PUSH0 DUP2 MSTORE PUSH1 0x20 ADD PUSH0 DUP2 MSTORE PUSH1 0x20 ADD PUSH0 DUP2 MSTORE PUSH1 0x20 ADD PUSH0 DUP2 MSTORE PUSH1 0x20 ADD PUSH0 DUP2 MSTORE PUSH1 0x20 ADD PUSH0 DUP2 MSTORE PUSH1 0x20 ADD PUSH0 DUP2 MSTORE PUSH1 0x20 ADD PUSH0 DUP2 MSTORE PUSH1 0x20 ADD PUSH0 DUP2 MSTORE PUSH1 0x20 ADD PUSH0 DUP2 MSTORE PUSH1 0x20 ADD PUSH0 DUP2 MSTORE PUSH1 0x20 ADD PUSH0 DUP2 MSTORE PUSH1 0x20 ADD PUSH0 DUP2 MSTORE PUSH1 0x20 ADD PUSH0 DUP2 MSTORE PUSH1 0x20 ADD PUSH0 DUP2 MSTORE POP SWAP1 JUMP JUMPDEST PUSH2 0x417B PUSH2 0x4170 DUP6 PUSH1 0x1B PUSH2 0x4811 JUMP JUMPDEST PUSH2 0x548 DUP7 PUSH1 0x2 PUSH2 0x4811 JUMP JUMPDEST DUP2 MSTORE PUSH2 0x4196 PUSH2 0x418B DUP6 PUSH1 0x1C PUSH2 0x4811 JUMP JUMPDEST PUSH2 0x548 DUP7 PUSH1 0x3 PUSH2 0x4811 JUMP JUMPDEST PUSH1 0x20 DUP3 ADD MSTORE PUSH2 0x41B4 PUSH2 0x41A9 DUP6 PUSH1 0x1D PUSH2 0x4811 JUMP JUMPDEST PUSH2 0x548 DUP7 PUSH1 0x4 PUSH2 0x4811 JUMP JUMPDEST PUSH1 0x40 DUP3 ADD MSTORE PUSH2 0x41D2 PUSH2 0x41C7 DUP6 PUSH1 0x1E PUSH2 0x4811 JUMP JUMPDEST PUSH2 0x548 DUP7 PUSH1 0x5 PUSH2 0x4811 JUMP JUMPDEST PUSH1 0x60 DUP3 ADD MSTORE DUP1 MLOAD PUSH2 0x4204 SWAP1 PUSH2 0x41FD SWAP1 PUSH2 0x41F6 SWAP1 PUSH2 0x41EF SWAP1 DUP1 PUSH2 0x1FF4 JUMP JUMPDEST DUP5 MLOAD PUSH2 0x1FF4 JUMP JUMPDEST DUP4 MLOAD PUSH2 0x1FF4 JUMP JUMPDEST DUP3 MLOAD PUSH2 0x1FF4 JUMP JUMPDEST PUSH1 0x80 DUP3 ADD MSTORE PUSH1 0x20 DUP2 ADD MLOAD PUSH2 0x4242 SWAP1 PUSH2 0x4238 SWAP1 PUSH2 0x422E SWAP1 PUSH2 0x4224 SWAP1 DUP1 PUSH2 0x1FF4 JUMP JUMPDEST DUP5 PUSH1 0x20 ADD MLOAD PUSH2 0x1FF4 JUMP JUMPDEST DUP4 PUSH1 0x20 ADD MLOAD PUSH2 0x1FF4 JUMP JUMPDEST DUP3 PUSH1 0x20 ADD MLOAD PUSH2 0x1FF4 JUMP JUMPDEST PUSH1 0xA0 DUP3 ADD MSTORE PUSH1 0x40 DUP2 ADD MLOAD PUSH2 0x4280 SWAP1 PUSH2 0x4276 SWAP1 PUSH2 0x426C SWAP1 PUSH2 0x4262 SWAP1 DUP1 PUSH2 0x1FF4 JUMP JUMPDEST DUP5 PUSH1 0x40 ADD MLOAD PUSH2 0x1FF4 JUMP JUMPDEST DUP4 PUSH1 0x40 ADD MLOAD PUSH2 0x1FF4 JUMP JUMPDEST DUP3 PUSH1 0x40 ADD MLOAD PUSH2 0x1FF4 JUMP JUMPDEST PUSH1 0xC0 DUP3 ADD MSTORE PUSH1 0x60 DUP2 ADD MLOAD PUSH2 0x42BE SWAP1 PUSH2 0x42B4 SWAP1 PUSH2 0x42AA SWAP1 PUSH2 0x42A0 SWAP1 DUP1 PUSH2 0x1FF4 JUMP JUMPDEST DUP5 PUSH1 0x60 ADD MLOAD PUSH2 0x1FF4 JUMP JUMPDEST DUP4 PUSH1 0x60 ADD MLOAD PUSH2 0x1FF4 JUMP JUMPDEST DUP3 PUSH1 0x60 ADD MLOAD PUSH2 0x1FF4 JUMP JUMPDEST PUSH1 0xE0 DUP3 ADD MSTORE PUSH1 0x80 DUP2 ADD MLOAD PUSH1 0xA0 DUP3 ADD MLOAD PUSH2 0x42D7 SWAP2 SWAP1 PUSH2 0x200D JUMP JUMPDEST PUSH2 0x100 DUP3 ADD MSTORE PUSH1 0xC0 DUP2 ADD MLOAD PUSH1 0xE0 DUP3 ADD MLOAD PUSH2 0x42F1 SWAP2 SWAP1 PUSH2 0x200D JUMP JUMPDEST PUSH2 0x120 DUP3 ADD MSTORE PUSH1 0xA0 DUP2 ADD MLOAD PUSH2 0x4315 SWAP1 PUSH2 0x430A SWAP1 DUP1 PUSH2 0x200D JUMP JUMPDEST DUP3 PUSH2 0x120 ADD MLOAD PUSH2 0x200D JUMP JUMPDEST PUSH2 0x140 DUP3 ADD MSTORE PUSH1 0xE0 DUP2 ADD MLOAD PUSH2 0x4339 SWAP1 PUSH2 0x432E SWAP1 DUP1 PUSH2 0x200D JUMP JUMPDEST DUP3 PUSH2 0x100 ADD MLOAD PUSH2 0x200D JUMP JUMPDEST PUSH2 0x160 DUP3 ADD MSTORE PUSH2 0x120 DUP2 ADD MLOAD PUSH2 0x434F SWAP1 DUP1 PUSH2 0x200D JUMP JUMPDEST PUSH2 0x1E0 DUP3 ADD DUP2 SWAP1 MSTORE PUSH2 0x4370 SWAP1 PUSH2 0x4365 SWAP1 DUP1 PUSH2 0x200D JUMP JUMPDEST DUP3 PUSH2 0x160 ADD MLOAD PUSH2 0x200D JUMP JUMPDEST PUSH2 0x1E0 DUP3 ADD MSTORE PUSH2 0x100 DUP2 ADD MLOAD PUSH2 0x4386 SWAP1 DUP1 PUSH2 0x200D JUMP JUMPDEST PUSH2 0x1A0 DUP3 ADD DUP2 SWAP1 MSTORE PUSH2 0x43A7 SWAP1 PUSH2 0x439C SWAP1 DUP1 PUSH2 0x200D JUMP JUMPDEST DUP3 PUSH2 0x140 ADD MLOAD PUSH2 0x200D JUMP JUMPDEST PUSH2 0x1A0 DUP3 ADD DUP2 SWAP1 MSTORE PUSH2 0x160 DUP3 ADD MLOAD PUSH2 0x43BE SWAP2 PUSH2 0x200D JUMP JUMPDEST PUSH2 0x180 DUP3 ADD MSTORE PUSH2 0x140 DUP2 ADD MLOAD PUSH2 0x1E0 DUP3 ADD MLOAD PUSH2 0x43DA SWAP2 SWAP1 PUSH2 0x200D JUMP JUMPDEST PUSH2 0x1C0 DUP3 ADD MSTORE PUSH2 0x43EE PUSH2 0x2DF8 DUP6 PUSH1 0xB PUSH2 0x4811 JUMP JUMPDEST PUSH2 0x200 DUP3 ADD DUP2 SWAP1 MSTORE PUSH2 0x240 DUP5 ADD MLOAD PUSH2 0x180 DUP4 ADD MLOAD PUSH2 0x4419 SWAP3 PUSH2 0x548 SWAP2 PUSH2 0x543 SWAP1 PUSH2 0x566 DUP11 PUSH1 0x23 PUSH2 0x4811 JUMP JUMPDEST DUP4 PUSH1 0x12 PUSH1 0x20 MUL ADD MSTORE PUSH2 0x4449 DUP4 PUSH1 0x13 PUSH1 0x20 MUL ADD MLOAD PUSH2 0x548 DUP4 PUSH2 0x200 ADD MLOAD PUSH2 0x543 DUP6 PUSH2 0x1A0 ADD MLOAD PUSH2 0x566 DUP11 PUSH1 0x24 PUSH2 0x4811 JUMP JUMPDEST DUP4 PUSH1 0x13 PUSH1 0x20 MUL ADD MSTORE PUSH2 0x4479 DUP4 PUSH1 0x14 PUSH1 0x20 MUL ADD MLOAD PUSH2 0x548 DUP4 PUSH2 0x200 ADD MLOAD PUSH2 0x543 DUP6 PUSH2 0x1C0 ADD MLOAD PUSH2 0x566 DUP11 PUSH1 0x25 PUSH2 0x4811 JUMP JUMPDEST DUP4 PUSH1 0x14 PUSH1 0x20 MUL ADD MSTORE PUSH2 0x44A9 DUP4 PUSH1 0x15 PUSH1 0x20 MUL ADD MLOAD PUSH2 0x548 DUP4 PUSH2 0x200 ADD MLOAD PUSH2 0x543 DUP6 PUSH2 0x1E0 ADD MLOAD PUSH2 0x566 DUP11 PUSH1 0x26 PUSH2 0x4811 JUMP JUMPDEST DUP4 PUSH1 0x15 PUSH1 0x20 MUL ADD MSTORE POP POP POP POP JUMP JUMPDEST PUSH2 0x4509 PUSH1 0x40 MLOAD DUP1 PUSH2 0x160 ADD PUSH1 0x40 MSTORE DUP1 PUSH0 DUP2 MSTORE PUSH1 0x20 ADD PUSH0 DUP2 MSTORE PUSH1 0x20 ADD PUSH0 DUP2 MSTORE PUSH1 0x20 ADD PUSH0 DUP2 MSTORE PUSH1 0x20 ADD PUSH0 DUP2 MSTORE PUSH1 0x20 ADD PUSH0 DUP2 MSTORE PUSH1 0x20 ADD PUSH0 DUP2 MSTORE PUSH1 0x20 ADD PUSH0 DUP2 MSTORE PUSH1 0x20 ADD PUSH0 DUP2 MSTORE PUSH1 0x20 ADD PUSH0 DUP2 MSTORE PUSH1 0x20 ADD PUSH0 DUP2 MSTORE POP SWAP1 JUMP JUMPDEST PUSH0 PUSH1 0x40 MLOAD DUP1 PUSH1 0x80 ADD PUSH1 0x40 MSTORE DUP1 PUSH2 0x453E PUSH32 0x10DC6E9C006EA38B04B1E03B4BD9490C0D03F98929CA1D7FB56821FD19D3B6E7 PUSH2 0x1FD6 JUMP JUMPDEST DUP2 MSTORE PUSH1 0x20 ADD PUSH2 0x456C PUSH32 0xC28145B6A44DF3E0149B3D0A30B3BB599DF9756D4DD9B84A86B38CFB45A740B PUSH2 0x1FD6 JUMP JUMPDEST DUP2 MSTORE PUSH1 0x20 ADD PUSH2 0x4599 PUSH31 0x544B8338791518B2C7645A50392798B21F75BB60E3596170067D00141CAC15 PUSH2 0x1FD6 JUMP JUMPDEST DUP2 MSTORE PUSH1 0x20 ADD PUSH2 0x45C7 PUSH32 0x222C01175718386F2E2E82EB122789E352E105A3B8FA852613BC534433EE428B PUSH2 0x1FD6 JUMP JUMPDEST SWAP1 MSTORE SWAP1 POP PUSH2 0x45E4 PUSH2 0x45D9 DUP7 PUSH1 0x1B PUSH2 0x4811 JUMP JUMPDEST PUSH2 0x548 DUP8 PUSH1 0x2 PUSH2 0x4811 JUMP JUMPDEST PUSH2 0x120 DUP4 ADD DUP2 SWAP1 MSTORE PUSH2 0x4618 SWAP1 PUSH2 0x460D SWAP1 PUSH2 0x3D8C SWAP1 PUSH2 0x4602 SWAP1 DUP1 PUSH2 0x1FF4 JUMP JUMPDEST DUP6 PUSH2 0x120 ADD MLOAD PUSH2 0x1FF4 JUMP JUMPDEST DUP4 PUSH2 0x120 ADD MLOAD PUSH2 0x1FF4 JUMP JUMPDEST DUP3 MSTORE PUSH2 0x4625 DUP6 PUSH1 0x1C PUSH2 0x4811 JUMP JUMPDEST PUSH1 0x20 DUP4 ADD MSTORE PUSH2 0x4635 DUP6 PUSH1 0x1D PUSH2 0x4811 JUMP JUMPDEST PUSH1 0x40 DUP4 ADD MSTORE PUSH2 0x4645 DUP6 PUSH1 0x1E PUSH2 0x4811 JUMP JUMPDEST PUSH1 0x60 DUP4 ADD MSTORE DUP2 MLOAD PUSH1 0x20 DUP4 ADD MLOAD PUSH2 0x466D SWAP2 PUSH2 0x3A90 SWAP2 PUSH2 0x4663 SWAP2 SWAP1 PUSH2 0x200D JUMP JUMPDEST DUP5 PUSH1 0x40 ADD MLOAD PUSH2 0x200D JUMP JUMPDEST PUSH1 0x80 DUP4 ADD MSTORE PUSH2 0x4680 PUSH2 0x30AA DUP7 PUSH1 0xC PUSH2 0x4811 JUMP JUMPDEST PUSH2 0x140 DUP4 ADD MSTORE DUP2 MLOAD PUSH2 0x46A1 SWAP1 PUSH2 0x4697 SWAP1 DUP4 PUSH0 PUSH2 0xDC8 JUMP JUMPDEST DUP4 PUSH1 0x80 ADD MLOAD PUSH2 0x200D JUMP JUMPDEST PUSH1 0xA0 DUP4 ADD MSTORE PUSH2 0x46CD DUP5 PUSH1 0x16 PUSH1 0x20 MUL ADD MLOAD PUSH2 0x548 DUP5 PUSH2 0x140 ADD MLOAD PUSH2 0x543 DUP7 PUSH1 0xA0 ADD MLOAD PUSH2 0x566 DUP12 PUSH1 0x23 PUSH2 0x4811 JUMP JUMPDEST PUSH2 0x2C0 DUP6 ADD MSTORE PUSH1 0x20 DUP3 ADD MLOAD PUSH2 0x46E8 SWAP1 PUSH2 0x4697 SWAP1 DUP4 PUSH1 0x1 PUSH2 0xDC8 JUMP JUMPDEST PUSH1 0xC0 DUP4 ADD MSTORE PUSH2 0x4714 DUP5 PUSH1 0x17 PUSH1 0x20 MUL ADD MLOAD PUSH2 0x548 DUP5 PUSH2 0x140 ADD MLOAD PUSH2 0x543 DUP7 PUSH1 0xC0 ADD MLOAD PUSH2 0x566 DUP12 PUSH1 0x24 PUSH2 0x4811 JUMP JUMPDEST PUSH2 0x2E0 DUP6 ADD MSTORE PUSH1 0x40 DUP3 ADD MLOAD PUSH2 0x472F SWAP1 PUSH2 0x4697 SWAP1 DUP4 PUSH1 0x2 PUSH2 0xDC8 JUMP JUMPDEST PUSH1 0xE0 DUP4 ADD MSTORE PUSH2 0x475B DUP5 PUSH1 0x18 PUSH1 0x20 MUL ADD MLOAD PUSH2 0x548 DUP5 PUSH2 0x140 ADD MLOAD PUSH2 0x543 DUP7 PUSH1 0xE0 ADD MLOAD PUSH2 0x566 DUP12 PUSH1 0x25 PUSH2 0x4811 JUMP JUMPDEST PUSH2 0x300 DUP6 ADD MSTORE PUSH1 0x60 DUP3 ADD MLOAD PUSH2 0x4776 SWAP1 PUSH2 0x4697 SWAP1 DUP4 PUSH1 0x3 PUSH2 0xDC8 JUMP JUMPDEST PUSH2 0x100 DUP4 ADD MSTORE PUSH2 0x47A4 DUP5 PUSH1 0x19 PUSH1 0x20 MUL ADD MLOAD PUSH2 0x548 DUP5 PUSH2 0x140 ADD MLOAD PUSH2 0x543 DUP7 PUSH2 0x100 ADD MLOAD PUSH2 0x566 DUP12 PUSH1 0x26 PUSH2 0x4811 JUMP JUMPDEST DUP5 PUSH1 0x19 PUSH2 0x2F31 JUMP JUMPDEST PUSH0 PUSH2 0x47B8 DUP2 DUP5 DUP2 PUSH2 0x7B1 JUMP JUMPDEST SWAP1 POP PUSH1 0x1 JUMPDEST PUSH1 0x1A DUP2 LT ISZERO PUSH2 0x480A JUMPI PUSH2 0x4800 DUP3 PUSH2 0x548 DUP7 DUP5 PUSH1 0x1A DUP2 LT PUSH2 0x47DF JUMPI PUSH2 0x47DF PUSH2 0x518A JUMP JUMPDEST PUSH1 0x20 MUL ADD MLOAD DUP7 PUSH2 0x47F0 PUSH1 0x1 DUP8 PUSH2 0x519E JUMP JUMPDEST PUSH1 0x19 DUP2 LT PUSH2 0xDC8 JUMPI PUSH2 0xDC8 PUSH2 0x518A JUMP JUMPDEST SWAP2 POP PUSH1 0x1 ADD PUSH2 0x47BD JUMP JUMPDEST POP SWAP3 SWAP2 POP POP JUMP JUMPDEST PUSH0 DUP3 DUP3 PUSH1 0x27 DUP2 GT ISZERO PUSH2 0x4825 JUMPI PUSH2 0x4825 PUSH2 0x53EA JUMP JUMPDEST PUSH1 0x28 DUP2 LT PUSH2 0x4835 JUMPI PUSH2 0x4835 PUSH2 0x518A JUMP JUMPDEST PUSH1 0x20 MUL ADD MLOAD SWAP4 SWAP3 POP POP POP JUMP JUMPDEST PUSH1 0x40 MLOAD DUP1 PUSH2 0x3C0 ADD PUSH1 0x40 MSTORE DUP1 PUSH0 DUP2 MSTORE PUSH1 0x20 ADD PUSH0 DUP2 MSTORE PUSH1 0x20 ADD PUSH0 DUP2 MSTORE PUSH1 0x20 ADD PUSH2 0x487A PUSH1 0x40 MLOAD DUP1 PUSH1 0x40 ADD PUSH1 0x40 MSTORE DUP1 PUSH0 DUP2 MSTORE PUSH1 0x20 ADD PUSH0 DUP2 MSTORE POP SWAP1 JUMP JUMPDEST DUP2 MSTORE PUSH1 0x20 ADD PUSH2 0x489A PUSH1 0x40 MLOAD DUP1 PUSH1 0x40 ADD PUSH1 0x40 MSTORE DUP1 PUSH0 DUP2 MSTORE PUSH1 0x20 ADD PUSH0 DUP2 MSTORE POP SWAP1 JUMP JUMPDEST DUP2 MSTORE PUSH1 0x20 ADD PUSH2 0x48BA PUSH1 0x40 MLOAD DUP1 PUSH1 0x40 ADD PUSH1 0x40 MSTORE DUP1 PUSH0 DUP2 MSTORE PUSH1 0x20 ADD PUSH0 DUP2 MSTORE POP SWAP1 JUMP JUMPDEST DUP2 MSTORE PUSH1 0x20 ADD PUSH2 0x48DA PUSH1 0x40 MLOAD DUP1 PUSH1 0x40 ADD PUSH1 0x40 MSTORE DUP1 PUSH0 DUP2 MSTORE PUSH1 0x20 ADD PUSH0 DUP2 MSTORE POP SWAP1 JUMP JUMPDEST DUP2 MSTORE PUSH1 0x20 ADD PUSH2 0x48FA PUSH1 0x40 MLOAD DUP1 PUSH1 0x40 ADD PUSH1 0x40 MSTORE DUP1 PUSH0 DUP2 MSTORE PUSH1 0x20 ADD PUSH0 DUP2 MSTORE POP SWAP1 JUMP JUMPDEST DUP2 MSTORE PUSH1 0x20 ADD PUSH2 0x491A PUSH1 0x40 MLOAD DUP1 PUSH1 0x40 ADD PUSH1 0x40 MSTORE DUP1 PUSH0 DUP2 MSTORE PUSH1 0x20 ADD PUSH0 DUP2 MSTORE POP SWAP1 JUMP JUMPDEST DUP2 MSTORE PUSH1 0x20 ADD PUSH2 0x493A PUSH1 0x40 MLOAD DUP1 PUSH1 0x40 ADD PUSH1 0x40 MSTORE DUP1 PUSH0 DUP2 MSTORE PUSH1 0x20 ADD PUSH0 DUP2 MSTORE POP SWAP1 JUMP JUMPDEST DUP2 MSTORE PUSH1 0x20 ADD PUSH2 0x495A PUSH1 0x40 MLOAD DUP1 PUSH1 0x40 ADD PUSH1 0x40 MSTORE DUP1 PUSH0 DUP2 MSTORE PUSH1 0x20 ADD PUSH0 DUP2 MSTORE POP SWAP1 JUMP JUMPDEST DUP2 MSTORE PUSH1 0x20 ADD PUSH2 0x497A PUSH1 0x40 MLOAD DUP1 PUSH1 0x40 ADD PUSH1 0x40 MSTORE DUP1 PUSH0 DUP2 MSTORE PUSH1 0x20 ADD PUSH0 DUP2 MSTORE POP SWAP1 JUMP JUMPDEST DUP2 MSTORE PUSH1 0x20 ADD PUSH2 0x499A PUSH1 0x40 MLOAD DUP1 PUSH1 0x40 ADD PUSH1 0x40 MSTORE DUP1 PUSH0 DUP2 MSTORE PUSH1 0x20 ADD PUSH0 DUP2 MSTORE POP SWAP1 JUMP JUMPDEST DUP2 MSTORE PUSH1 0x20 ADD PUSH2 0x49BA PUSH1 0x40 MLOAD DUP1 PUSH1 0x40 ADD PUSH1 0x40 MSTORE DUP1 PUSH0 DUP2 MSTORE PUSH1 0x20 ADD PUSH0 DUP2 MSTORE POP SWAP1 JUMP JUMPDEST DUP2 MSTORE PUSH1 0x20 ADD PUSH2 0x49DA PUSH1 0x40 MLOAD DUP1 PUSH1 0x40 ADD PUSH1 0x40 MSTORE DUP1 PUSH0 DUP2 MSTORE PUSH1 0x20 ADD PUSH0 DUP2 MSTORE POP SWAP1 JUMP JUMPDEST DUP2 MSTORE PUSH1 0x20 ADD PUSH2 0x49FA PUSH1 0x40 MLOAD DUP1 PUSH1 0x40 ADD PUSH1 0x40 MSTORE DUP1 PUSH0 DUP2 MSTORE PUSH1 0x20 ADD PUSH0 DUP2 MSTORE POP SWAP1 JUMP JUMPDEST DUP2 MSTORE PUSH1 0x20 ADD PUSH2 0x4A1A PUSH1 0x40 MLOAD DUP1 PUSH1 0x40 ADD PUSH1 0x40 MSTORE DUP1 PUSH0 DUP2 MSTORE PUSH1 0x20 ADD PUSH0 DUP2 MSTORE POP SWAP1 JUMP JUMPDEST DUP2 MSTORE PUSH1 0x20 ADD PUSH2 0x4A3A PUSH1 0x40 MLOAD DUP1 PUSH1 0x40 ADD PUSH1 0x40 MSTORE DUP1 PUSH0 DUP2 MSTORE PUSH1 0x20 ADD PUSH0 DUP2 MSTORE POP SWAP1 JUMP JUMPDEST DUP2 MSTORE PUSH1 0x20 ADD PUSH2 0x4A5A PUSH1 0x40 MLOAD DUP1 PUSH1 0x40 ADD PUSH1 0x40 MSTORE DUP1 PUSH0 DUP2 MSTORE PUSH1 0x20 ADD PUSH0 DUP2 MSTORE POP SWAP1 JUMP JUMPDEST DUP2 MSTORE PUSH1 0x20 ADD PUSH2 0x4A7A PUSH1 0x40 MLOAD DUP1 PUSH1 0x40 ADD PUSH1 0x40 MSTORE DUP1 PUSH0 DUP2 MSTORE PUSH1 0x20 ADD PUSH0 DUP2 MSTORE POP SWAP1 JUMP JUMPDEST DUP2 MSTORE PUSH1 0x20 ADD PUSH2 0x4A9A PUSH1 0x40 MLOAD DUP1 PUSH1 0x40 ADD PUSH1 0x40 MSTORE DUP1 PUSH0 DUP2 MSTORE PUSH1 0x20 ADD PUSH0 DUP2 MSTORE POP SWAP1 JUMP JUMPDEST DUP2 MSTORE PUSH1 0x20 ADD PUSH2 0x4ABA PUSH1 0x40 MLOAD DUP1 PUSH1 0x40 ADD PUSH1 0x40 MSTORE DUP1 PUSH0 DUP2 MSTORE PUSH1 0x20 ADD PUSH0 DUP2 MSTORE POP SWAP1 JUMP JUMPDEST DUP2 MSTORE PUSH1 0x20 ADD PUSH2 0x4ADA PUSH1 0x40 MLOAD DUP1 PUSH1 0x40 ADD PUSH1 0x40 MSTORE DUP1 PUSH0 DUP2 MSTORE PUSH1 0x20 ADD PUSH0 DUP2 MSTORE POP SWAP1 JUMP JUMPDEST DUP2 MSTORE PUSH1 0x20 ADD PUSH2 0x4AFA PUSH1 0x40 MLOAD DUP1 PUSH1 0x40 ADD PUSH1 0x40 MSTORE DUP1 PUSH0 DUP2 MSTORE PUSH1 0x20 ADD PUSH0 DUP2 MSTORE POP SWAP1 JUMP JUMPDEST DUP2 MSTORE PUSH1 0x20 ADD PUSH2 0x4B1A PUSH1 0x40 MLOAD DUP1 PUSH1 0x40 ADD PUSH1 0x40 MSTORE DUP1 PUSH0 DUP2 MSTORE PUSH1 0x20 ADD PUSH0 DUP2 MSTORE POP SWAP1 JUMP JUMPDEST DUP2 MSTORE PUSH1 0x20 ADD PUSH2 0x4B3A PUSH1 0x40 MLOAD DUP1 PUSH1 0x40 ADD PUSH1 0x40 MSTORE DUP1 PUSH0 DUP2 MSTORE PUSH1 0x20 ADD PUSH0 DUP2 MSTORE POP SWAP1 JUMP JUMPDEST DUP2 MSTORE PUSH1 0x20 ADD PUSH2 0x4B5A PUSH1 0x40 MLOAD DUP1 PUSH1 0x40 ADD PUSH1 0x40 MSTORE DUP1 PUSH0 DUP2 MSTORE PUSH1 0x20 ADD PUSH0 DUP2 MSTORE POP SWAP1 JUMP JUMPDEST DUP2 MSTORE PUSH1 0x20 ADD PUSH2 0x4B7A PUSH1 0x40 MLOAD DUP1 PUSH1 0x40 ADD PUSH1 0x40 MSTORE DUP1 PUSH0 DUP2 MSTORE PUSH1 0x20 ADD PUSH0 DUP2 MSTORE POP SWAP1 JUMP JUMPDEST DUP2 MSTORE PUSH1 0x20 ADD PUSH2 0x4B9A PUSH1 0x40 MLOAD DUP1 PUSH1 0x40 ADD PUSH1 0x40 MSTORE DUP1 PUSH0 DUP2 MSTORE PUSH1 0x20 ADD PUSH0 DUP2 MSTORE POP SWAP1 JUMP JUMPDEST DUP2 MSTORE PUSH1 0x20 ADD PUSH2 0x4BBA PUSH1 0x40 MLOAD DUP1 PUSH1 0x40 ADD PUSH1 0x40 MSTORE DUP1 PUSH0 DUP2 MSTORE PUSH1 0x20 ADD PUSH0 DUP2 MSTORE POP SWAP1 JUMP JUMPDEST SWAP1 MSTORE SWAP1 JUMP JUMPDEST PUSH1 0x40 MLOAD DUP1 PUSH2 0x1C0 ADD PUSH1 0x40 MSTORE DUP1 PUSH2 0x4BF2 PUSH1 0x40 MLOAD DUP1 PUSH1 0x80 ADD PUSH1 0x40 MSTORE DUP1 PUSH0 DUP2 MSTORE PUSH1 0x20 ADD PUSH0 DUP2 MSTORE PUSH1 0x20 ADD PUSH0 DUP2 MSTORE PUSH1 0x20 ADD PUSH0 DUP2 MSTORE POP SWAP1 JUMP JUMPDEST DUP2 MSTORE PUSH1 0x20 ADD PUSH2 0x4C1E PUSH1 0x40 MLOAD DUP1 PUSH1 0x80 ADD PUSH1 0x40 MSTORE DUP1 PUSH0 DUP2 MSTORE PUSH1 0x20 ADD PUSH0 DUP2 MSTORE PUSH1 0x20 ADD PUSH0 DUP2 MSTORE PUSH1 0x20 ADD PUSH0 DUP2 MSTORE POP SWAP1 JUMP JUMPDEST DUP2 MSTORE PUSH1 0x20 ADD PUSH2 0x4C4A PUSH1 0x40 MLOAD DUP1 PUSH1 0x80 ADD PUSH1 0x40 MSTORE DUP1 PUSH0 DUP2 MSTORE PUSH1 0x20 ADD PUSH0 DUP2 MSTORE PUSH1 0x20 ADD PUSH0 DUP2 MSTORE PUSH1 0x20 ADD PUSH0 DUP2 MSTORE POP SWAP1 JUMP JUMPDEST DUP2 MSTORE PUSH1 0x20 ADD PUSH2 0x4C76 PUSH1 0x40 MLOAD DUP1 PUSH1 0x80 ADD PUSH1 0x40 MSTORE DUP1 PUSH0 DUP2 MSTORE PUSH1 0x20 ADD PUSH0 DUP2 MSTORE PUSH1 0x20 ADD PUSH0 DUP2 MSTORE PUSH1 0x20 ADD PUSH0 DUP2 MSTORE POP SWAP1 JUMP JUMPDEST DUP2 MSTORE PUSH1 0x20 ADD PUSH2 0x4CA2 PUSH1 0x40 MLOAD DUP1 PUSH1 0x80 ADD PUSH1 0x40 MSTORE DUP1 PUSH0 DUP2 MSTORE PUSH1 0x20 ADD PUSH0 DUP2 MSTORE PUSH1 0x20 ADD PUSH0 DUP2 MSTORE PUSH1 0x20 ADD PUSH0 DUP2 MSTORE POP SWAP1 JUMP JUMPDEST DUP2 MSTORE PUSH1 0x20 ADD PUSH2 0x4CCE PUSH1 0x40 MLOAD DUP1 PUSH1 0x80 ADD PUSH1 0x40 MSTORE DUP1 PUSH0 DUP2 MSTORE PUSH1 0x20 ADD PUSH0 DUP2 MSTORE PUSH1 0x20 ADD PUSH0 DUP2 MSTORE PUSH1 0x20 ADD PUSH0 DUP2 MSTORE POP SWAP1 JUMP JUMPDEST DUP2 MSTORE PUSH1 0x20 ADD PUSH2 0x4CFA PUSH1 0x40 MLOAD DUP1 PUSH1 0x80 ADD PUSH1 0x40 MSTORE DUP1 PUSH0 DUP2 MSTORE PUSH1 0x20 ADD PUSH0 DUP2 MSTORE PUSH1 0x20 ADD PUSH0 DUP2 MSTORE PUSH1 0x20 ADD PUSH0 DUP2 MSTORE POP SWAP1 JUMP JUMPDEST DUP2 MSTORE PUSH1 0x20 ADD PUSH2 0x4D26 PUSH1 0x40 MLOAD DUP1 PUSH1 0x80 ADD PUSH1 0x40 MSTORE DUP1 PUSH0 DUP2 MSTORE PUSH1 0x20 ADD PUSH0 DUP2 MSTORE PUSH1 0x20 ADD PUSH0 DUP2 MSTORE PUSH1 0x20 ADD PUSH0 DUP2 MSTORE POP SWAP1 JUMP JUMPDEST DUP2 MSTORE PUSH1 0x20 ADD PUSH2 0x4D33 PUSH2 0x4FC3 JUMP JUMPDEST DUP2 MSTORE PUSH1 0x20 ADD PUSH2 0x4D40 PUSH2 0x4FF1 JUMP JUMPDEST DUP2 MSTORE PUSH1 0x20 ADD PUSH2 0x4D4D PUSH2 0x5010 JUMP JUMPDEST DUP2 MSTORE PUSH1 0x20 ADD PUSH2 0x4D5A PUSH2 0x4ECC JUMP JUMPDEST DUP2 MSTORE PUSH1 0x20 ADD PUSH2 0x4D86 PUSH1 0x40 MLOAD DUP1 PUSH1 0x80 ADD PUSH1 0x40 MSTORE DUP1 PUSH0 DUP2 MSTORE PUSH1 0x20 ADD PUSH0 DUP2 MSTORE PUSH1 0x20 ADD PUSH0 DUP2 MSTORE PUSH1 0x20 ADD PUSH0 DUP2 MSTORE POP SWAP1 JUMP JUMPDEST DUP2 MSTORE PUSH1 0x20 ADD PUSH2 0x4BBA PUSH1 0x40 MLOAD DUP1 PUSH1 0x80 ADD PUSH1 0x40 MSTORE DUP1 PUSH0 DUP2 MSTORE PUSH1 0x20 ADD PUSH0 DUP2 MSTORE PUSH1 0x20 ADD PUSH0 DUP2 MSTORE PUSH1 0x20 ADD PUSH0 DUP2 MSTORE POP SWAP1 JUMP JUMPDEST PUSH1 0x40 MLOAD DUP1 PUSH2 0x100 ADD PUSH1 0x40 MSTORE DUP1 PUSH2 0x4DF1 PUSH1 0x40 MLOAD DUP1 PUSH1 0xC0 ADD PUSH1 0x40 MSTORE DUP1 PUSH0 DUP2 MSTORE PUSH1 0x20 ADD PUSH0 DUP2 MSTORE PUSH1 0x20 ADD PUSH0 DUP2 MSTORE PUSH1 0x20 ADD PUSH0 DUP2 MSTORE PUSH1 0x20 ADD PUSH0 DUP2 MSTORE PUSH1 0x20 ADD PUSH0 DUP2 MSTORE POP SWAP1 JUMP JUMPDEST DUP2 MSTORE PUSH1 0x20 ADD PUSH2 0x4DFE PUSH2 0x4E8E JUMP JUMPDEST DUP2 MSTORE PUSH1 0x20 ADD PUSH2 0x4E0B PUSH2 0x4ECC JUMP JUMPDEST DUP2 MSTORE PUSH1 0x20 ADD PUSH2 0x4E18 PUSH2 0x4ECC JUMP JUMPDEST DUP2 MSTORE PUSH1 0x20 ADD PUSH0 DUP2 MSTORE PUSH1 0x20 ADD PUSH0 DUP2 MSTORE PUSH1 0x20 ADD PUSH0 DUP2 MSTORE PUSH1 0x20 ADD PUSH0 DUP2 MSTORE POP SWAP1 JUMP JUMPDEST PUSH1 0x40 MLOAD DUP1 PUSH2 0x8C0 ADD PUSH1 0x40 MSTORE DUP1 PUSH1 0x46 SWAP1 PUSH1 0x20 DUP3 MUL DUP1 CALLDATASIZE DUP4 CALLDATACOPY POP SWAP2 SWAP3 SWAP2 POP POP JUMP JUMPDEST PUSH1 0x40 MLOAD DUP1 PUSH2 0x8C0 ADD PUSH1 0x40 MSTORE DUP1 PUSH1 0x46 SWAP1 JUMPDEST PUSH1 0x40 DUP1 MLOAD DUP1 DUP3 ADD SWAP1 SWAP2 MSTORE PUSH0 DUP1 DUP3 MSTORE PUSH1 0x20 DUP3 ADD MSTORE DUP2 MSTORE PUSH1 0x20 ADD SWAP1 PUSH1 0x1 SWAP1 SUB SWAP1 DUP2 PUSH2 0x4E65 JUMPI SWAP1 POP POP SWAP1 JUMP JUMPDEST PUSH1 0x40 MLOAD DUP1 PUSH2 0x320 ADD PUSH1 0x40 MSTORE DUP1 PUSH1 0x19 SWAP1 PUSH1 0x20 DUP3 MUL DUP1 CALLDATASIZE DUP4 CALLDATACOPY POP SWAP2 SWAP3 SWAP2 POP POP JUMP JUMPDEST PUSH1 0x40 MLOAD DUP1 PUSH2 0x120 ADD PUSH1 0x40 MSTORE DUP1 PUSH1 0x9 SWAP1 PUSH1 0x20 DUP3 MUL DUP1 CALLDATASIZE DUP4 CALLDATACOPY POP SWAP2 SWAP3 SWAP2 POP POP JUMP JUMPDEST PUSH1 0x40 MLOAD DUP1 PUSH2 0x380 ADD PUSH1 0x40 MSTORE DUP1 PUSH1 0x1C SWAP1 PUSH1 0x20 DUP3 MUL DUP1 CALLDATASIZE DUP4 CALLDATACOPY POP SWAP2 SWAP3 SWAP2 POP POP JUMP JUMPDEST PUSH1 0x40 MLOAD DUP1 PUSH2 0x520 ADD PUSH1 0x40 MSTORE DUP1 PUSH1 0x29 SWAP1 PUSH1 0x20 DUP3 MUL DUP1 CALLDATASIZE DUP4 CALLDATACOPY POP SWAP2 SWAP3 SWAP2 POP POP JUMP JUMPDEST PUSH1 0x40 MLOAD DUP1 PUSH2 0xDA0 ADD PUSH1 0x40 MSTORE DUP1 PUSH1 0x6D SWAP1 PUSH1 0x20 DUP3 MUL DUP1 CALLDATASIZE DUP4 CALLDATACOPY POP SWAP2 SWAP3 SWAP2 POP POP JUMP JUMPDEST PUSH1 0x40 MLOAD DUP1 PUSH2 0x3A0 ADD PUSH1 0x40 MSTORE DUP1 PUSH1 0x1D SWAP1 PUSH1 0x20 DUP3 MUL DUP1 CALLDATASIZE DUP4 CALLDATACOPY POP SWAP2 SWAP3 SWAP2 POP POP JUMP JUMPDEST PUSH1 0x40 MLOAD DUP1 PUSH1 0xA0 ADD PUSH1 0x40 MSTORE DUP1 PUSH1 0x5 SWAP1 PUSH1 0x20 DUP3 MUL DUP1 CALLDATASIZE DUP4 CALLDATACOPY POP SWAP2 SWAP3 SWAP2 POP POP JUMP JUMPDEST PUSH1 0x40 MLOAD DUP1 PUSH2 0x100 ADD PUSH1 0x40 MSTORE DUP1 PUSH1 0x8 SWAP1 PUSH1 0x20 DUP3 MUL DUP1 CALLDATASIZE DUP4 CALLDATACOPY POP SWAP2 SWAP3 SWAP2 POP POP JUMP JUMPDEST PUSH1 0x40 MLOAD DUP1 PUSH2 0x340 ADD PUSH1 0x40 MSTORE DUP1 PUSH1 0x1A SWAP1 PUSH1 0x20 DUP3 MUL DUP1 CALLDATASIZE DUP4 CALLDATACOPY POP SWAP2 SWAP3 SWAP2 POP POP JUMP JUMPDEST PUSH1 0x40 MLOAD DUP1 PUSH2 0x1A0 ADD PUSH1 0x40 MSTORE DUP1 PUSH1 0xD SWAP1 PUSH1 0x20 DUP3 MUL DUP1 CALLDATASIZE DUP4 CALLDATACOPY POP SWAP2 SWAP3 SWAP2 POP POP JUMP JUMPDEST PUSH1 0x40 MLOAD DUP1 PUSH2 0x380 ADD PUSH1 0x40 MSTORE DUP1 PUSH1 0x1C SWAP1 JUMPDEST PUSH2 0x4FDB PUSH2 0x4F66 JUMP JUMPDEST DUP2 MSTORE PUSH1 0x20 ADD SWAP1 PUSH1 0x1 SWAP1 SUB SWAP1 DUP2 PUSH2 0x4FD3 JUMPI SWAP1 POP POP SWAP1 JUMP JUMPDEST PUSH1 0x40 MLOAD DUP1 PUSH2 0x500 ADD PUSH1 0x40 MSTORE DUP1 PUSH1 0x28 SWAP1 PUSH1 0x20 DUP3 MUL DUP1 CALLDATASIZE DUP4 CALLDATACOPY POP SWAP2 SWAP3 SWAP2 POP POP JUMP JUMPDEST PUSH1 0x40 MLOAD DUP1 PUSH2 0x360 ADD PUSH1 0x40 MSTORE DUP1 PUSH1 0x1B SWAP1 JUMPDEST PUSH2 0x5047 PUSH1 0x40 MLOAD DUP1 PUSH1 0x80 ADD PUSH1 0x40 MSTORE DUP1 PUSH0 DUP2 MSTORE PUSH1 0x20 ADD PUSH0 DUP2 MSTORE PUSH1 0x20 ADD PUSH0 DUP2 MSTORE PUSH1 0x20 ADD PUSH0 DUP2 MSTORE POP SWAP1 JUMP JUMPDEST DUP2 MSTORE PUSH1 0x20 ADD SWAP1 PUSH1 0x1 SWAP1 SUB SWAP1 DUP2 PUSH2 0x5020 JUMPI SWAP1 POP POP SWAP1 JUMP JUMPDEST PUSH0 PUSH0 PUSH0 PUSH0 PUSH1 0x40 DUP6 DUP8 SUB SLT ISZERO PUSH2 0x5070 JUMPI PUSH0 PUSH0 REVERT JUMPDEST DUP5 CALLDATALOAD PUSH8 0xFFFFFFFFFFFFFFFF DUP2 GT ISZERO PUSH2 0x5086 JUMPI PUSH0 PUSH0 REVERT JUMPDEST DUP6 ADD PUSH1 0x1F DUP2 ADD DUP8 SGT PUSH2 0x5096 JUMPI PUSH0 PUSH0 REVERT JUMPDEST DUP1 CALLDATALOAD PUSH8 0xFFFFFFFFFFFFFFFF DUP2 GT ISZERO PUSH2 0x50AC JUMPI PUSH0 PUSH0 REVERT JUMPDEST DUP8 PUSH1 0x20 DUP3 DUP5 ADD ADD GT ISZERO PUSH2 0x50BD JUMPI PUSH0 PUSH0 REVERT JUMPDEST PUSH1 0x20 SWAP2 DUP3 ADD SWAP6 POP SWAP4 POP DUP6 ADD CALLDATALOAD PUSH8 0xFFFFFFFFFFFFFFFF DUP2 GT ISZERO PUSH2 0x50DD JUMPI PUSH0 PUSH0 REVERT JUMPDEST DUP6 ADD PUSH1 0x1F DUP2 ADD DUP8 SGT PUSH2 0x50ED JUMPI PUSH0 PUSH0 REVERT JUMPDEST DUP1 CALLDATALOAD PUSH8 0xFFFFFFFFFFFFFFFF DUP2 GT ISZERO PUSH2 0x5103 JUMPI PUSH0 PUSH0 REVERT JUMPDEST DUP8 PUSH1 0x20 DUP3 PUSH1 0x5 SHL DUP5 ADD ADD GT ISZERO PUSH2 0x5117 JUMPI PUSH0 PUSH0 REVERT JUMPDEST SWAP5 SWAP8 SWAP4 SWAP7 POP PUSH1 0x20 ADD SWAP5 POP POP POP JUMP JUMPDEST PUSH4 0x4E487B71 PUSH1 0xE0 SHL PUSH0 MSTORE PUSH1 0x11 PUSH1 0x4 MSTORE PUSH1 0x24 PUSH0 REVERT JUMPDEST DUP1 DUP3 MUL DUP2 ISZERO DUP3 DUP3 DIV DUP5 EQ OR PUSH2 0x1FEE JUMPI PUSH2 0x1FEE PUSH2 0x5125 JUMP JUMPDEST PUSH0 PUSH0 DUP6 DUP6 GT ISZERO PUSH2 0x515E JUMPI PUSH0 PUSH0 REVERT JUMPDEST DUP4 DUP7 GT ISZERO PUSH2 0x516A JUMPI PUSH0 PUSH0 REVERT JUMPDEST POP POP DUP3 ADD SWAP4 SWAP2 SWAP1 SWAP3 SUB SWAP2 POP JUMP JUMPDEST DUP1 DUP3 ADD DUP1 DUP3 GT ISZERO PUSH2 0x1FEE JUMPI PUSH2 0x1FEE PUSH2 0x5125 JUMP JUMPDEST PUSH4 0x4E487B71 PUSH1 0xE0 SHL PUSH0 MSTORE PUSH1 0x32 PUSH1 0x4 MSTORE PUSH1 0x24 PUSH0 REVERT JUMPDEST DUP2 DUP2 SUB DUP2 DUP2 GT ISZERO PUSH2 0x1FEE JUMPI PUSH2 0x1FEE PUSH2 0x5125 JUMP JUMPDEST PUSH0 PUSH1 0x1 DUP3 ADD PUSH2 0x51C2 JUMPI PUSH2 0x51C2 PUSH2 0x5125 JUMP JUMPDEST POP PUSH1 0x1 ADD SWAP1 JUMP JUMPDEST DUP1 CALLDATALOAD PUSH1 0x20 DUP4 LT ISZERO PUSH2 0x1FEE JUMPI PUSH0 NOT PUSH1 0x20 DUP5 SWAP1 SUB PUSH1 0x3 SHL SHL AND SWAP3 SWAP2 POP POP JUMP JUMPDEST PUSH0 DUP2 DUP4 DUP3 JUMPDEST PUSH1 0x9 DUP2 LT ISZERO PUSH2 0x520A JUMPI DUP2 MLOAD DUP4 MSTORE PUSH1 0x20 SWAP3 DUP4 ADD SWAP3 SWAP1 SWAP2 ADD SWAP1 PUSH1 0x1 ADD PUSH2 0x51EB JUMP JUMPDEST POP POP POP PUSH2 0x120 DUP3 ADD SWAP1 POP SWAP3 SWAP2 POP POP JUMP JUMPDEST PUSH4 0x4E487B71 PUSH1 0xE0 SHL PUSH0 MSTORE PUSH1 0x12 PUSH1 0x4 MSTORE PUSH1 0x24 PUSH0 REVERT JUMPDEST PUSH0 DUP3 PUSH2 0x523C JUMPI PUSH2 0x523C PUSH2 0x521A JUMP JUMPDEST POP DIV SWAP1 JUMP JUMPDEST PUSH0 DUP2 DUP4 DUP3 JUMPDEST PUSH1 0x29 DUP2 LT ISZERO PUSH2 0x5265 JUMPI DUP2 MLOAD DUP4 MSTORE PUSH1 0x20 SWAP3 DUP4 ADD SWAP3 SWAP1 SWAP2 ADD SWAP1 PUSH1 0x1 ADD PUSH2 0x5246 JUMP JUMPDEST POP POP POP PUSH2 0x520 DUP3 ADD SWAP1 POP SWAP3 SWAP2 POP POP JUMP JUMPDEST PUSH0 DUP2 DUP4 DUP3 JUMPDEST PUSH1 0x6D DUP2 LT ISZERO PUSH2 0x5299 JUMPI DUP2 MLOAD DUP4 MSTORE PUSH1 0x20 SWAP3 DUP4 ADD SWAP3 SWAP1 SWAP2 ADD SWAP1 PUSH1 0x1 ADD PUSH2 0x527A JUMP JUMPDEST POP POP POP PUSH2 0xDA0 DUP3 ADD SWAP1 POP SWAP3 SWAP2 POP POP JUMP JUMPDEST PUSH0 DUP2 DUP4 DUP3 JUMPDEST PUSH1 0x1D DUP2 LT ISZERO PUSH2 0x52CD JUMPI DUP2 MLOAD DUP4 MSTORE PUSH1 0x20 SWAP3 DUP4 ADD SWAP3 SWAP1 SWAP2 ADD SWAP1 PUSH1 0x1 ADD PUSH2 0x52AE JUMP JUMPDEST POP POP POP PUSH2 0x3A0 DUP3 ADD SWAP1 POP SWAP3 SWAP2 POP POP JUMP JUMPDEST PUSH0 DUP2 DUP4 DUP3 JUMPDEST PUSH1 0x5 DUP2 LT ISZERO PUSH2 0x5301 JUMPI DUP2 MLOAD DUP4 MSTORE PUSH1 0x20 SWAP3 DUP4 ADD SWAP3 SWAP1 SWAP2 ADD SWAP1 PUSH1 0x1 ADD PUSH2 0x52E2 JUMP JUMPDEST POP POP POP PUSH1 0xA0 DUP3 ADD SWAP1 POP SWAP3 SWAP2 POP POP JUMP JUMPDEST PUSH0 DUP3 PUSH2 0x531E JUMPI PUSH2 0x531E PUSH2 0x521A JUMP JUMPDEST POP MOD SWAP1 JUMP JUMPDEST PUSH0 DUP2 PUSH2 0x5331 JUMPI PUSH2 0x5331 PUSH2 0x5125 JUMP JUMPDEST POP PUSH0 NOT ADD SWAP1 JUMP JUMPDEST PUSH0 DUP3 MLOAD DUP1 PUSH1 0x20 DUP6 ADD DUP5 MCOPY PUSH0 SWAP3 ADD SWAP2 DUP3 MSTORE POP SWAP2 SWAP1 POP JUMP JUMPDEST PUSH0 PUSH1 0x20 DUP3 DUP5 SUB SLT ISZERO PUSH2 0x535E JUMPI PUSH0 PUSH0 REVERT JUMPDEST DUP2 MLOAD DUP1 ISZERO ISZERO DUP2 EQ PUSH2 0x19BC JUMPI PUSH0 PUSH0 REVERT JUMPDEST PUSH4 0x4E487B71 PUSH1 0xE0 SHL PUSH0 MSTORE PUSH1 0x41 PUSH1 0x4 MSTORE PUSH1 0x24 PUSH0 REVERT JUMPDEST DUP2 MLOAD PUSH0 SWAP1 DUP3 SWAP1 PUSH1 0x20 DUP6 ADD DUP4 JUMPDEST DUP3 DUP2 LT ISZERO PUSH2 0x53AB JUMPI DUP2 MLOAD DUP5 MSTORE PUSH1 0x20 SWAP4 DUP5 ADD SWAP4 SWAP1 SWAP2 ADD SWAP1 PUSH1 0x1 ADD PUSH2 0x538D JUMP JUMPDEST POP SWAP2 SWAP6 SWAP5 POP POP POP POP POP JUMP JUMPDEST PUSH0 DUP2 DUP4 DUP3 JUMPDEST PUSH1 0xD DUP2 LT ISZERO PUSH2 0x53DA JUMPI DUP2 MLOAD DUP4 MSTORE PUSH1 0x20 SWAP3 DUP4 ADD SWAP3 SWAP1 SWAP2 ADD SWAP1 PUSH1 0x1 ADD PUSH2 0x53BB JUMP JUMPDEST POP POP POP PUSH2 0x1A0 DUP3 ADD SWAP1 POP SWAP3 SWAP2 POP POP JUMP JUMPDEST PUSH4 0x4E487B71 PUSH1 0xE0 SHL PUSH0 MSTORE PUSH1 0x21 PUSH1 0x4 MSTORE PUSH1 0x24 PUSH0 REVERT INVALID ADDRESS PUSH5 0x4E72E131A0 0x29 0xB8 POP GASLIMIT 0xB6 DUP2 DUP2 PC TSTORE 0x28 CALLER 0xE8 BASEFEE PUSH26 0xB9709143E1F593F0000001A2646970667358221220D152A45F9C 0x4E 0xA6 0xD7 RJUMPI 0x81AF CODESIZE 0x2D 0xC0 BLOCKHASH 0xCB CALLF 0x37E 0xAF 0xF6 MSIZE SWAP5 SMOD PUSH27 0x3C4248958F181264736F6C634300081F0033000000000000000000 "
		},
		"gasEstimates": {
			"creation": {
				"codeDepositCost": "4317600",
				"executionCost": "infinite",
				"totalCost": "infinite"
			},
			"external": {
				"verify(bytes,bytes32[])": "infinite"
			},
			"internal": {
				"loadVerificationKey()": "infinite"
			}
		},
		"methodIdentifiers": {
			"verify(bytes,bytes32[])": "ea50d0e4"
		}
	},
	"abi": [
		{
			"inputs": [],
			"name": "ProofLengthWrong",
			"type": "error"
		},
		{
			"inputs": [],
			"name": "PublicInputsLengthWrong",
			"type": "error"
		},
		{
			"inputs": [],
			"name": "ShpleminiFailed",
			"type": "error"
		},
		{
			"inputs": [],
			"name": "SumcheckFailed",
			"type": "error"
		},
		{
			"inputs": [
				{
					"internalType": "bytes",
					"name": "proof",
					"type": "bytes"
				},
				{
					"internalType": "bytes32[]",
					"name": "publicInputs",
					"type": "bytes32[]"
				}
			],
			"name": "verify",
			"outputs": [
				{
					"internalType": "bool",
					"name": "",
					"type": "bool"
				}
			],
			"stateMutability": "view",
			"type": "function"
		}
	]
}